:100000000C94A7000C94CF000C94CF000C94CF005C
:100010000C94CF000C94CF000C94CF000C94CF0024
:100020000C94CF000C94CF000C94CF000C94CF0014
:100030000C94CF000C94CF000C94CF000C94CF0004
:100040000C94891A0C94CF000C94B51C0C94E61CEB
:100050000C94CF000C94CF000C94CF000C94CF00E4
:100060000C9433190C94CF00036EDB363D9A9999AA
:10007000993DABAAAA2A3E000000803F084AD73B20
:100080003BCE016E84BCBFFDC12F3D6C74319ABD67
:1000900056833DDA3D00C77F11BED9E4BB4C3E918B
:1000A0006BAAAABE000000803F072C7AA5BA6CC5D7
:1000B00090DA3B9365FC8BBC53F810FD3C56928361
:1000C0004DBD879D3AB63DCBC9BF5BBE73DA0FC944
:1000D0003F05A84CCDB2D44EB93836A9020C50B960
:1000E000918688083CA6AAAA2ABE000000803F008C
:1000F000000000240027002A00000000002500283E
:10010000002B000000000023002600290004040446
:1001100004040404040202020202020303030303B0
:10012000030102040810204080010204081020018D
:100130000204081020000000070002010000030470
:10014000060000000000000000005B18BC1D112428
:100150001FBECFEFD8E0DEBFCDBF13E0A0E0B1E01F
:10016000E0EEF7E402C005900D92A633B107D9F78F
:1001700015E0A6E3B3E001C01D92A43EB107E1F78C
:1001800011E0CEE4D1E004C02297FE010E94EA23F0
:10019000CA34D107C9F70E94E91F0C94EE230C94CE
:1001A0000000CF92DF92EF92FF920F931F93CF93B5
:1001B000DF938091F102882309F458C049E353E0AA
:1001C000C1E5D3E095E4C92E93E0D92E6DE573E047
:1001D00005E713E089E6E82E83E0F82E23E030E01F
:1001E000FA0181919191A191B191AF018993999374
:1001F000A993B993F60181939193A193B1936F0160
:10020000FB0181919191A191B191BF01F80181937D
:100210009193A193B1938F01F70181939193A1934E
:10022000B1937F0121503040D9F61092A60310926D
:10023000A50380E090E0DC018093A1039093A203EA
:10024000A093A303B093A40380939D0390939E0374
:10025000A0939F03B093A0038093990390939A0374
:10026000A0939B03B0939C031092F102DF91CF9176
:100270001F910F91FF90EF90DF90CF90089581E054
:10028000809354048DE061E00E94C41B0895109295
:1002900054048DE060E00E94C41B089585EC95E055
:1002A0000E94FC1B18161906CCF785EC95E00E94FD
:1002B0002B1C08952F923F924F925F926F927F92E4
:1002C0008F929F92AF92BF92CF92DF92EF92FF9266
:1002D0000F931F93DF93CF93CDB7DEB72C970FB655
:1002E000F894DEBF0FBECDBFE0903704F090380425
:1002F0000091390410913A04C801B7010E94DA2034
:1003000069877A878B879C87C801B7010E94202361
:100310005B016C01E0903304F090340400913504EB
:1003200010913604C801B7010E94DA2069837A83EC
:100330008B839C83C801B7010E9420231B012C01E1
:10034000E0906103F09062030091630310916403F5
:1003500060906503709066038090670390906803D7
:10036000C801B70129853A854B855C850E94BD226D
:100370006D837E838F839887C401B301A6019501A5
:100380000E94BD229B01AC016D817E818F81988589
:100390000E94F81F9B01AC0150582D833E834F8370
:1003A000588769817A818B819C8120915D0330918E
:1003B0005E0340915F03509160030E94BD226983F8
:1003C0007A838B839C83C801B701A60195010E94A3
:1003D000BD22A20191010E94BD229B01AC01698155
:1003E0007A818B819C810E94F91F7B018C01C40161
:1003F000B30129853A854B855C850E94BD22A20107
:1004000091010E94BD229B01AC01C801B7010E946D
:10041000F91F9B01AC016D817E818F8198850E94BF
:1004200083206093A7037093A8038093A9039093FC
:10043000AA032C960FB6F894DEBF0FBECDBFCF91A6
:10044000DF911F910F91FF90EF90DF90CF90BF90C1
:10045000AF909F908F907F906F905F904F903F9064
:100460002F9008956091C1027091C2028091C302E1
:100470009091C4020E945D20905860933304709361
:10048000340480933504909336046091C5027091D2
:10049000C6028091C7029091C8022091C902309192
:1004A000CA024091CB025091CC020E9483206093FB
:1004B0003704709338048093390490933A04609120
:1004C000B5027091B6028091B7029091B802209166
:1004D000A9023091AA024091AB025091AC020E9455
:1004E000832060932F0470933004809331049093A1
:1004F00032040895AF92BF92CF92DF92EF92FF92B3
:100500000F931F93CF93DF93C82ED92EA62EB72E0D
:10051000C3E0D0E010E000E0FF24EE24F60161919A
:100520007191819191916F01F501219131914191E9
:1005300051915F010E94BD229B01AC01D801F701DE
:100540006B2F702F8F2F9E2D0E94F91F162F072FB4
:10055000F82EE92E219711F7A8019701652F742F26
:10056000832F922FDF91CF911F910F91FF90EF90EA
:10057000DF90CF90BF90AF900895AF92BF92CF928F
:10058000DF92EF92FF920F931F93CF93DF937C0143
:10059000EB018A016C817D818E819F81FA0120852A
:1005A0003185428553850E94BD225B016C016885BF
:1005B00079858A859B85F80124813581468157811B
:1005C0000E94BD229B01AC01C601B5010E94F81F2B
:1005D000F7016083718382839383688579858A8537
:1005E0009B85F80120813181428153810E94BD2287
:1005F0005B016C01688179818A819B81F80120858A
:100600003185428553850E94BD229B01AC01C60104
:10061000B5010E94F81FF701648375838683978371
:10062000688179818A819B81F801248135814681A5
:1006300057810E94BD225B016C016C817D818E819E
:100640009F81F80120813181428153810E94BD2226
:100650009B01AC01C601B5010E94F81FF70160873C
:10066000718782879387DF91CF911F910F91FF90C0
:10067000EF90DF90CF90BF90AF900895CF92DF9230
:10068000EF92FF920F931F93CF93DF936C01EB01D7
:1006900079018A01688179818A819B810E94BD22CA
:1006A000F60160837183828393836C817D818E8167
:1006B0009F81A80197010E94BD22F6016483758382
:1006C00086839783688579858A859B85A8019701AC
:1006D0000E94BD22F6016087718782879387DF9130
:1006E000CF911F910F91FF90EF90DF90CF900895E1
:1006F000CF92DF92EF92FF920F931F93CF93DF93EE
:10070000062F172FE42EF52EC82ED92EC0E0D0E0EC
:10071000F80161917191819191918F01F70121917E
:100720003191419151917F010E94F91FF60161932E
:100730007193819391936F012196C330D10541F755
:10074000DF91CF911F910F91FF90EF90DF90CF90AD
:1007500008956F927F928F929F92AF92BF92CF92A5
:10076000DF92EF92FF920F931F932091AB03309192
:10077000AC034091AD035091AE03E090AF03F09015
:10078000B0030091B1031091B203A090B303B090F5
:10079000B403C090B503D090B603CA01B9010E945A
:1007A000BD223B014C01C801B701A80197010E947D
:1007B000BD229B01AC01C401B3010E94F91F7B0162
:1007C0008C01C601B501A60195010E94BD229B01C5
:1007D000AC01C801B7010E94F91F0E942A2320E042
:1007E00030E040E85BE30E94BD229B01AC0160E089
:1007F00070E080E89FE30E94F81FF62E072F182F65
:10080000E92E20E030E0A9010E94B2221816D4F4AB
:100810006F2D702F812F9E2D2F2D302F412F5E2D6C
:100820000E94F91F9B01AC0160E070E080E89FE34B
:100830000E94F81F20E030E0A9010E94D62087FF27
:1008400019C075C06F2D702F812F9E2D2F2D302F29
:10085000412F5E2D0E94F91F20E030E040E85FE369
:100860000E94F91F20E030E0A9010E94D62087FFF6
:100870001DC05DC06F2D702F812F9E2D2F2D302F0D
:10088000412F5E2D0E94F91F9B01AC0160E070E0DA
:1008900080E89FE30E94F81F20E030E040E85FE33B
:1008A0000E94B22218160CF447C019C06F2D702F89
:1008B000812F9E2D2F2D302F412F5E2D0E94F91F4D
:1008C00020E030E040E85FE30E94F91F20E030E0E4
:1008D00040E85FE30E94B222181674F113C06F2D36
:1008E000702F812F9E2D2F2D302F412F5E2D0E9496
:1008F000F91F9B01AC0160E070E080E89FE30E947B
:10090000F81F10C06F2D702F812F9E2D2F2D302F8F
:10091000412F5E2D0E94F91F20E030E040E85FE3A8
:100920000E94F91FF62E072F182FE92E0AC0FF2468
:1009300000E010E0EE2405C0FF2400E010E82FE303
:10094000E22E83EF93E06BEA73E041EC52E00E9409
:10095000BD026F2D702F812F9E2D2AE037ED43EAC7
:100960005CE30E94BD229B01AC018FEC93E063EF3E
:1009700073E00E943E036F2D702F812F9E2D2CEA75
:1009800035EC47EA57E30E94BD229B01AC018EE59E
:1009900094E063EF73E00E943E038BED93E0BC01B3
:1009A0004EE554E00E947803E090A703F090A8037E
:1009B0000091A9031091AA03C801B7010E94DA208F
:1009C0005B016C01C801B7010E9420232091A9029C
:1009D0003091AA024091AB025091AC020E94BD221C
:1009E0007B018C01C601B5012091B5023091B602A0
:1009F0004091B7025091B8020E94BD229B01AC0108
:100A0000C801B7010E94F81F9B01AC018FEF93E072
:100A100061EC72E00E943E038AE694E06FEF73E0BF
:100A20002AE939E949E95FE30E943E038FEC93E04C
:100A3000BC014AE654E00E9478038EE594E06FEF33
:100A400073E02CEA35EC47EA57E30E943E038BED56
:100A500093E0BC014EE554E00E9478031F910F9192
:100A6000FF90EF90DF90CF90BF90AF909F908F90CE
:100A70007F906F9008956F927F928F929F92AF9226
:100A8000BF92CF92DF92EF92FF920F931F93DF936B
:100A9000CF93CDB7DEB7A4970FB6F894DEBF0FBEE5
:100AA000CDBF69EAC62E62E0D62E5CE0652E712CC1
:100AB0006C0C7D1CC601B3010E947A02905820E0A4
:100AC00030E040E05FE30E94BD225B01982E892E5A
:100AD0008E010F5F1F4FC801B301F4012A2D3B2D7A
:100AE0004F2F5E2F0E943E034DE0E42EF12CEC0EC2
:100AF000FD1EC701B601F4012A2D3B2D4F2F5E2F9D
:100B00000E943E03C801B801A6010E947803C701F4
:100B1000B701A3010E94780339E1A32EB12CAC0EDA
:100B2000BD1EC501B801A7010E94BD02C801B801E0
:100B30000E947A029B01AC0160E070E080E490E4E6
:100B40000E94F81F20E030E040E05FE30E94BD22F9
:100B50009B01AC01C601B8010E943E03C701B70169
:100B60000E947A029B01AC0160E070E080E490E4B6
:100B70000E94F81F20E030E040E05FE30E94BD22C9
:100B80009B01AC01C301B7010E943E03C501B50141
:100B90000E947A029B01AC0160E070E080E490E486
:100BA0000E94F81F20E030E040E05FE30E94BD2299
:100BB0009B01AC0181EC92E0B5010E943E03A4963A
:100BC0000FB6F894DEBF0FBECDBFCF91DF911F915E
:100BD0000F91FF90EF90DF90CF90BF90AF909F90DC
:100BE0008F907F906F9008952F923F924F925F92D7
:100BF0006F927F928F929F92AF92BF92CF92DF922D
:100C0000EF92FF920F931F93CF93DF93362E272EF1
:100C10003A01082F192FEE24FF2445C069917991DC
:100C200089919991F80120813181428153810E94FB
:100C3000BD224B015C01F801648175818681978139
:100C4000288539854A855B850E94BD229B01AC01C0
:100C5000C501B4010E94F91F4B015C01F8016085D8
:100C60007185828593852C893D894E895F890E9493
:100C7000BD229B01AC01C501B4010E94F91FF60120
:100C800061937193819391936F01C415D50531F6EA
:100C9000ECE0CE2ED12CEC0CFD1C045F1F4F24E2A7
:100CA000E216F10479F0C101E92FEF016E01D22CB7
:100CB000E6016301CE0CDF1C7CE0472E512C4C0E6C
:100CC0005D1EACCFDF91CF911F910F91FF90EF9000
:100CD000DF90CF90BF90AF909F908F907F906F905C
:100CE0005F904F903F902F9008952F923F924F9298
:100CF0005F926F927F928F929F92AF92BF92CF92AC
:100D0000DF92EF92FF920F931F93DF93CF9300D068
:100D100000D0CDB7DEB760918D0370918E038091C6
:100D20008F039091900326EA36E24FE95AE30E943E
:100D3000BD226093B7037093B8038093B903909377
:100D4000BA03609191037091920380919303909103
:100D5000940326EA36E24FE95AE30E94BD226093EB
:100D6000BB037093BC038093BD039093BE0360915B
:100D7000950370919603809197039091980326EACA
:100D800036E24FE95AE30E94BD226093BF0370939D
:100D9000C0038093C1039093C20380913903909163
:100DA0003A03A0913B03B0913C038093AB03909333
:100DB000AC03A093AD03B093AE0380913D0390913B
:100DC0003E03A0913F03B09140038093AF03909303
:100DD000B003A093B103B093B2038091410390910B
:100DE0004203A0914303B09144038093B3039093D3
:100DF000B403A093B503B093B60387EE93E067EB1B
:100E000073E04BED53E00E94780383EC93E067EED0
:100E100073E04FEC53E00E9478030F2EF0E02F2E8A
:100E2000F0E03F2EF0E04F2EF0E05F2EF02D20920C
:100E3000CD023092CE024092CF025092D002E0908A
:100E40004C04F0904D0400914E0410914F04570152
:100E50006801D7FAD094D7F8D0946090CB03709003
:100E6000CC038090CD039090CE03C601B501A401C0
:100E700093010E94BD226093D1027093D2028093AD
:100E8000D3029093D4028091C7039091C803A0919C
:100E9000C903B091CA0389839A83AB83BC83C80119
:100EA000B70129813A814B815C810E94BD22609308
:100EB000D5027093D6028093D7029093D802C801CE
:100EC000B701A40193010E94BD226093D9027093DF
:100ED000DA028093DB029093DC022092DD023092F2
:100EE000DE024092DF025092E0026090C3037090F5
:100EF000C4038090C5039090C603C601B501A40148
:100F000093010E94BD226093E1027093E2028093FC
:100F1000E3029093E402C601B50129813A814B8135
:100F20005C810E94BD226093E5027093E60280938B
:100F3000E7029093E802C801B701A40193010E945F
:100F4000BD226093E9027093EA028093EB029093D2
:100F5000EC022092ED023092EE024092EF025092AB
:100F6000F00289EA92E06DEC72E04BE054E00E94FE
:100F7000F405F9EAEF2EF2E0FF2E0BE014E0D701C2
:100F80006D917D918D919C91F801208131814281FB
:100F900053810E94F91FD7016D937D938D939C938C
:100FA000139714966D917D918D919C911797F801EF
:100FB00024813581468157810E94F91FD7011496FB
:100FC0006D937D938D939C93179718966D917D915A
:100FD0008D919C911B97F801208531854285538521
:100FE0000E94F91FD70118966D937D938D939C9362
:100FF0001B97ECE0F0E0EE0EFF1E045F1F4FFDECD0
:10100000EF16F2E0FF0609F0BACF0F900F900F90A5
:101010000F90CF91DF911F910F91FF90EF90DF9094
:10102000CF90BF90AF909F908F907F906F905F9088
:101030004F903F902F9008958F929F92AF92BF92C2
:10104000CF92DF92EF92FF920F931F93CF93DF9394
:101050008B01E82EE7017E01F92EE701C42ED52E83
:10106000EE24FF24688179818A819B81F8012081A7
:101070003181428153810E94BD224B015C016C8110
:101080007D818E819F81F801248135814681578140
:101090000E94BD229B01AC01C501B4010E94F91F51
:1010A0004B015C01688579858A859B85F8012085DF
:1010B0003185428553850E94BD229B01AC01C5014B
:1010C000B4010E94F91FF60161937193819391938A
:1010D0006F010894E11CF11C2C96F3E0EF16F1046B
:1010E00009F6DF91CF911F910F91FF90EF90DF9064
:1010F000CF90BF90AF909F908F90089560913903EB
:1011000070913A0380913B0390913C0320E030E0E2
:1011100044E851E40E94F91F25E037ED46E75FE31C
:101120000E94BD226093390370933A0380933B037E
:1011300090933C0360913D0370913E0380913F0387
:101140009091400320E030E048E651E40E94F81F0F
:1011500024E339EA49E75FE30E94BD2260933D033F
:1011600070933E0380933F0390934003609141034B
:1011700070914203809143039091440320E030E05A
:101180004CEE51E40E94F91F24E339EA49E75FE39A
:101190000E94BD22609341037093420380934303F6
:1011A0009093440360915D0370915E0380915F03AF
:1011B000909160032EEE3BE247E252E40E94F81F5A
:1011C00060938103709382038093830390938403DD
:1011D0006091610370916203809163039091640355
:1011E00027ED34E744E352E40E94F81F609385033F
:1011F00070938603809387039093880360916503BF
:1012000070916603809167039091680326EF38EC34
:1012100042E953E40E94F91F6093890370938A03A3
:1012200080938B0390938C0382EF92E061E873E0EC
:101230004DE553E00E941C0860918D0370918E0370
:1012400080918F039091900320E030E048E551E4D5
:101250000E94F81F60938D0370938E0380938F0319
:101260009093900360919103709192038091930306
:101270009091940323EC35EF40E551E40E94F81F70
:1012800060939103709392038093930390939403DC
:1012900060919503709196038091970390919803C4
:1012A00025E83BEE4DE051E40E94F81F6093950362
:1012B00070939603809397039093980308952F92C9
:1012C0003F924F925F926F927F928F929F92AF92D6
:1012D000BF92CF92DF92EF92FF920F931F93DF9313
:1012E000CF93CDB7DEB764970FB6F894DEBF0FBECD
:1012F000CDBF9C8B8B8B2A013B0148015901C70153
:10130000B6010E94DA206D837E838F839887C701A0
:10131000B6010E94202369877A878B879C87C50145
:10132000B4010E94DA206D877E878F87988BC50174
:10133000B4010E94202369837A838B839C83C30139
:10134000B2010E94DA204B015C01C301B2010E948C
:1013500020236B017C016D857E858F859889A50191
:1013600094010E94BD22EB89FC8960837183828392
:101370009383C501B40129853A854B855C850E941C
:10138000BD22362E272E898B9A8BA101652F742FB3
:1013900029813A814B815C810E94BD222B013C0155
:1013A0006D817E818F819885A70196010E94BD2263
:1013B0009B01AC01C301B2010E94F81FEB89FC89BB
:1013C00064837583868397836D817E818F81988501
:1013D000A50194010E94BD22462E772E682E592E1B
:1013E00069857A858B859C85A70196010E94BD221F
:1013F0004B015C01642D772D862D952D29813A8135
:101400004B815C810E94BD229B01AC01C501B401EE
:101410000E94F91FEB89FC89608771878287938717
:101420008F01045F1F4F6D857E858F859889A70189
:1014300096010E94BD22EB89FC89648775878687A7
:10144000978769857A858B859C8529813A814B812F
:101450005C810E94BD22A70196010E94BD229B01D2
:10146000AC01642D772D862D952D0E94F91FF80172
:1014700064837583868397836D817E818F81988550
:1014800029813A814B815C810E94BD22A70196018E
:101490000E94BD22D101C9888A882B2F3A2F4C2D5A
:1014A000582D0E94F81FF801608771878287938703
:1014B0000B891C89085E1F4F89819A81AB81BC8191
:1014C000B058EB89FC89808F918FA28FB38F6D8587
:1014D0007E858F85988929853A854B855C850E9414
:1014E000BD22F80164837583868397836D817E8135
:1014F0008F8198852D853E854F8558890E94BD2214
:10150000F801608771878287938764960FB6F89495
:10151000DEBF0FBECDBFCF91DF911F910F91FF9026
:10152000EF90DF90CF90BF90AF909F908F907F9083
:101530006F905F904F903F902F9008952F923F9221
:101540004F925F926F927F928F929F92AF92BF92D3
:10155000CF92DF92EF92FF920F931F93A0903903E7
:10156000B0903A03C0903B03D0903C0360903D03A1
:1015700070903E0380903F03909040032090410381
:10158000309042034090430350904403C601B5019C
:10159000A60195010E94BD227B018C01C401B3010B
:1015A000A40193010E94BD229B01AC01C801B701B7
:1015B0000E94F91F7B018C01C201B101A2019101BE
:1015C0000E94BD229B01AC01C801B7010E94F91F16
:1015D0000E942A237B018C01C601B501A801970155
:1015E0000E94DD202FE83AE245E754E40E94BD2244
:1015F0006093390370933A0380933B0390933C03C9
:10160000C401B301A80197010E94DD202FE83AE24E
:1016100045E754E40E94BD2260933D0370933E036E
:1016200080933F0390934003C201B101A801970149
:101630000E94DD202FE83AE245E754E40E94BD22F3
:101640006093410370934203809343039093440358
:101650001F910F91FF90EF90DF90CF90BF90AF90D0
:101660009F908F907F906F905F904F903F902F90C2
:1016700008952F923F924F925F926F927F928F9236
:101680009F92AF92BF92CF92DF92EF92FF920F9311
:101690001F93DF93CF93CDB7DEB7A0970FB6F89423
:1016A000DEBF0FBECDBF60902F04709030048090DD
:1016B000310490903204C401B30129E038E944E4D4
:1016C0005EE30E94F91F7B018C012090A7033090FC
:1016D000A8034090A9035090AA03C201B10129E0D8
:1016E00038E944E45EE30E94F91FD62EC72EB82ED7
:1016F000A92E6E2D7F2D802F912F20E030E0A901A3
:101700000E94D62087FF1CC06E2D7F2D802F912F29
:101710002BED3FE049EC50E40E94F91F7B018C0166
:10172000A6019501652F742F832F922F2BED3FE09B
:1017300049EC50E40E94F91FD62EC72EB82EA92ED0
:10174000C401B30121EE3EE245E652E40E94BD220F
:101750006D8B7E8B8F8B988F6091330470913404E6
:10176000809135049091360421EE3EE245E652E444
:101770000E94BD22698F7A8F8B8F9C8F6091370476
:10178000709138048091390490913A0421EE3EE240
:1017900045E652E40E94BD226D8F7E8F8F8F98A305
:1017A0006E2D7F2D802F912F21EE3EE245E652E4F3
:1017B0000E94BD2269877A878B879C87A601950145
:1017C000652F7C2D832F9A2D21EE3EE245E652E4D3
:1017D0000E94BD226D877E878F87988BC201B101E1
:1017E00021EE3EE245E652E40E94BD22698B7A8BEF
:1017F0008B8B9C8B809136039091370381309105C0
:1018000009F055C080913B0490913C04A0913D04A7
:10181000B0913E0489839A83AB83BC83809150044A
:1018200090915104A0915204B09153048D839E83F2
:10183000AF83B88785EC95E0BE016B5E7F4F4CE0CF
:1018400050E00E94F91D85EC95E0BE01675F7F4F77
:101850004CE050E00E94F91D85EC95E069E373E0EF
:101860004CE050E00E94F91D85EC95E06DE573E0D9
:101870004CE050E00E94F91D85EC95E06DE873E0C6
:101880004CE050E00E94F91D85EC95E0BE016F5FD1
:101890007F4F44E050E00E94F91D85EC95E0BE01C9
:1018A0006B5F7F4F44E050E00E94F91DA3C1009799
:1018B00009F0A0C185EC95E060E071E00E94341E63
:1018C00040913B0450913C0460913D0470913E0472
:1018D00085EC95E02AE030E00E94C11E85EC95E0A1
:1018E0006AE071E00E94341E85EC95E06CE071E0E6
:1018F0000E94341E40915004509151046091520452
:101900007091530485EC95E02AE030E00E94C11EFE
:1019100085EC95E06AE071E00E94341E85EC95E06C
:1019200060E171E00E94341E4D895E896F89788D77
:1019300085EC95E022E030E00E94E61F85EC95E022
:101940006AE071E00E94341E85EC95E065E171E08B
:101950000E94341E498D5A8D6B8D7C8D85EC95E0EF
:1019600022E030E00E94E61F85EC95E06AE071E03D
:101970000E94341E85EC95E06CE171E00E94341EFB
:101980004D8D5E8D6F8D78A185EC95E022E030E085
:101990000E94E61F85EC95E06AE071E00E94341E2B
:1019A00085EC95E062E271E00E94341E49855A851B
:1019B0006B857C8585EC95E022E030E00E94E61F97
:1019C00085EC95E06AE071E00E94341E85EC95E0BC
:1019D0006FE271E00E94341E4D855E856F857889C7
:1019E00085EC95E022E030E00E94E61F85EC95E072
:1019F0006AE071E00E94341E85EC95E06EE371E0D0
:101A00000E94341E49895A896B897C8985EC95E04E
:101A100022E030E00E94E61F85EC95E06AE071E08C
:101A20000E94341E85EC95E06AE471E00E94341E49
:101A30004091390350913A0360913B0370913C030C
:101A400085EC95E022E030E00E94E61F85EC95E011
:101A50006AE071E00E94341E85EC95E06EE471E06E
:101A60000E94341E40913D0350913E0360913F031C
:101A70007091400385EC95E022E030E00E94E61F83
:101A800085EC95E06AE071E00E94341E85EC95E0FB
:101A900062E571E00E94341E40914103509142037F
:101AA000609143037091440385EC95E022E030E0BF
:101AB0000E94E61F85EC95E06AE071E00E94341E0A
:101AC00085EC95E066E571E00E94341E40915D036F
:101AD00050915E0360915F037091600385EC95E027
:101AE00022E030E00E94E61F85EC95E06AE071E0BC
:101AF0000E94341E85EC95E06AE571E00E94341E78
:101B0000409161035091620360916303709164039B
:101B100085EC95E022E030E00E94E61F85EC95E040
:101B20006AE071E00E94341E85EC95E06EE571E09C
:101B30000E94341E409165035091660360916703D3
:101B40007091680385EC95E022E030E00E94E61F8A
:101B500085EC95E06AE071E00E94341E85EC95E02A
:101B600062E671E00E94341E40918D0350918E0315
:101B700060918F037091900385EC95E022E030E056
:101B80000E94E61F85EC95E06AE071E00E94341E39
:101B900085EC95E066E671E00E94341E4091910369
:101BA00050919203609193037091940385EC95E0BA
:101BB00022E030E00E94E61F85EC95E06AE071E0EB
:101BC0000E94341E85EC95E06AE671E00E94341EA6
:101BD00040919503509196036091970370919803FB
:101BE00085EC95E022E030E00E94E61F85EC95E070
:101BF0000E943F1EA0960FB6F894DEBF0FBECDBF69
:101C0000CF91DF911F910F91FF90EF90DF90CF90D8
:101C1000BF90AF909F908F907F906F905F904F900C
:101C20003F902F900895DF93CF93CDB7DEB72C97D9
:101C30000FB6F894DEBF0FBECDBF809136039091F2
:101C400037038130910509F040C060912F047091F5
:101C50003004809131049091320421EE3EE245E659
:101C600052E40E94BD2269837A838B839C836091B6
:101C7000330470913404809135049091360421EE40
:101C80003EE245E652E40E94BD226D837E838F834F
:101C9000988760913704709138048091390490914D
:101CA0003A0421EE3EE245E652E40E94BD226987F5
:101CB0007A878B879C8785EC95E0BE016F5F7F4FAD
:101CC0004CE050E00E94F91D5BC0009709F058C03D
:101CD00085EC95E06EE671E00E94341E60912F0461
:101CE00070913004809131049091320421EE3EE2F3
:101CF00045E652E40E94BD22AB01BC0185EC95E0B3
:101D000022E030E00E94E61F85EC95E06AE071E099
:101D10000E94341E60913304709134048091350424
:101D20009091360421EE3EE245E652E40E94BD2247
:101D3000AB01BC0185EC95E022E030E00E94E61F9B
:101D400085EC95E06AE071E00E94341E60913704F2
:101D5000709138048091390490913A0421EE3EE26A
:101D600045E652E40E94BD22AB01BC0185EC95E042
:101D700022E030E00E94E61F85EC95E00E943F1EC5
:101D80002C960FB6F894DEBF0FBECDBFCF91DF917A
:101D900008954F925F926F927F928F929F92AF922F
:101DA000BF92CF92DF92EF92FF920F931F93CF9348
:101DB000DF93009709F06DC085EC95E064E771E072
:101DC0000E94341E19E3812E13E0912EC5E4D3E066
:101DD00001E513E0AA24BB24F401C190D190E19065
:101DE000F1904F013E01C701B601288139814A8136
:101DF0005B810E94D62087FF04C0C882D982EA8214
:101E0000FB822801C701B601F8012081318142819E
:101E100053810E94B22218162CF4F801C082D1829C
:101E2000E282F3822496F3014081518162817381C1
:101E300085EC95E022E030E00E94E61F85EC95E01D
:101E40006DE871E00E94341E0C5F1F4FF20140816B
:101E500051816281738185EC95E022E030E00E943F
:101E6000E61FF2E0AF16B10439F085EC95E06FE8BB
:101E700071E00E94341E04C085EC95E00E943F1E74
:101E80000894A11CB11C83E0A816B10409F0A4CFEA
:101E90001DC18130910509F06DC085EC95E062E9C6
:101EA00071E00E94341EBDE58B2EB3E09B2EC9E687
:101EB000D3E005E713E0AA24BB24F401C190D1903C
:101EC000E190F1904F013E01C701B60128813981AF
:101ED0004A815B810E94D62087FF04C0C882D982D4
:101EE000EA82FB822801C701B601F8012081318115
:101EF000428153810E94B22218162CF4F801C0824C
:101F0000D182E282F3822496F30140815181628181
:101F1000738185EC95E022E030E00E94E61F85ECBD
:101F200095E06DE871E00E94341E0C5F1F4FF201D6
:101F3000408151816281738185EC95E022E030E03F
:101F40000E94E61FF2E0AF16B10439F085EC95E08F
:101F50006FE871E00E94341E04C085EC95E00E9499
:101F60003F1E0894A11CB11C83E0A816B10409F01F
:101F7000A4CFACC08230910509F0A8C0609199034C
:101F800070919A0380919B0390919C0320918D0303
:101F900030918E0340918F03509190030E94F91F5E
:101FA0006093990370939A0380939B0390939C038F
:101FB00060919D0370919E0380919F039091A00377
:101FC0002091910330919203409193035091940397
:101FD0000E94F91F60939D0370939E0380939F035B
:101FE0009093A0036091A1037091A2038091A30339
:101FF0009091A4032091950330919603409197030B
:10200000509198030E94F91F6093A1037093A2035B
:102010008093A3039093A4038091A5039091A603BA
:1020200001969093A6038093A50385EC95E06AEA58
:1020300071E00E94341E0DE813E0A9E9CA2EA3E066
:10204000DA2EC0E0D0E0F801419151916191719197
:102050008F0185EC95E022E030E00E94E61F85ECE0
:1020600095E06DE871E00E94341EF6018190919038
:10207000A190B1906F016091A5037091A60388278C
:1020800077FD8095982F0E9478219B01AC01C501B6
:10209000B4010E94DD20AB01BC0185EC95E022E09B
:1020A00030E00E94E61FC230D10539F085EC95E0A2
:1020B0006FE871E00E94341E04C085EC95E00E9438
:1020C0003F1E2196C330D10509F0BDCFDF91CF91DE
:1020D0001F910F91FF90EF90DF90CF90BF90AF9046
:1020E0009F908F907F906F905F904F900895FF9298
:1020F0000F931F93CF93DF93F82EC5ECD5E0CE015D
:102100006AEC71E00E94341ECE016F2D0E94371ED2
:10211000CE016DE30E94371E4091390350913A037E
:1021200060913B0370913C03CE0122E030E00E94BD
:10213000E61F0AE011E0CE01B8010E94341E409172
:102140003D0350913E0360913F0370914003CE01E7
:1021500022E030E00E94E61FCE01B8010E94341E4A
:1021600040914103509142036091430370914403B5
:10217000CE0122E030E00E94E61FCE010E943F1E09
:10218000CE016EEC71E00E94341ECE016F2D0E94D4
:10219000371ECE016DE30E94371E40915D035091C2
:1021A0005E0360915F0370916003CE0122E030E036
:1021B0000E94E61FCE01B8010E94341E40916103C7
:1021C000509162036091630370916403CE0122E039
:1021D00030E00E94E61FCE01B8010E94341E4091FB
:1021E0006503509166036091670370916803CE01A7
:1021F00022E030E00E94E61FCE010E943F1ECE0189
:1022000062ED71E00E94341ECE016F2D0E94371ED8
:10221000CE016DE30E94371E40918D0350918E03D5
:1022200060918F0370919003CE0122E030E00E9414
:10223000E61FCE01B8010E94341E409191035091D7
:1022400092036091930370919403CE0122E030E0F9
:102250000E94E61FCE01B8010E94341E40919503F2
:10226000509196036091970370919803CE0122E0FC
:1022700030E00E94E61FCE010E943F1EDF91CF9109
:102280001F910F91FF900895CF93DF93C5ECD5E098
:10229000CE0169E373E04CE050E00E94F91DCE01ED
:1022A0006DE573E04CE050E00E94F91DCE016DE851
:1022B00073E04CE050E00E94F91DDF91CF9108954A
:1022C0008091A7029091A8028330910559F48091E2
:1022D0003603909137038130910521F1009779F50C
:1022E00082E50FC08230910579F40E947E088091CA
:1022F00036039091370381309105A1F00097F9F4EE
:1023000083E40E947710089584309105C1F4809190
:102310003603909137038130910539F40E944411BE
:102320000E947E080E9444110895009741F482E5BE
:102330000E9477100E947E0883E40E94771008951F
:102340008CEB94E00E9423180895CF93DF93CCEB9D
:10235000D4E0CE0163E570E00E944818CE016DE242
:102360000E94F317CE0168E00E94F317CE010E948D
:102370004B1865E070E080E090E00E94111BCE01F8
:1023800063E570E00E944818CE0161E30E94F317F4
:10239000CE0168E00E94F317CE010E944B1865E061
:1023A00070E080E090E00E94111BCE0163E570E0D8
:1023B0000E944818CE016CE20E94F317CE0169E03A
:1023C0000E94F317CE010E944B1865E070E080E098
:1023D00090E00E94111BDF91CF910895EF92FF9240
:1023E0000F931F93DF93CF9300D000D000D0CDB7D1
:1023F000DEB78CEB94E063E570E00E9448188CEB4C
:1024000094E062E30E94F3178CEB94E00E944B1877
:102410008CEB94E063E570E00E9448188CEB94E04C
:1024200063E570E046E050E00E943B187E010894AE
:10243000E11CF11C00E010E009C08CEB94E00E946C
:102440009C17F70181937F010F5F1F4F8CEB94E086
:102450000E949317009789F78CEB94E00E944B1829
:1024600006301105E9F59C8180E06B8170E0682BF6
:10247000792B882777FD8095982F0E94782160938B
:10248000390370933A0380933B0390933C039A8102
:1024900080E0698170E0682B792B882777FD809533
:1024A000982F0E94782160933D0370933E038093A0
:1024B0003F03909340039E8180E06D8170E0682B24
:1024C000792B882777FD8095982F0E94782160933B
:1024D000410370934203809343039093440313C0DA
:1024E00080915804909159040196909359048093D7
:1024F000580480913803882331F085EC95E066ED2F
:1025000071E00E94541E26960FB6F894DEBF0FBEEF
:10251000CDBFCF91DF911F910F91FF90EF90089564
:10252000CF93DF93CCEBD4E0CE016EE170E00E945C
:102530004818CE0162E00E94F317CE0160E00E94CD
:10254000F317CE010E944B1865E070E080E090E048
:102550000E94111BCE016EE170E00E944818CE016E
:1025600060E00E94F317CE0168E10E94F317CE01EC
:102570000E944B1865E070E080E090E00E94111B23
:10258000DF91CF910895EF92FF920F931F93DF9306
:10259000CF9300D000D000D0CDB7DEB78CEB94E065
:1025A0006EE170E00E9448188CEB94E063E00E94BA
:1025B000F3178CEB94E00E944B188CEB94E06EE1E7
:1025C00070E00E9448188CEB94E06EE170E046E009
:1025D00050E00E943B187E010894E11CF11C00E0D1
:1025E00010E009C08CEB94E00E949C17F7018193E6
:1025F0007F010F5F1F4F8CEB94E00E9493170097B1
:1026000089F78CEB94E00E944B180630110509F015
:1026100046C09D8180E06E8170E0682B792B7095BB
:1026200061957F4F882777FD8095982F0E947821AC
:1026300060935D0370935E0380935F0390936003E8
:10264000998180E06A8170E0682B792B70956195A3
:102650007F4F882777FD8095982F0E94782160937F
:1026600061037093620380936303909364039B817F
:1026700080E06C8170E0682B792B709561957F4FBD
:10268000882777FD8095982F0E94782160936503B5
:1026900070936603809367039093680313C08091DF
:1026A0005A0490915B04019690935B0480935A04C2
:1026B00080913803882331F085EC95E062EF71E07A
:1026C0000E94541E26960FB6F894DEBF0FBECDBFF3
:1026D000CF91DF911F910F91FF90EF900895CF93CD
:1026E000DF93CCEBD4E0CE0168E670E00E9448189E
:1026F000CE016EE30E94F317CE0160E80E94F3174B
:10270000CE010E944B1865E070E080E090E00E94EE
:10271000111BCE0168E670E00E944818CE0166E108
:102720000E94F317CE016BE10E94F317CE010E94C5
:102730004B1865E070E080E090E00E94111BCE0134
:1027400068E670E00E944818CE0165E10E94F31728
:10275000CE016AE00E94F317CE010E944B1865E09B
:1027600070E080E090E00E94111BCE0168E670E00E
:102770000E944818CE016EE30E94F317CE0160E07C
:102780000E94F317CE010E944B1865E070E080E0D4
:1027900090E00E94111BDF91CF910895EF92FF927C
:1027A0000F931F93DF93CF9300D000D000D0CDB70D
:1027B000DEB78CEB94E068E670E00E9448188CEB82
:1027C00094E06DE10E94F3178CEB94E00E944B18AB
:1027D0008CEB94E068E670E00E9448188CEB94E083
:1027E00068E670E046E050E00E943B187E010894E5
:1027F000E11CF11C00E010E009C08CEB94E00E94A9
:102800009C17F70181937F010F5F1F4F8CEB94E0C2
:102810000E949317009789F78CEB94E00E944B1865
:102820000630110509F046C09B8180E06C8170E0A4
:10283000682B792B709561957F4F882777FD809560
:10284000982F0E94782160938D0370938E0380935C
:102850008F0390939003998180E06A8170E0682BE8
:10286000792B709561957F4F882777FD8095982FFC
:102870000E94782160939103709392038093930355
:10288000909394039D8180E06E8170E0682B792B9A
:10289000709561957F4F882777FD8095982F0E94CE
:1028A0007821609395037093960380939703909398
:1028B000980313C080915C0490915D0401969093FD
:1028C0005D0480935C0480913803882331F085ECAB
:1028D00095E06DE072E00E94541E26960FB6F894C3
:1028E000DEBF0FBECDBFCF91DF911F910F91FF9043
:1028F000EF9008950E94CE130E94EE110E94C31221
:1029000008956F927F928F929F92AF92BF92CF92D3
:10291000DF92EF92FF920F931F93DF93CF9300D03C
:10292000CDB7DEB785EC95E00E94FC1B82309105A7
:102930000CF4E6C085EC95E00E942B1C83329105D7
:1029400009F0DEC085EC95E00E942B1C86369105CF
:1029500021F481E080935504D3C083379105D1F4ED
:102960000E944E0189830E944E018A8385EC95E086
:1029700065E272E00E94341E85EC95E0BE016F5F57
:102980007F4F42E050E00E94F91D85EC95E00E94E7
:102990003F1EB6C08F36910509F0B2C00E944E01AD
:1029A0008D3649F485E090E09093A8028093A702C9
:1029B0000E944E0145C08E3671F48091560490916C
:1029C0005704019663E070E00E949F2390935704A0
:1029D0008093560418C0843739F481E090E09093D6
:1029E000A8028093A7022EC0823639F481E090E0DD
:1029F0009093A8028093A7022FC0833641F41092CF
:102A0000A8021092A70281E08093F10279C0833777
:102A100041F50E944E01182F0E944E01123719F401
:102A200023E030E009C0133619F422E030E004C09E
:102A3000123631F424E030E03093A8022093A7024C
:102A4000843729F4109237031092360359C0823626
:102A500009F056C081E090E09093370380933603ED
:102A60004FC0803319F40E944701CDCF813331F438
:102A700081E08093F1020E943F0142C0853609F057
:102A80003FC00E944E01803319F41092380338C0C1
:102A9000813321F481E08093380332C0833681F59D
:102AA00085EC95E06CE272E00E94341E609158045F
:102AB0007091590485EC95E04AE050E00E940B1FAC
:102AC00085EC95E06AE071E00E94341E60915A0442
:102AD00070915B0485EC95E04AE050E00E940B1F8A
:102AE00085EC95E06AE071E00E94341E60915C0420
:102AF00070915D0485EC95E04AE050E00E94151F5E
:102B000010924B040E94EB1A7B018C0160934304EA
:102B1000709344048093450490934604A0903B0432
:102B2000B0903C04C0903D04D0903E0488EE682EE6
:102B300083E0782E812C912CC601B50128EE33E07C
:102B400040E050E00E948023E616F70608071907C8
:102B500050F560957095809590956E0D7F1D801F46
:102B6000911F6093470470934804809349049093A5
:102B70004A0460322EE4720720E0820720E09207C8
:102B800008F442C0A0923F04B0924004C0924104B5
:102B9000D0924204A40193010E94B2232A0D3B1D4E
:102BA0004C1D5D1D26C0A8019701261B370B480B45
:102BB000590BDA01C901209347043093480440932C
:102BC000490450934A0480323EE4930730E0A3075F
:102BD00030E0B307C8F0A0923F04B0924004C09226
:102BE0004104D0924204C801B701A40193010E949C
:102BF000B22320933B0430933C0440933D04509314
:102C00003E0481E080934B0480914B04882309F4B7
:102C100088C060913B0470913C0480913D04909188
:102C20003E0420913F043091400440914104509172
:102C30004204621B730B840B950B609350047093DA
:102C4000510480935204909353040E94762120E013
:102C500030E04AE754E40E94DD2060934C04709316
:102C60004D0480934E0490934F040E947A148091F7
:102C7000A7029091A802009791F40E94D100809140
:102C80005404882329F480915504882309F447C00B
:102C900080915604909157040E94C90E40C085301F
:102CA0009105C9F40E947E080E945A010E9475068F
:102CB0000E943B050E94A9030E9432020E949E0AC4
:102CC00080915404882321F480915504882339F19C
:102CD0000E94390B24C081309105B9F40E947E080E
:102CE0000E945A010E9475060E943B050E94A9039A
:102CF0000E94320280915404882321F4809155046B
:102D0000882369F00E94130E0AC08091540488231E
:102D100021F480915504882311F00E9460111092D3
:102D200055040F900F90CF91DF911F910F91FF905D
:102D3000EF90DF90CF90BF90AF909F908F907F905B
:102D40006F900895AF92BF92CF92DF92EF92FF9271
:102D50000F931F93DF93CF93CDB7DEB7A4970FB632
:102D6000F894DEBF0FBECDBF80E090E0A0E8BFE3E7
:102D7000898F9A8FAB8FBC8F80E090E0DC018D8FC4
:102D80009E8FAF8FB8A389A39AA3ABA3BCA30E94C5
:102D90007A140E94DD1A60933B0470933C04809384
:102DA0003D0490933E0420913D0330913E034091B9
:102DB0003F0350914003E0904103F09042030091A3
:102DC000430310914403CA01B9010E94BD225B0173
:102DD0006C01C801B701A80197010E94BD229B01A7
:102DE000AC01C601B5010E94F91F0E942A239B0174
:102DF000AC016DE3E62E63E0F62EF701929182912D
:102E0000729162917F010E948320905860933304F5
:102E100070933404809335049093360499E1C92E5D
:102E2000D12CCC0EDD1E8E010F5F1F4FC801B701E4
:102E3000A6010E94BD02CE010D96B601A8010E9416
:102E4000BD0269897A898B899C892D893E894F8940
:102E5000588D0E94832060933704709338048093C8
:102E6000390490933A040E945A014091A70350916B
:102E7000A8036091A9037091AA0340932F04509373
:102E80003004609331047093320400913304109144
:102E900034042091350430913604C0903704D0902A
:102EA0003804E0903904F0903A0489EA92E00E94F4
:102EB0005F09A4960FB6F894DEBF0FBECDBFCF91C9
:102EC000DF911F910F91FF90EF90DF90CF90BF9017
:102ED000AF90089585EC95E040E051EE60E070E041
:102EE0000E942D1D8DE061E00E94A01B8DE060E03E
:102EF0000E94C41B62E370E080E090E00E94111B1E
:102F00000E94A0110E94A5110E9490120E946F13AE
:102F100064E170E080E090E00E94111B0E94A21624
:102F20000E94470108952091970430E08091960413
:102F3000281B3109C9010895809196049091970446
:102F4000891750F4E82FF0E0EA58FB4F208130E079
:102F50008F5F8093960402C02FEF3FEFC901089561
:102F6000E091960480919704E81730F4F0E0EA5875
:102F7000FB4F208130E002C02FEF3FEFC9010895E1
:102F80000895CF92DF92EF92FF920F931F93CF930A
:102F9000DF936C01CB01EA012091BB042223B1F045
:102FA000E62EF92E00E010E00DC0D7016D917D01F5
:102FB000D601ED91FC910190F081E02DC6010995BB
:102FC0000F5F1F4F0C171D0780F303C0642F0E9473
:102FD0000119CE01DF91CF911F910F91FF90EF90DA
:102FE000DF90CF900895DF93CF930F92CDB7DEB7E8
:102FF00069832091BB042223D1F02091BA042032AE
:1030000040F021E030E0FC013383228320E030E017
:1030100015C08091B904E82FF0E0E756FB4F998185
:1030200090838F5F8093B9048093BA0405C0CE016A
:10303000019661E00E94011921E030E0C9010F9082
:10304000CF91DF91089510929604109297041092F8
:10305000B9041092BA040E9472180895862F413262
:1030600008F040E266E774E00E948B181092960424
:103070008093970408950E942E18089581E080930C
:10308000BB04609398041092B9041092BA04089596
:103090000E943E1808958091980469E974E0409177
:1030A000BA0421E00E94C1181092B9041092BA0427
:1030B0001092BB0408951092BF041092BE0488EED3
:1030C00093E0A0E0B0E08093C0049093C104A0938B
:1030D000C204B093C3048AE193E09093BD0480934B
:1030E000BC0408951092EC0482E161E00E94C41BCC
:1030F00083E161E00E94C41BE9EBF0E080818E7FF8
:10310000808380818D7F808380E28093B80085E416
:103110008093BC000895413288F59091EC04992386
:10312000E1F791E09093EC049FEF9093EB04109201
:10313000C904942F91509093CA04880F81608093A2
:10314000C80485EE8093BC008091EC048130E1F3EB
:103150008091C904841710F44091C904EBECF4E0A9
:10316000262F372FD901242F30E02E0F3F1F02C00A
:1031700081918D93E217F307D9F701C040E0842FC6
:1031800008954132B0F59091EC049923E1F792E073
:103190009093EC049FEF9093EB041092C90440933A
:1031A000CA04DB01EBECF4E050E04E0F5F1F02C0FD
:1031B0009D919193E417F507D9F790E0880F991F37
:1031C0008093C80485EE8093BC00222321F0809177
:1031D000EC048230E1F38091EB048F3F61F0809149
:1031E000EB04803251F08091EB04803341F483E0B2
:1031F000089581E0089580E0089582E0089584E0D4
:1032000008956132A0F42091EC04243091F460938D
:103210001105DC01E4E1F5E070E06E0F7F1F02C0F4
:103220008D918193E617F707D9F780E0089581E043
:10323000089582E00895882311F085EC01C085E8A7
:103240008093BC00089585ED8093BC008091BC0004
:1032500084FDFCCF1092EC04089585EC8093BC00B3
:103260001092EC0408951F920F920FB60F92112442
:103270002F933F934F935F936F937F938F939F937E
:10328000AF93BF93EF93FF938091B90090E0887F55
:1032900090708036910509F4C2C081369105E4F53D
:1032A0008832910509F47EC089329105C4F48031D9
:1032B000910509F472C08131910544F4009709F435
:1032C00013C18830910509F013C167C08831910599
:1032D00009F468C08032910509F00AC178C08034D1
:1032E000910509F48AC0813491054CF4803391052D
:1032F00009F46FC08833910509F0FAC06EC08035BB
:10330000910509F46EC08835910509F47BC08834B5
:10331000910509F0EDC0EAC08839910509F4DAC0D9
:1033200089399105ECF48837910509F478C089371B
:1033300091054CF48836910509F471C080379105E8
:1033400009F0D6C06CC08838910509F4C3C0803933
:10335000910509F46AC08038910509F0C9C065C0BB
:10336000803B910509F48EC0813B91054CF4803A75
:10337000910509F46CC0883A910509F0B9C082C082
:10338000803C910509F4AAC0883C910509F4A6C0C7
:10339000883B910509F0ACC08AC08091C804809335
:1033A000BB0013C09091C9048091CA04981708F01B
:1033B0009DC08091C904E82FF0E0E553FB4F908158
:1033C0009093BB008F5F8093C90481E084C080E24A
:1033D00001C080E38093EB0489C088E38093EB0411
:1033E0004EC08091C9049091BB00E82FF0E0E553F6
:1033F000FB4F90838F5F8093C9049091C9048091A3
:10340000CA0465C08091C9049091BB00E82FF0E028
:10341000E553FB4F90838F5F8093C90467C083E0BF
:103420008093EC041092ED04D0CF8091ED048032B3
:1034300008F050C08091ED049091BB00E82FF0E0BF
:10344000E251FB4F90838F5F8093ED04BECF80915C
:10345000ED04803230F4E091ED04F0E0E251FB4FF6
:1034600010820E9423196091ED04E0910E05F09105
:103470000F058EEE94E070E009951092ED040E9425
:103480002D1936C084E08093EC0410921005109240
:103490001105E0911205F091130509958091110530
:1034A000882329F481E080931105109214058091FE
:1034B0001005E82FF0E0EC5EFA4F90819093BB008E
:1034C0008F5F8093100590911005809111059817DA
:1034D00008F47BCF80E00E941B190AC081E00E94A3
:1034E0001B191092EC0404C01092EB040E942319E3
:1034F000FF91EF91BF91AF919F918F917F916F91CC
:103500005F914F913F912F910F900FBE0F901F90A1
:1035100018951F920F920FB60F9211242F933F937D
:103520004F935F936F937F938F939F93AF93BF93CB
:10353000209138053091390540913A0550913B056D
:1035400070913C05DA01C9010296A11DB11D672FDA
:103550006A5F6D3730F06D57DA01C9010396A11D1E
:10356000B11D60933C058093380590933905A09375
:103570003A05B0933B058091340590913505A091B3
:103580003605B09137050196A11DB11D8093340514
:1035900090933505A0933605B0933705BF91AF9151
:1035A0009F918F917F916F915F914F913F912F915B
:1035B0000F900FBE0F901F9018958FB7F894209121
:1035C00038053091390540913A0550913B058FBF40
:1035D000B901CA0108959FB7F8942091340530913C
:1035E0003505409136055091370586B5A89B06C034
:1035F0008F3F21F02F5F3F4F4F4F5F4F9FBF542FA3
:10360000432F322F2227280F311D411D511D83E0EA
:10361000220F331F441F551F8A95D1F7B901CA01E4
:103620000895EF92FF920F931F93CF93DF937B0147
:103630008C010E94EB1AEB010FC00E94EB1A6C1B6D
:103640007D0B83E0683E780738F00894E108F108C4
:1036500001091109C851DC4FE114F10401051105FC
:1036600061F7DF91CF911F910F91FF90EF90089537
:10367000789484B5826084BD84B5816084BD85B54D
:10368000826085BD85B5816085BDEEE6F0E0808114
:1036900081608083E1E8F0E0108280818260808335
:1036A000808181608083E0E8F0E0808181608083B8
:1036B000E1EBF0E0808184608083E0EBF0E08081EA
:1036C00081608083EAE7F0E080818460808380818C
:1036D0008260808380818160808380818068808334
:1036E0001092C1000895833071F0843028F4813045
:1036F000A1F0823021F514C08630B1F08730D1F0CE
:103700008430E9F404C0809180008F7703C08091F9
:1037100080008F7D80938000089584B58F7702C0EC
:1037200084B58F7D84BD08958091B0008F7780939C
:10373000B00008958091B0008F7D8093B00008950F
:1037400090E0FC01EF5DFE4F2491FC01E35FFE4F32
:10375000E491EE23C1F0F0E0EE0FFF1FE151FF4FC7
:1037600085919491DC01662341F49FB7F8948C9184
:10377000209582238C939FBF08959FB7F8948C91D6
:10378000822B8C939FBF08950F931F93DF93CF934A
:103790000F92CDB7DEB7282F30E0F901EB5CFE4F7A
:1037A0008491F901EF5DFE4F1491235F3E4FF901C3
:1037B00004910023D9F0882321F069830E94731BB0
:1037C0006981E02FF0E0EE0FFF1FE750FF4F85917A
:1037D0009491DC019FB7F894662321F48C911095A5
:1037E000812302C08C91812B8C939FBF0F90CF912E
:1037F000DF911F910F910895FC0184859585FC014F
:10380000E05CFF4F208131818E5B9F4FFC01808106
:103810009181281B390B2F733070C9010895FC0169
:1038200084859585FC01E05CFF4F40815181FC015E
:10383000EE5BFF4F208131814217530741F0019029
:10384000F081E02DE80FF91F208130E002C02FEF5A
:103850003FEFC9010895FC0184859585FC01E05C7A
:10386000FF4F40815181FC01EE5BFF4F2081318190
:103870004217530771F0A081B181A80FB91F2C9195
:103880008081918101968F7390709183808330E065
:1038900002C02FEF3FEFC9010895DC011E968D9104
:1038A0009C911F97FC01E05CFF4F8E5B9F4F408116
:1038B0005181DC012D913C91119742175307B9F7C3
:1038C00008951F93FC01162F26853785D901A05C2A
:1038D000BF4F8D919C91019660E470E00E949F2300
:1038E000D901AE5BBF4F4D915C911197841795073D
:1038F000D1F3D901A05CBF4F0D90BC91A02DA20FB8
:10390000B31F1C93A685B785A05CBF4F11969C93EF
:103910008E93A689B7892C9181E090E0058C02C036
:10392000880F991F0A94E2F7282B2C9381E090E0EE
:103930001F910895FB01E05CFF4F208131812F5FD3
:103940003F4F2F733070DB01AE5BBF4F4D915C91E9
:1039500011972417350739F0A081B181A60FB71F41
:103960008C9331832083089508951F920F920FB690
:103970000F9211242F933F934F935F936F937F93F5
:103980008F939F93AF93BF93EF93FF938091C60064
:103990006DE375E00E949A1CFF91EF91BF91AF918A
:1039A0009F918F917F916F915F914F913F912F9157
:1039B0000F900FBE0F901F90189585EC95E00E9418
:1039C000FC1B009711F00E94B41C08951F920F92E7
:1039D0000FB60F9211242F933F935F936F937F93B2
:1039E0008F939F93AF93BF93EF93FF932091C10564
:1039F0003091C2058091C3059091C40528173907FD
:103A000031F48091C1008F7D8093C10016C0E09198
:103A1000C305F091C405EF57FA4F20818091C3058B
:103A20009091C405019660E470E00E949F239093FA
:103A3000C4058093C3052093C600FF91EF91BF9109
:103A4000AF919F918F917F916F915F913F912F9156
:103A50000F900FBE0F901F9018959F92AF92BF923C
:103A6000CF92DF92EF92FF920F931F93CF93DF934A
:103A7000EC017A018B0199249394EC89FD8981E012
:103A800090E00E8C02C0880F991F0A94E2F78083A1
:103A900060E874E88EE190E0A80197010E94B223EB
:103AA00021503040404050405695479537952795D6
:103AB00090E4A92E92E4B92E9FE0C92ED12C12C019
:103AC0009924EC89FD891082C601B501A8019701EE
:103AD0000E94B223215030404040504056954795B7
:103AE0003795279580E12030380710F0992041F76D
:103AF000E889F9893083EA89FB892083EE89FF8987
:103B0000408181E090E09C010A8C02C0220F331FAB
:103B10000A94E2F7422B4083EE89FF8940819C01A1
:103B20000B8C02C0220F331F0A94E2F7422B408312
:103B3000EE89FF8940819C010C8C02C0220F331F4B
:103B40000A94E2F7422B4083EE89FF8920810D8C95
:103B500002C0880F991F0A94E2F780958223808320
:103B6000DF91CF911F910F91FF90EF90DF90CF9059
:103B7000BF90AF909F9008951092C8051092C7050E
:103B800088EE93E0A0E0B0E08093C9059093CA0569
:103B9000A093CB05B093CC05E7ECF5E08AE293E087
:103BA000929382938DE395E09587848781E895E0F1
:103BB0009787868785EC90E0918B808B84EC90E0F2
:103BC000938B828B80EC90E0958B848B81EC90E0E2
:103BD000978B868B86EC90E0918F808F84E0828F2C
:103BE00083E0838F87E0848F85E0858F81E0868FF7
:103BF0000895CF92DF92EF92FF920F931F93CF938E
:103C0000DF936C017B018A01C0E0D0E00FC0D701D7
:103C10006D917D01D601ED91FC910190F081E02D37
:103C2000C6010995C80FD91F015010400115110593
:103C300071F7CE01DF91CF911F910F91FF90EF901F
:103C4000DF90CF900895DB010D900020E9F7AD01E2
:103C500041505040461B570BDC01ED91FC91028016
:103C6000F381E02D099508950E94231E0895DC013B
:103C7000ED91FC910190F081E02D099508950F934D
:103C80001F93CF93DF93EC016DE00E94371E8C01F0
:103C9000CE016AE00E94371E080F191FC801DF918C
:103CA000CF911F910F9108950F931F93CF93DF939F
:103CB000EC010E94231E8C01CE010E943F1E080FC2
:103CC000191FC801DF91CF911F910F9108958F9215
:103CD0009F92AF92BF92CF92DF92EF92FF920F939B
:103CE0001F93DF93CF93CDB7DEB7A1970FB6F894AC
:103CF000DEBF0FBECDBF6C01042FE52FCB01122F0D
:103D000019A2223008F41AE021E2E22EF12CEC0E86
:103D1000FD1E812E9924AA24BB2403C0022FE32F69
:103D2000CA01602F7E2FA50194010E94B223129F29
:103D3000802D1124081B0894E108F1080A3014F4BE
:103D4000005D01C0095CF7010083211531054105C3
:103D5000510521F7C601B7010E94231EA1960FB697
:103D6000F894DEBF0FBECDBFCF91DF911F910F91B1
:103D7000FF90EF90DF90CF90BF90AF909F908F908B
:103D800008952115310549F4DC01ED91FC91019074
:103D9000F081E02D642F099508950E94671E089513
:103DA000CF92DF92EF92FF920F931F93CF93DF9307
:103DB000EC017A018B012115310541F4E881F9818B
:103DC0000190F081E02D642F09951AC02A30310549
:103DD000A9F477FF12C06DE20E94371E6C014427E0
:103DE0005527BA014E195F09600B710BCE012AE00D
:103DF0000E94671EC80ED91E04C02AE00E94671EDA
:103E00006C01C601DF91CF911F910F91FF90EF9050
:103E1000DF90CF9008959A01FB01AF01662757FD0F
:103E20006095762F0E94D01E08950F931F93CF9315
:103E3000DF93EC019A01CB01AC01662757FD609539
:103E4000762FCE010E94D01E8C01CE010E943F1E13
:103E5000080F191FC801DF91CF911F910F9108958D
:103E60006F927F929F92AF92BF92CF92DF92EF922A
:103E7000FF920F931F93CF93DF933C017A018B0145
:103E8000C22ECB01BA0120E030E0A9010E94D62069
:103E900087FF0AC0C3016DE20E94371EEC0117FBC9
:103EA000109517F9109502C0C0E0D0E0DD2450E075
:103EB00040E030E02FE311C0DA01F9016B2F742FDD
:103EC0008F2F922F20E030E040E251E40E94DD206D
:103ED000562F472F382F292FD394DC1468F3C801AD
:103EE000B701DA01F9012B2F342F4F2F5E2F0E94DB
:103EF000F91F5B01F82E992E7B2D0E944A21162F67
:103F0000D72EE82E092F0E9476219B01AC016A2D45
:103F10007B2D8F2D992D0E94F81F962EA72EB82E3F
:103F2000F92EC301412F5D2D6E2D702F2AE030E058
:103F30000E94C11EC80FD91FCC20B9F1C30165EA88
:103F400072E00E94231EC80FD91F2FC0692D7A2D41
:103F50008B2D9F2D20E030E040E251E40E94BD22F5
:103F6000D62EB72EA82E992E0E9445217B01002720
:103F7000F7FC0095102FC301B801A7012AE030E03B
:103F80000E94D01EC80FD91FC801B7010E94782116
:103F90009B01AC016D2D7B2D8A2D992D0E94F81F60
:103FA000962EA72EB82EF92ECA94CC2079F6CE01E3
:103FB000DF91CF911F910F91FF90EF90DF90CF9005
:103FC000BF90AF909F907F906F9008950E94301F98
:103FD0000895CF93DF930E94381B0E946A17CDED9E
:103FE000DCE10E9481142097E1F30E94DD1CF9CFEF
:103FF0005058BB27AA270ED06AC233D230F038D22D
:1040000020F031F49F3F11F41EF4F2C10EF4E0955C
:10401000E7FBE8C1E92F7DD280F3BA176207730787
:104020008407950718F071F49EF595C20EF4E0959B
:104030000B2EBA2FA02D0B01B90190010C01CA0162
:10404000A0011124FF27591B99F0593F50F4503E0D
:1040500068F11A16F040A22F232F342F4427585FFF
:10406000F3CF469537952795A795F0405395C9F717
:104070007EF41F16BA0B620B730B840BBAF09150CF
:10408000A1F0FF0FBB1F661F771F881FC2F70EC06E
:10409000BA0F621F731F841F48F487957795679541
:1040A000B795F7959E3F08F0B3CF9395880F08F02A
:1040B0009927EE0F9795879508959F939F77EEE345
:1040C00089379E0720F4E8E6F0E0BAD109C04BD169
:1040D0009058A2EA2AED3FE049EC5FE39BDFF7D17D
:1040E0000F9007FC90580895BCD158F080E891E0FB
:1040F00009F49EEFBDD128F040E851E059F45EEF9D
:1041000009C076C128C2E92FE07803D268F3092EEE
:10411000052AC1F3261737074807590738F00E2E2E
:1041200007F8E02569F0E025E0640AC0EF6307F8CE
:10413000009407FADB01B9019D01DC01CA01AD0160
:10414000EF934AD0C4D10AD05F91552331F02BEDC3
:104150003FE049E450FD49EC4CCF0895DF93DD2763
:10416000B92FBF7740E85FE31616170648075B07CD
:1041700010F4D92FFBD19F938F937F936F93A8D285
:10418000ECE7F0E038D1A3D12F913F914F915F91AF
:1041900000D2DD2349F09058A2EA2AED3FE049EC35
:1041A0005FE3D0785D2736DFDF9191C1F7D008F467
:1041B00081E0089565D1E3959BC10CD088C158D1A9
:1041C00040F04FD130F021F45F3F19F00BC1511195
:1041D000C3C10EC19ED198F39923C9F35523B1F3FE
:1041E000951B550BBB27AA2762177307840738F066
:1041F0009F5F5F4F220F331F441FAA1FA9F333D0C5
:104200000E2E3AF0E0E830D091505040E695001C78
:10421000CAF729D0FE2F27D0660F771F881FBB1F34
:10422000261737074807AB07B0E809F0BB0B802D0E
:10423000BF01FF2793585F4F2AF09E3F510568F05A
:10424000D1C08AC15F3FECF3983EDCF38695779549
:104250006795B795F7959F5FC9F7880F911D96955C
:10426000879597F90895E1E0660F771F881FBB1FB8
:10427000621773078407BA0720F0621B730B840B65
:10428000BA0BEE1F88F7E095089504D06894B11139
:1042900063C1089546D188F09F5790F0B92F9927B0
:1042A000B751A0F0D1F0660F771F881F991F1AF041
:1042B000BA95C9F712C0B13081F04DD1B1E008957F
:1042C0004AC1672F782F8827B85F39F0B93FCCF300
:1042D000869577956795B395D9F73EF49095809537
:1042E000709561957F4F8F4F9F4F0895E89409C057
:1042F00097FB3EF490958095709561957F4F8F4F19
:104300009F4F9923A9F0F92F96E9BB279395F6952E
:10431000879577956795B795F111F8CFFAF4BB0FAC
:1043200011F460FF1BC06F5F7F4F8F4F9F4F16C010
:10433000882311F096E911C0772321F09EE8872F9A
:10434000762F05C0662371F096E8862F70E060E056
:104350002AF09A95660F771F881FDAF7880F9695CF
:10436000879597F90895DF93CF931F930F938B0150
:10437000EC01E9EAF0E03FD0AAD09801AE018B0150
:10438000EC0160E070E080E89FE332DE63D19801E9
:10439000AE010F911F91CF91DF91FBC0990F0008E3
:1043A000550FAA0BE0E8FEEF16161706E807F90707
:1043B000C0F012161306E407F50798F0621B730BA2
:1043C000840B950B39F40A2661F0232B242B252B23
:1043D00021F408950A2609F4A140A6958FEF811DC6
:1043E000811D089597F99F6780E870E060E0089567
:1043F0009FEF80EC0895DF93CF931F930F93FF926D
:10440000EF92DF927B018C01689405C0DA2EEF01F8
:10441000C0D0FE01E894A591259135914591559123
:10442000AEF3EF01F7DDFE019701A801DA9479F709
:10443000DF90EF90FF900F911F91CF91DF91089542
:104440009F938F937F936F93FF93EF939B01AC01A7
:1044500094D0EF91FF91CFDF2F913F914F915F91DA
:104460008CC000240A94161617061806090608952B
:1044700000240A9412161306140605060895B8CFF0
:1044800050D0E8F3E894E0E0BB279F57F0F02AED26
:104490003FE049EC06C0EE0FBB0F661F771F881F79
:1044A00028F0B23A62077307840728F0B25A620B09
:1044B000730B840BE3959A9572F7803830F49A95D4
:1044C000BB0F661F771F881FD2F7904806C1092EC1
:1044D0000394000C11F4882352F0BB0F40F4BF2B5F
:1044E00011F460FF04C06F5F7F4F8F4F9F4F08959F
:1044F000EF93E0FF06C0A2EA2AED3FE049EC5FEB54
:1045000089DDE5DF0F90039401FC9058E1EDF0E0C8
:1045100097CF57FD9058440F551F59F05F3F71F0EA
:104520004795880F97FB991F61F09F3F79F087951A
:104530000895121613061406551FF2CF4695F1DFA3
:1045400008C0161617061806991FF1CF8695710533
:10455000610508940895E894BB2766277727CB0167
:1045600097F908951BDF08F48FEF08959B01AC01C4
:1045700060E070E080E89FE320CE0BD0A8CF71DF31
:1045800028F076DF18F0952309F02CCF31CF1124D5
:10459000E3CFBFDFA0F3959FD1F3950F50E0551FF8
:1045A000629FF001729FBB27F00DB11D639FAA2788
:1045B000F00DB11DAA1F649F6627B00DA11D661FD7
:1045C000829F2227B00DA11D621F739FB00DA11DF8
:1045D000621F839FA00D611D221F749F3327A00DB2
:1045E000611D231F849F600D211D822F762F6A2F4E
:1045F00011249F5750408AF0E1F088234AF0EE0FD3
:10460000FF1FBB1F661F771F881F91505040A9F7DF
:104610009E3F510570F0E6CE9FCF5F3FECF3983E92
:10462000DCF3869577956795B795F795E7959F5F46
:10463000C1F7FE2B880F911D9695879597F90895E0
:104640009F931EDF0F9007FCEE5F52CF11F40EF424
:10465000CFCE41C066DFD0F39923D9F3CEF39F5775
:10466000550B87FF46D00024A0E640EA9001805811
:104670005695979528F4805C660F771F881F20F069
:1046800026173707480730F4621B730B840B202969
:1046900031294A2BA69517940794202531254A27BE
:1046A00058F7660F771F881F20F02617370748072F
:1046B00030F4620B730B840B200D311D411DA0954E
:1046C00081F7B901842F9158880F969587950895A1
:1046D0009B01AC0152CF9F3F31F0915020F4879560
:1046E00077956795B795880F911D9695879597F95A
:1046F000089591505040660F771F881FD2F7089594
:10470000629FD001739FF001829FE00DF11D649FB5
:10471000E00DF11D929FF00D839FF00D749FF00D41
:10472000659FF00D9927729FB00DE11DF91F639FE2
:10473000B00DE11DF91FBD01CF011124089597FBB4
:10474000092E07260AD077FD04D02ED006D00020EF
:104750001AF4709561957F4F0895F6F790958195BD
:104760009F4F0895A1E21A2EAA1BBB1BFD010DC08D
:10477000AA1FBB1FEE1FFF1FA217B307E407F50711
:1047800020F0A21BB30BE40BF50B661F771F881FED
:10479000991F1A9469F760957095809590959B0183
:1047A000AC01BD01CF010895AA1BBB1B51E107C09D
:1047B000AA1FBB1FA617B70710F0A61BB70B881FB1
:1047C000991F5A95A9F780959095BC01CD01089540
:1047D000EE0FFF1F0590F491E02D0994F894FFCFA0
:1047E0006D696C6C697328293D002C0064743D0070
:1047F0005961773D0050697463683D00526F6C6C7D
:104800003D00596177286F6666736574293D004DD8
:1048100041475F48286F6666736574293D004D41C6
:10482000475F4828726177293D0041783D00417912
:104830003D00417A3D004D783D004D793D004D7A77
:104840003D0047783D0047793D00477A3D002359B8
:1048500050523D00616363656C20782C792C7A207E
:10486000286D696E2F6D617829203D20002F002072
:1048700020006D61676E20782C792C7A20286D6974
:104880006E2F6D617829203D20006779726F207846
:104890002C792C7A202863757272656E742F61767C
:1048A000657261676529203D200023412D00234D5D
:1048B0002D0023472D00214552523A207265616434
:1048C000696E6720616363656C65726F6D657465A1
:1048D0007200214552523A2072656164696E672008
:1048E0006D61676E65746F6D657465720021455208
:1048F000523A2072656164696E67206779726F73DE
:10490000636F7065002353594E43480023414D4760
:104910002D4552523A006779726F5F626961735B2D
:10492000305D3D006779726F5F626961735B315D15
:104930003D006779726F5F626961735B325D3D0054
:104940004759524F5F415645524147455F4F464692
:104950005345545F583D004759524F5F41564552A9
:104960004147455F4F46465345545F593D004759BF
:10497000524F5F415645524147455F4F464653456A
:10498000545F5A3D002E0005000000803F000000EB
:104990000000000000000000000000803F00000058
:1049A0000000000000000000000000803F00000048
:1049B000000000803F0000004000004040000080F8
:1049C000400000A0400000C0400000E040000000A7
:1049D000410146086B3F78E5843C867E9C3C78E547
:1049E000843C00577A3FE2FFB3BC867E9C3CE2FFEA
:1049F000B3BCA2607A3F00000000F317C117931701
:104A00009C17B017C01700000000611CF91DFC1BAB
:064A10002B1C0F1C4D1CC5
:00000001FF
