:100000000C94A7000C94CF000C94CF000C94CF005C
:100010000C94CF000C94CF000C94CF000C94CF0024
:100020000C94CF000C94CF000C94CF000C94CF0014
:100030000C94CF000C94CF000C94CF000C94CF0004
:100040000C941C180C94CF000C94481A0C94791A38
:100050000C94CF000C94CF000C94CF000C94CF00E4
:100060000C94C6160C94CF00036EDB363D9A99991A
:10007000993DABAAAA2A3E000000803F084AD73B20
:100080003BCE016E84BCBFFDC12F3D6C74319ABD67
:1000900056833DDA3D00C77F11BED9E4BB4C3E918B
:1000A0006BAAAABE000000803F072C7AA5BA6CC5D7
:1000B00090DA3B9365FC8BBC53F810FD3C56928361
:1000C0004DBD879D3AB63DCBC9BF5BBE73DA0FC944
:1000D0003F05A84CCDB2D44EB93836A9020C50B960
:1000E000918688083CA6AAAA2ABE000000803F008C
:1000F000000000240027002A00000000002500283E
:10010000002B000000000023002600290004040446
:1001100004040404040202020202020303030303B0
:10012000030102040810204080010204081020018D
:100130000204081020000000070002010000030470
:1001400006000000000000000000EE154F1B112407
:100150001FBECFEFD8E0DEBFCDBF12E0A0E0B1E020
:10016000E8ECF2E402C005900D92A83DB107D9F782
:1001700015E0A8EDB2E001C01D92A937B107E1F783
:1001800011E0CEE4D1E004C02297FE010E945E217E
:10019000CA34D107C9F70E947C1D0C9462210C94CB
:1001A0000000CF92DF92EF92FF920F931F93CF93B5
:1001B000DF9380919302882309F458C04BED52E0FD
:1001C000C3EFD2E097EEC92E92E0D92E6FEF72E026
:1001D00007E113E08BE0E82E83E0F82E23E030E027
:1001E000FA0181919191A191B191AF018993999374
:1001F000A993B993F60181939193A193B1936F0160
:10020000FB0181919191A191B191BF01F80181937D
:100210009193A193B1938F01F70181939193A1934E
:10022000B1937F0121503040D9F6109248031092CB
:10023000470380E090E0DC01809343039093440304
:10024000A0934503B093460380933F0390934003EC
:10025000A0934103B093420380933B0390933C03EC
:10026000A0933D03B0933E0310929302DF91CF9190
:100270001F910F91FF90EF90DF90CF90089581E054
:100280008093E9038DE061E00E9457190895109270
:10029000E9038DE060E00E94571908958AE595E032
:1002A0000E948F1918161906CCF78AE595E00E946E
:1002B000BE1908952F923F924F925F926F927F9254
:1002C0008F929F92AF92BF92CF92DF92EF92FF9266
:1002D0000F931F93DF93CF93CDB7DEB72C970FB655
:1002E000F894DEBF0FBECDBFE090D903F090DA03E3
:1002F0000091DB031091DC03C801B7010E946D1E61
:1003000069877A878B879C87C801B7010E94B320D1
:100310005B016C01E090D503F090D6030091D70308
:100320001091D803C801B7010E946D1E69837A83BA
:100330008B839C83C801B7010E94B3201B012C0151
:10034000E0900303F090040300910503109106036D
:1003500060900703709008038090090390900A034F
:10036000C801B70129853A854B855C850E945020DC
:100370006D837E838F839887C401B301A6019501A5
:100380000E9450209B01AC016D817E818F819885F8
:100390000E948B1D9B01AC0150582D833E834F83DF
:1003A000588769817A818B819C812091FF023091ED
:1003B000000340910103509102030E945020698381
:1003C0007A838B839C83C801B701A60195010E94A3
:1003D0005020A20191010E9450209B01AC01698133
:1003E0007A818B819C810E948C1D7B018C01C401D0
:1003F000B30129853A854B855C850E945020A20176
:1004000091010E9450209B01AC01C801B7010E94DC
:100410008C1D9B01AC016D817E818F8198850E942E
:10042000161E6093490370934A0380934B03909385
:100430004C032C960FB6F894DEBF0FBECDBFCF9104
:10044000DF911F910F91FF90EF90DF90CF90BF90C1
:10045000AF909F908F907F906F905F904F903F9064
:100460002F900895609163027091640280916502FB
:10047000909166020E94F01D90586093D50370938E
:10048000D6038093D7039093D8036091670270914D
:1004900068028091690290916A0220916B0230910A
:1004A0006C0240916D0250916E020E94161E609384
:1004B000D9037093DA038093DB039093DC0360919C
:1004C0005702709158028091590290915A022091DE
:1004D0004B0230914C0240914D0250914E020E94CD
:1004E000161E6093D1037093D2038093D30390932D
:1004F000D4030895AF92BF92CF92DF92EF92FF9212
:100500000F931F93CF93DF93C82ED92EA62EB72E0D
:10051000C3E0D0E010E000E0FF24EE24F60161919A
:100520007191819191916F01F501219131914191E9
:1005300051915F010E9450209B01AC01D801F7014D
:100540006B2F702F8F2F9E2D0E948C1D162F072F23
:10055000F82EE92E219711F7A8019701652F742F26
:10056000832F922FDF91CF911F910F91FF90EF90EA
:10057000DF90CF90BF90AF900895AF92BF92CF928F
:10058000DF92EF92FF920F931F93CF93DF937C0143
:10059000EB018A016C817D818E819F81FA0120852A
:1005A0003185428553850E9450205B016C0168852E
:1005B00079858A859B85F80124813581468157811B
:1005C0000E9450209B01AC01C601B5010E948B1D09
:1005D000F7016083718382839383688579858A8537
:1005E0009B85F80120813181428153810E945020F6
:1005F0005B016C01688179818A819B81F80120858A
:100600003185428553850E9450209B01AC01C60173
:10061000B5010E948B1DF7016483758386839783E0
:10062000688179818A819B81F801248135814681A5
:1006300057810E9450205B016C016C817D818E810D
:100640009F81F80120813181428153810E94502095
:100650009B01AC01C601B5010E948B1DF7016087AB
:10066000718782879387DF91CF911F910F91FF90C0
:10067000EF90DF90CF90BF90AF900895CF92DF9230
:10068000EF92FF920F931F93CF93DF936C01EB01D7
:1006900079018A01688179818A819B810E94502039
:1006A000F60160837183828393836C817D818E8167
:1006B0009F81A80197010E945020F60164837583F1
:1006C00086839783688579858A859B85A8019701AC
:1006D0000E945020F6016087718782879387DF919F
:1006E000CF911F910F91FF90EF90DF90CF900895E1
:1006F000CF92DF92EF92FF920F931F93CF93DF93EE
:10070000062F172FE42EF52EC82ED92EC0E0D0E0EC
:10071000F80161917191819191918F01F70121917E
:100720003191419151917F010E948C1DF60161939D
:100730007193819391936F012196C330D10541F755
:10074000DF91CF911F910F91FF90EF90DF90CF90AD
:1007500008956F927F928F929F92AF92BF92CF92A5
:10076000DF92EF92FF920F931F9320914D033091F0
:100770004E0340914F0350915003E0905103F0908D
:1007800052030091530310915403A0905503B0906D
:100790005603C0905703D0905803CA01B9010E9474
:1007A00050203B014C01C801B701A80197010E94EC
:1007B00050209B01AC01C401B3010E948C1D7B0140
:1007C0008C01C601B501A60195010E9450209B0134
:1007D000AC01C801B7010E948C1D0E94BD2020E021
:1007E00030E040E85BE30E9450209B01AC0160E0F8
:1007F00070E080E89FE30E948B1DF62E072F182FD4
:10080000E92E20E030E0A9010E9445201816D4F41A
:100810006F2D702F812F9E2D2F2D302F412F5E2D6C
:100820000E948C1D9B01AC0160E070E080E89FE3BA
:100830000E948B1D20E030E0A9010E94691E87FF05
:1008400019C075C06F2D702F812F9E2D2F2D302F29
:10085000412F5E2D0E948C1D20E030E040E85FE3D8
:100860000E948C1D20E030E0A9010E94691E87FFD4
:100870001DC05DC06F2D702F812F9E2D2F2D302F0D
:10088000412F5E2D0E948C1D9B01AC0160E070E049
:1008900080E89FE30E948B1D20E030E040E85FE3AA
:1008A0000E94452018160CF447C019C06F2D702FF8
:1008B000812F9E2D2F2D302F412F5E2D0E948C1DBC
:1008C00020E030E040E85FE30E948C1D20E030E053
:1008D00040E85FE30E944520181674F113C06F2DA5
:1008E000702F812F9E2D2F2D302F412F5E2D0E9496
:1008F0008C1D9B01AC0160E070E080E89FE30E94EA
:100900008B1D10C06F2D702F812F9E2D2F2D302FFE
:10091000412F5E2D0E948C1D20E030E040E85FE317
:100920000E948C1DF62E072F182FE92E0AC0FF24D7
:1009300000E010E0EE2405C0FF2400E010E82FE303
:10094000E22E85E993E06DE473E043E652E00E9415
:10095000BD026F2D702F812F9E2D2AE037ED43EAC7
:100960005CE30E9450209B01AC0181E793E065E9C4
:1009700073E00E943E036F2D702F812F9E2D2CEA75
:1009800035EC47EA57E30E9450209B01AC0183EF0E
:1009900093E065E973E00E943E038DE793E0BC01BC
:1009A00043EF53E00E947803E0904903F0904A033C
:1009B00000914B0310914C03C801B7010E946D1EBA
:1009C0005B016C01C801B7010E94B32020914B026A
:1009D00030914C0240914D0250914E020E945020A5
:1009E0007B018C01C601B50120915702309158025C
:1009F0004091590250915A020E9450209B01AC0133
:100A0000C801B7010E948B1D9B01AC0181EA93E0F4
:100A100063E672E00E943E038FEF93E061EA73E0C9
:100A20002AE939E949E95FE30E943E0381E793E05F
:100A3000BC014FEF53E00E94780383EF93E061EA3B
:100A400073E02CEA35EC47EA57E30E943E038DE75A
:100A500093E0BC0143EF53E00E9478031F910F9194
:100A6000FF90EF90DF90CF90BF90AF909F908F90CE
:100A70007F906F9008956F927F928F929F92AF9226
:100A8000BF92CF92DF92EF92FF920F931F93DF936B
:100A9000CF93CDB7DEB7A4970FB6F894DEBF0FBEE5
:100AA000CDBF6BE4C62E62E0D62E5CE0652E712CC5
:100AB0006C0C7D1CC601B3010E947A02905820E0A4
:100AC00030E040E05FE30E9450205B01982E892EC9
:100AD0008E010F5F1F4FC801B301F4012A2D3B2D7A
:100AE0004F2F5E2F0E943E034DE0E42EF12CEC0EC2
:100AF000FD1EC701B601F4012A2D3B2D4F2F5E2F9D
:100B00000E943E03C801B801A6010E947803C701F4
:100B1000B701A3010E94780339E1A32EB12CAC0EDA
:100B2000BD1EC501B801A7010E94BD02C801B801E0
:100B30000E947A029B01AC0160E070E080E490E4E6
:100B40000E948B1D20E030E040E05FE30E945020D7
:100B50009B01AC01C601B8010E943E03C701B70169
:100B60000E947A029B01AC0160E070E080E490E4B6
:100B70000E948B1D20E030E040E05FE30E945020A7
:100B80009B01AC01C301B7010E943E03C501B50141
:100B90000E947A029B01AC0160E070E080E490E486
:100BA0000E948B1D20E030E040E05FE30E94502077
:100BB0009B01AC0183E692E0B5010E943E03A4963E
:100BC0000FB6F894DEBF0FBECDBFCF91DF911F915E
:100BD0000F91FF90EF90DF90CF90BF90AF909F90DC
:100BE0008F907F906F9008952F923F924F925F92D7
:100BF0006F927F928F929F92AF92BF92CF92DF922D
:100C0000EF92FF920F931F93CF93DF93362E272EF1
:100C10003A01082F192FEE24FF2445C069917991DC
:100C200089919991F80120813181428153810E94FB
:100C300050204B015C01F8016481758186819781A8
:100C4000288539854A855B850E9450209B01AC012F
:100C5000C501B4010E948C1D4B015C01F801608547
:100C60007185828593852C893D894E895F890E9493
:100C700050209B01AC01C501B4010E948C1DF601FE
:100C800061937193819391936F01C415D50531F6EA
:100C9000ECE0CE2ED12CEC0CFD1C045F1F4F24E2A7
:100CA000E216F10479F0C101E92FEF016E01D22CB7
:100CB000E6016301CE0CDF1C7CE0472E512C4C0E6C
:100CC0005D1EACCFDF91CF911F910F91FF90EF9000
:100CD000DF90CF90BF90AF909F908F907F906F905C
:100CE0005F904F903F902F9008952F923F924F9298
:100CF0005F926F927F928F929F92AF92BF92CF92AC
:100D0000DF92EF92FF920F931F93DF93CF9300D068
:100D100000D0CDB7DEB760912F0370913003809182
:100D200031039091320326EA36E24FE95AE30E94FA
:100D300050206093590370935A0380935B03909300
:100D40005C0360913303709134038091350390917B
:100D5000360326EA36E24FE95AE30E9450206093B8
:100D60005D0370935E0380935F03909360036091D3
:100D70003703709138038091390390913A0326EA42
:100D800036E24FE95AE30E9450206093610370936A
:100D9000620380936303909364038091DB029091DC
:100DA000DC02A091DD02B091DE0280934D039093AE
:100DB0004E03A0934F03B09350038091DF029091B4
:100DC000E002A091E102B091E2028093510390937E
:100DD0005203A0935303B09354038091E302909184
:100DE000E402A091E502B091E6028093550390934E
:100DF0005603A0935703B093580389E893E069E53D
:100E000073E04DE753E00E94780385E693E069E8DC
:100E100073E041E753E00E9478030F2EF0E02F2E9D
:100E2000F0E03F2EF0E04F2EF0E05F2EF02D20920C
:100E30006F02309270024092710250927202E09002
:100E4000E503F090E6030091E7031091E8035701F2
:100E50006801D7FAD094D7F8D09460906D03709061
:100E60006E0380906F0390907003C601B501A401DA
:100E700093010E94502060937302709374028093D8
:100E80007502909376028091690390916A03A09114
:100E90006B03B0916C0389839A83AB83BC83C801D5
:100EA000B70129813A814B815C810E945020609377
:100EB0007702709378028093790290937A02C80146
:100EC000B701A40193010E94502060937B027093AC
:100ED0007C0280937D0290937E0220927F0230926A
:100EE000800240928102509282026090650370906D
:100EF00066038090670390906803C601B501A40162
:100F000093010E9450206093830270938402809327
:100F1000850290938602C601B50129813A814B81F1
:100F20005C810E94502060938702709388028093B6
:100F3000890290938A02C801B701A40193010E941B
:100F4000502060938B0270938C0280938D0290935B
:100F50008E0220928F023092900240929102509223
:100F600092028BE492E06FE672E04DEA53E00E9459
:100F7000F405FBE4EF2EF2E0FF2E0DEA13E0D701BB
:100F80006D917D918D919C91F801208131814281FB
:100F900053810E948C1DD7016D937D938D939C93FB
:100FA000139714966D917D918D919C911797F801EF
:100FB00024813581468157810E948C1DD70114966A
:100FC0006D937D938D939C93179718966D917D915A
:100FD0008D919C911B97F801208531854285538521
:100FE0000E948C1DD70118966D937D938D939C93D1
:100FF0001B97ECE0F0E0EE0EFF1E045F1F4FFFE6D4
:10100000EF16F2E0FF0609F0BACF0F900F900F90A5
:101010000F90CF91DF911F910F91FF90EF90DF9094
:10102000CF90BF90AF909F908F907F906F905F9088
:101030004F903F902F9008958F929F92AF92BF92C2
:10104000CF92DF92EF92FF920F931F93CF93DF9394
:101050008B01E82EE7017E01F92EE701C42ED52E83
:10106000EE24FF24688179818A819B81F8012081A7
:101070003181428153810E9450204B015C016C817F
:101080007D818E819F81F801248135814681578140
:101090000E9450209B01AC01C501B4010E948C1D2F
:1010A0004B015C01688579858A859B85F8012085DF
:1010B0003185428553850E9450209B01AC01C501BA
:1010C000B4010E948C1DF6016193719381939193F9
:1010D0006F010894E11CF11C2C96F3E0EF16F1046B
:1010E00009F6DF91CF911F910F91FF90EF90DF9064
:1010F000CF90BF90AF909F908F9008956091DB024A
:101100007091DC028091DD029091DE0220E030E0FF
:1011100048E851E40E948C1D2EE330E646E75FE389
:101120000E9450206093DB027093DC028093DD020A
:101130009093DE026091DF027091E0028091E10203
:101140009091E20220E030E048E251E40E948B1DE1
:101150002EEE35EC47E75FE30E9450206093DF02FC
:101160007093E0028093E1029093E2026091E302C7
:101170007091E4028091E5029091E60220E030E077
:1011800040EF51E40E948C1D2DE233E24AE75FE319
:101190000E9450206093E3027093E4028093E50282
:1011A0009093E6026091FF02709100038091010329
:1011B0009091020328E834E744E352E40E948B1D37
:1011C0006093230370932403809325039093260355
:1011D00060910303709104038091050390910603CD
:1011E0002BEF3BE847E252E40E948B1D60932703FC
:1011F000709328038093290390932A036091070337
:10120000709108038091090390910A0329E134E465
:1012100044E953E40E948C1D60932B0370932C03CC
:1012200080932D0390932E0384E992E063E273E0B0
:101230004FEF52E00E941C0860912F037091300321
:10124000809131039091320323EC35EF42EF51E46A
:101250000E948B1D60932F037093300380933103A2
:10126000909332036091330370913403809135037E
:10127000909136032FE832EC4DE850E40E948B1D2C
:101280006093330370933403809335039093360354
:1012900060913703709138038091390390913A033C
:1012A0002BE734E14AE851E40E948B1D6093370339
:1012B000709338038093390390933A0308952F92E3
:1012C0003F924F925F926F927F928F929F92AF92D6
:1012D000BF92CF92DF92EF92FF920F931F93DF9313
:1012E000CF93CDB7DEB764970FB6F894DEBF0FBECD
:1012F000CDBF9C8B8B8B2A013B0148015901C70153
:10130000B6010E946D1E6D837E838F839887C7010F
:10131000B6010E94B32069877A878B879C87C501B5
:10132000B4010E946D1E6D877E878F87988BC501E3
:10133000B4010E94B32069837A838B839C83C301A9
:10134000B2010E946D1E4B015C01C301B2010E94FB
:10135000B3206B017C016D857E858F859889A50101
:1013600094010E945020EB89FC8960837183828301
:101370009383C501B40129853A854B855C850E941C
:101380005020362E272E898B9A8BA101652F742F22
:1013900029813A814B815C810E9450202B013C01C4
:1013A0006D817E818F819885A70196010E945020D2
:1013B0009B01AC01C301B2010E948B1DEB89FC892A
:1013C00064837583868397836D817E818F81988501
:1013D000A50194010E945020462E772E682E592E8A
:1013E00069857A858B859C85A70196010E9450208E
:1013F0004B015C01642D772D862D952D29813A8135
:101400004B815C810E9450209B01AC01C501B4015D
:101410000E948C1DEB89FC89608771878287938786
:101420008F01045F1F4F6D857E858F859889A70189
:1014300096010E945020EB89FC8964877587868716
:10144000978769857A858B859C8529813A814B812F
:101450005C810E945020A70196010E9450209B01B0
:10146000AC01642D772D862D952D0E948C1DF801E1
:1014700064837583868397836D817E818F81988550
:1014800029813A814B815C810E945020A7019601FD
:101490000E945020D101C9888A882B2F3A2F4C2DC9
:1014A000582D0E948B1DF801608771878287938772
:1014B0000B891C89085E1F4F89819A81AB81BC8191
:1014C000B058EB89FC89808F918FA28FB38F6D8587
:1014D0007E858F85988929853A854B855C850E9414
:1014E0005020F80164837583868397836D817E81A4
:1014F0008F8198852D853E854F8558890E94502083
:10150000F801608771878287938764960FB6F89495
:10151000DEBF0FBECDBFCF91DF911F910F91FF9026
:10152000EF90DF90CF90BF90AF909F908F907F9083
:101530006F905F904F903F902F900895EF92FF92A1
:101540000F931F936091D1037091D2038091D303C5
:101550009091D40320E030E0A9010E948C1D7B0112
:101560008C017F2D912F20E030E0A9010E94691E9F
:1015700087FF0CC06E2D7F2D802F912F2BED3FE02C
:1015800049EC50E40E948C1D7B018C018091D802B3
:101590009091D9028130910539F48AE595E060E0B7
:1015A00071E00E94C71B49C1009709F04AC18AE552
:1015B00095E060E371E00E94C71B6091D1037091D8
:1015C000D2038091D3039091D40321EE3EE245E60D
:1015D00052E40E945020AB01BC018AE595E022E074
:1015E00030E00E94791D8AE595E06AE371E00E948F
:1015F000C71B8AE595E06CE371E00E94C71B6E2D66
:101600007F2D802F912F21EE3EE245E652E40E948D
:101610005020AB01BC018AE595E022E030E00E9459
:10162000791D8AE595E06AE371E00E94C71B8AE5AF
:1016300095E069E471E00E94C71B609149037091D5
:101640004A0380914B0390914C0321EE3EE245E624
:1016500052E40E945020AB01BC018AE595E022E0F3
:1016600030E00E94791D8AE595E06AE371E00E940E
:10167000C71B8AE595E06BE571E00E94C71B4091AE
:10168000DB025091DC026091DD027091DE028AE59E
:1016900095E022E030E00E94791D8AE595E06AE35A
:1016A00071E00E94C71B8AE595E06FE571E00E943A
:1016B000C71B4091DF025091E0026091E1027091FE
:1016C000E2028AE595E022E030E00E94791D8AE599
:1016D00095E06AE371E00E94C71B8AE595E063E646
:1016E00071E00E94C71B4091E3025091E4026091B7
:1016F000E5027091E6028AE595E022E030E00E9482
:10170000791D8AE595E06AE371E00E94C71B8AE5CE
:1017100095E067E671E00E94C71B4091FF0250917F
:10172000000360910103709102038AE595E022E0D5
:1017300030E00E94791D8AE595E06AE371E00E943D
:10174000C71B8AE595E06BE671E00E94C71B4091DC
:1017500003035091040360910503709106038AE529
:1017600095E022E030E00E94791D8AE595E06AE389
:1017700071E00E94C71B8AE595E06FE671E00E9468
:10178000C71B4091070350910803609109037091B2
:101790000A038AE595E022E030E00E94791D8AE59F
:1017A00095E06AE371E00E94C71B8AE595E063E774
:1017B00071E00E94C71B40912F035091300360914C
:1017C0003103709132038AE595E022E030E00E9417
:1017D000791D8AE595E06AE371E00E94C71B8AE5FE
:1017E00095E067E771E00E94C71B40913303509179
:1017F000340360913503709136038AE595E022E069
:1018000030E00E94791D8AE595E06AE371E00E946C
:10181000C71B8AE595E06BE771E00E94C71B40910A
:101820003703509138036091390370913A038AE588
:1018300095E022E030E00E94791D8AE595E00E9463
:10184000D21B1F910F91FF90EF900895DF93CF93DC
:10185000CDB7DEB72C970FB6F894DEBF0FBECDBF65
:101860008091D8029091D9028130910509F040C051
:101870006091D1037091D2038091D3039091D403EE
:1018800021EE3EE245E652E40E94502069837A83CD
:101890008B839C836091D5037091D6038091D7038D
:1018A0009091D80321EE3EE245E652E40E9450209A
:1018B0006D837E838F8398876091D9037091DA035B
:1018C0008091DB039091DC0321EE3EE245E652E499
:1018D0000E94502069877A878B879C878AE595E0EC
:1018E000BE016F5F7F4F4CE050E00E948C1B5BC0DD
:1018F000009709F058C08AE595E06FE771E00E9413
:10190000C71B6091D1037091D2038091D303909152
:10191000D40321EE3EE245E652E40E945020AB01A2
:10192000BC018AE595E022E030E00E94791D8AE55D
:1019300095E06AE371E00E94C71B6091D503709146
:10194000D6038091D7039091D80321EE3EE245E67D
:1019500052E40E945020AB01BC018AE595E022E0F0
:1019600030E00E94791D8AE595E06AE371E00E940B
:10197000C71B6091D9037091DA038091DB039091CA
:10198000DC0321EE3EE245E652E40E945020AB012A
:10199000BC018AE595E022E030E00E94791D8AE5ED
:1019A00095E00E94D21B2C960FB6F894DEBF0FBEB6
:1019B000CDBFCF91DF9108954F925F926F927F924A
:1019C0008F929F92AF92BF92CF92DF92EF92FF924F
:1019D0000F931F93CF93DF93009709F06DC08AE5B3
:1019E00095E065E871E00E94C71B1BED812E12E0B7
:1019F000912EC7EED2E003EF12E0AA24BB24F4013B
:101A0000C190D190E190F1904F013E01C701B60124
:101A1000288139814A815B810E94691E87FF04C049
:101A2000C882D982EA82FB822801C701B601F80187
:101A300020813181428153810E94452018162CF467
:101A4000F801C082D182E282F3822496F3014081C0
:101A50005181628173818AE595E022E030E00E9445
:101A6000791D8AE595E06EE971E00E94C71B0C5F65
:101A70001F4FF20140815181628173818AE595E0B7
:101A800022E030E00E94791DF2E0AF16B10439F097
:101A90008AE595E060EA71E00E94C71B04C08AE510
:101AA00095E00E94D21B0894A11CB11C83E0A816EB
:101AB000B10409F0A4CF1DC18130910509F06DC0BA
:101AC0008AE595E063EA71E00E94C71BBFEF8B2EA9
:101AD000B2E09B2ECBE0D3E007E113E0AA24BB24C5
:101AE000F401C190D190E190F1904F013E01C70106
:101AF000B601288139814A815B810E94691E87FF76
:101B000004C0C882D982EA82FB822801C701B601DB
:101B1000F80120813181428153810E9445201816AD
:101B20002CF4F801C082D182E282F3822496F30180
:101B300040815181628173818AE595E022E030E045
:101B40000E94791D8AE595E06EE971E00E94C71B4D
:101B50000C5F1F4FF20140815181628173818AE5E0
:101B600095E022E030E00E94791DF2E0AF16B1046A
:101B700039F08AE595E060EA71E00E94C71B04C075
:101B80008AE595E00E94D21B0894A11CB11C83E059
:101B9000A816B10409F0A4CFACC08230910509F0B9
:101BA000A8C060913B0370913C0380913D039091EC
:101BB0003E0320912F033091300340913103509127
:101BC00032030E948C1D60933B0370933C0380930F
:101BD0003D0390933E0360913F03709140038091D9
:101BE000410390914203209133033091340340919B
:101BF0003503509136030E948C1D60933F03709310
:101C0000400380934103909342036091430370919A
:101C1000440380914503909146032091370330910E
:101C200038034091390350913A030E948C1D609310
:101C3000430370934403809345039093460380913C
:101C4000470390914803019690934803809347037C
:101C50008AE595E06BEB71E00E94C71B0FE213E091
:101C6000ABE3CA2EA3E0DA2EC0E0D0E0F801419148
:101C70005191619171918F018AE595E022E030E008
:101C80000E94791D8AE595E06EE971E00E94C71B0C
:101C9000F60181909190A190B1906F0160914703FE
:101CA00070914803882777FD8095982F0E940B1F1D
:101CB0009B01AC01C501B4010E94701EAB01BC01C7
:101CC0008AE595E022E030E00E94791DC230D1051E
:101CD00039F08AE595E060EA71E00E94C71B04C014
:101CE0008AE595E00E94D21B2196C330D10509F008
:101CF000BDCFDF91CF911F910F91FF90EF90DF90BB
:101D0000CF90BF90AF909F908F907F906F905F909B
:101D10004F900895FF920F931F93CF93DF93F82E68
:101D2000CAE5D5E0CE016BED71E00E94C71BCE0184
:101D30006F2D0E94CA1BCE016DE30E94CA1B409109
:101D4000DB025091DC026091DD027091DE02CE0177
:101D500022E030E00E94791D0AE311E0CE01B801D3
:101D60000E94C71B4091DF025091E0026091E102A6
:101D70007091E202CE0122E030E00E94791DCE0196
:101D8000B8010E94C71B4091E3025091E4026091A8
:101D9000E5027091E602CE0122E030E00E94791D5A
:101DA000CE010E94D21BCE016FED71E00E94C71BD5
:101DB000CE016F2D0E94CA1BCE016DE30E94CA1B8B
:101DC0004091FF0250910003609101037091020362
:101DD000CE0122E030E00E94791DCE01B8010E94C0
:101DE000C71B409103035091040360910503709158
:101DF0000603CE0122E030E00E94791DCE01B80139
:101E00000E94C71B4091070350910803609109038A
:101E100070910A03CE0122E030E00E94791DCE01CC
:101E20000E94D21BCE0163EE71E00E94C71BCE015F
:101E30006F2D0E94CA1BCE016DE30E94CA1B409108
:101E40002F03509130036091310370913203CE0122
:101E500022E030E00E94791DCE01B8010E94C71B2C
:101E600040913303509134036091350370913603F0
:101E7000CE0122E030E00E94791DCE01B8010E941F
:101E8000C71B40913703509138036091390370911B
:101E90003A03CE0122E030E00E94791DCE010E947B
:101EA000D21BDF91CF911F910F91FF900895CF9397
:101EB000DF93CAE5D5E0CE016BED72E04CE050E077
:101EC0000E948C1BCE016FEF72E04CE050E00E944C
:101ED0008C1BCE016FE273E04CE050E00E948C1B43
:101EE000DF91CF9108958091490290914A02833009
:101EF000910559F48091D8029091D90281309105D1
:101F000021F1009779F582E50FC08230910579F4CF
:101F10000E947E088091D8029091D902813091056B
:101F2000A1F00097F9F483E40E948A0E08958430AA
:101F30009105C1F48091D8029091D9028130910528
:101F400039F40E94570F0E947E080E94570F08958F
:101F5000009741F482E50E948A0E0E947E0883E485
:101F60000E948A0E089581E594E00E94B6150895B6
:101F7000CF93DF93C1E5D4E0CE0163E570E00E942A
:101F8000DB15CE016DE20E948615CE0168E00E944D
:101F90008615CE010E94DE1565E070E080E090E0DD
:101FA0000E94A418CE0163E570E00E94DB15CE010B
:101FB00061E30E948615CE0168E00E948615CE017D
:101FC0000E94DE1565E070E080E090E00E94A418B9
:101FD000CE0163E570E00E94DB15CE016CE20E9449
:101FE0008615CE0169E00E948615CE010E94DE159D
:101FF00065E070E080E090E00E94A418DF91CF914E
:102000000895EF92FF920F931F93DF93CF9300D029
:1020100000D000D0CDB7DEB781E594E063E570E095
:102020000E94DB1581E594E062E30E94861581E55C
:1020300094E00E94DE1581E594E063E570E00E9483
:10204000DB1581E594E063E570E046E050E00E9436
:10205000CE157E010894E11CF11C00E010E009C0DF
:1020600081E594E00E942F15F70181937F010F5FB6
:102070001F4F81E594E00E942615009789F781E5BE
:1020800094E00E94DE1506301105E9F59C8180E0A0
:102090006B8170E0682B792B882777FD8095982FCE
:1020A0000E940B1F6093DB027093DC028093DD02C1
:1020B0009093DE029A8180E0698170E0682B792B31
:1020C000882777FD8095982F0E940B1F6093DF0271
:1020D0007093E0028093E1029093E2029E8180E09F
:1020E0006D8170E0682B792B882777FD8095982F7C
:1020F0000E940B1F6093E3027093E4028093E50259
:102100009093E60213C08091ED039091EE03019647
:102110009093EE038093ED038091DA02882331F0EF
:102120008AE595E067EE71E00E94E71B26960FB600
:10213000F894DEBF0FBECDBFCF91DF911F910F91FD
:10214000FF90EF900895CF93DF93C1E5D4E0CE01E7
:102150006EE170E00E94DB15CE0162E00E94861500
:10216000CE0160E00E948615CE010E94DE1565E07A
:1021700070E080E090E00E94A418CE016EE170E073
:102180000E94DB15CE0160E00E948615CE0168E159
:102190000E948615CE010E94DE1565E070E080E0A9
:1021A00090E00E94A418DF91CF910895EF92FF92E2
:1021B0000F931F93DF93CF9300D000D000D0CDB703
:1021C000DEB781E594E06EE170E00E94DB1581E509
:1021D00094E063E00E94861581E594E00E94DE159C
:1021E00081E594E06EE170E00E94DB1581E594E00A
:1021F0006EE170E046E050E00E94CE157E0108944A
:10220000E11CF11C00E010E009C081E594E00E94AF
:102210002F15F70181937F010F5F1F4F81E594E038
:102220000E942615009789F781E594E00E94DE154B
:102230000630110509F046C09D8180E06E8170E096
:10224000682B792B709561957F4F882777FD809556
:10225000982F0E940B1F6093FF02709300038093DE
:10226000010390930203998180E06A8170E0682BFA
:10227000792B709561957F4F882777FD8095982FF2
:102280000E940B1F60930303709304038093050364
:10229000909306039B8180E06C8170E0682B792B22
:1022A000709561957F4F882777FD8095982F0E94C4
:1022B0000B1F6093070370930803809309039093A7
:1022C0000A0313C08091EF039091F003019690935D
:1022D000F0038093EF038091DA02882331F08AE5DE
:1022E00095E063E072E00E94E71B26960FB6F89433
:1022F000DEBF0FBECDBFCF91DF911F910F91FF9039
:10230000EF900895CF93DF93C1E5D4E0CE0168E666
:1023100070E00E94DB15CE016EE30E948615CE01AF
:1023200060E80E948615CE010E94DE1565E070E02F
:1023300080E090E00E94A418CE0168E670E00E9460
:10234000DB15CE0166E10E948615CE016BE10E948D
:102350008615CE010E94DE1565E070E080E090E019
:102360000E94A418CE0168E670E00E94DB15CE0141
:1023700065E10E948615CE016AE00E948615CE01B5
:102380000E94DE1565E070E080E090E00E94A418F5
:10239000CE0168E670E00E94DB15CE016EE30E947C
:1023A0008615CE0160E00E948615CE010E94DE15E2
:1023B00065E070E080E090E00E94A418DF91CF918A
:1023C0000895EF92FF920F931F93DF93CF9300D066
:1023D00000D000D0CDB7DEB781E594E068E670E0CC
:1023E0000E94DB1581E594E06DE10E94861581E590
:1023F00094E00E94DE1581E594E068E670E00E94BA
:10240000DB1581E594E068E670E046E050E00E946C
:10241000CE157E010894E11CF11C00E010E009C01B
:1024200081E594E00E942F15F70181937F010F5FF2
:102430001F4F81E594E00E942615009789F781E5FA
:1024400094E00E94DE150630110509F046C09B811C
:1024500080E06C8170E0682B792B709561957F4FDF
:10246000882777FD8095982F0E940B1F60932F037C
:10247000709330038093310390933203998180E00D
:102480006A8170E0682B792B709561957F4F882762
:1024900077FD8095982F0E940B1F609333037093F4
:1024A000340380933503909336039D8180E06E81E1
:1024B00070E0682B792B709561957F4F882777FDA9
:1024C0008095982F0E940B1F6093370370933803F9
:1024D0008093390390933A0313C08091F103909154
:1024E000F20301969093F2038093F1038091DA0254
:1024F000882331F08AE595E06EE172E00E94E71BE7
:1025000026960FB6F894DEBF0FBECDBFCF91DF91F8
:102510001F910F91FF90EF9008950E94E1110E948A
:1025200001100E94D61008951F93DF93CF9300D01F
:10253000CDB7DEB78AE595E00E948F19823091050C
:102540000CF4E0C08AE595E00E94BE198332910543
:1025500009F0D8C08AE595E00E94BE19863691053B
:1025600021F481E08093EA03CDC083379105D1F453
:102570000E944E0189830E944E018A838AE595E07C
:1025800066E372E00E94C71B8AE595E0BE016F5FBB
:102590007F4F42E050E00E948C1B8AE595E00E944C
:1025A000D21BB0C08F36910509F0ACC00E944E011D
:1025B0008D3619F485E090E014C08E3671F4809168
:1025C000EB039091EC03019663E070E00E9413210D
:1025D0009093EC038093EB0318C0843739F481E0C7
:1025E00090E090934A02809349022EC0823639F4DB
:1025F00081E090E090934A02809349022FC0833695
:1026000041F410924A021092490281E080939302B1
:1026100079C0833741F50E944E01182F0E944E0168
:10262000123719F423E030E009C0133619F422E020
:1026300030E004C0123631F424E030E030934A0236
:1026400020934902843729F41092D9021092D802BB
:1026500059C0823609F056C081E090E09093D902CB
:102660008093D8024FC0803319F40E944701CDCF28
:10267000813331F481E0809393020E943F0142C094
:10268000853609F03FC00E944E01803319F4109244
:10269000DA0238C0813321F481E08093DA0232C05B
:1026A000833681F58AE595E06DE372E00E94C71BF1
:1026B0006091ED037091EE038AE595E04AE050E009
:1026C0000E949E1C8AE595E06AE371E00E94C71BA8
:1026D0006091EF037091F0038AE595E04AE050E0E5
:1026E0000E949E1C8AE595E06AE371E00E94C71B88
:1026F0006091F1037091F2038AE595E04AE050E0C1
:102700000E94A81C0E9470182091DD033091DE0306
:102710004091DF035091E003621B730B840B950B18
:10272000643171058105910508F499C02093E10396
:102730003093E2034093E3035093E4030E94701844
:102740006093DD037093DE038093DF039093E003D7
:102750002091E1033091E2034091E3035091E403BF
:102760002617370748075907A8F4621B730B840B19
:10277000950B0E94091F20E030E04AE754E40E94D4
:10278000701E6093E5037093E6038093E7039093D4
:10279000E8030BC080E090E0DC018093E5039093B8
:1027A000E603A093E703B093E8030E948D128091A3
:1027B000490290914A02009791F40E94D1008091C1
:1027C000E903882329F48091EA03882309F445C0AA
:1027D0008091EB039091EC030E94DC0C3EC08530AD
:1027E0009105B9F40E947E080E945A010E94750664
:1027F0000E943B050E94A9030E9432028091E903D6
:10280000882321F48091EA03882339F10E949E0AEB
:1028100024C081309105B9F40E947E080E945A01BB
:102820000E9475060E943B050E94A9030E94320285
:102830008091E903882321F48091EA03882369F0D9
:102840000E94260C0AC08091E903882321F480911C
:10285000EA03882311F00E94730F1092EA030F908D
:102860000F90CF91DF911F910895AF92BF92CF92B9
:10287000DF92EF92FF920F931F93DF93CF93CDB729
:10288000DEB7A4970FB6F894DEBF0FBECDBF80E0D1
:1028900090E0A0E8BFE3898F9A8FAB8FBC8F80E078
:1028A00090E0DC018D8F9E8FAF8FB8A389A39AA390
:1028B000ABA3BCA30E948D120E9470186093DD032D
:1028C0007093DE038093DF039093E0032091DF0297
:1028D0003091E0024091E1025091E202E090E30287
:1028E000F090E4020091E5021091E602CA01B901FC
:1028F0000E9450205B016C01C801B701A80197013B
:102900000E9450209B01AC01C601B5010E948C1DA4
:102910000E94BD209B01AC018FEDE82E82E0F82ED5
:10292000F70192918291729162917F010E94161E2D
:1029300090586093D5037093D6038093D7039093F8
:10294000D80309E1C02ED12CCC0EDD1E8E010F5F05
:102950001F4FC801B701A6010E94BD02CE010D960E
:10296000B601A8010E94BD0269897A898B899C8978
:102970002D893E894F89588D0E94161E6093D90378
:102980007093DA038093DB039093DC030E945A0177
:102990004091490350914A0360914B0370914C035D
:1029A0004093D1035093D2036093D3037093D40325
:1029B0000091D5031091D6032091D7033091D8030D
:1029C000C090D903D090DA03E090DB03F090DC03F1
:1029D0008BE492E00E945F09A4960FB6F894DEBFE4
:1029E0000FBECDBFCF91DF911F910F91FF90EF9060
:1029F000DF90CF90BF90AF9008958AE595E040E0DA
:102A000051EE60E070E00E94C01A8DE061E00E942B
:102A100033198DE060E00E94571962E370E080E0B6
:102A200090E00E94A4180E94B30F0E94B80F0E9469
:102A3000A3100E94821164E170E080E090E00E94A7
:102A4000A4180E9435140E944701089520912C0477
:102A500030E080912B04281B3109C9010895809131
:102A60002B0490912C04891750F4E82FF0E0E55FD7
:102A7000FB4F208130E08F5F80932B0402C02FEF4B
:102A80003FEFC9010895E0912B0480912C04E817D1
:102A900030F4F0E0E55FFB4F208130E002C02FEF23
:102AA0003FEFC90108950895CF92DF92EF92FF9210
:102AB0000F931F93CF93DF936C01CB01EA01209119
:102AC00050042223B1F0E62EF92E00E010E00DC0F4
:102AD000D7016D917D01D601ED91FC910190F081BE
:102AE000E02DC60109950F5F1F4F0C171D0780F3DE
:102AF00003C0642F0E949416CE01DF91CF911F91E5
:102B00000F91FF90EF90DF90CF900895DF93CF93D8
:102B10000F92CDB7DEB76983209150042223D1F004
:102B200020914F04203240F021E030E0FC0133835B
:102B3000228320E030E015C080914E04E82FF0E0C1
:102B4000E25DFB4F998190838F5F80934E04809369
:102B50004F0405C0CE01019661E00E94941621E069
:102B600030E0C9010F90CF91DF91089510922B04AE
:102B700010922C0410924E0410924F040E940516DD
:102B80000895862F413208F040E26BE074E00E9425
:102B90001E1610922B0480932C0408950E94C115D8
:102BA000089581E08093500460932D0410924E04A8
:102BB00010924F0408950E94D115089580912D041C
:102BC0006EE274E040914F0421E00E94541610928E
:102BD0004E0410924F041092500408951092540421
:102BE0001092530488EE93E0A0E0B0E08093550487
:102BF00090935604A0935704B09358048CEB92E042
:102C0000909352048093510408951092810482E1BC
:102C100061E00E94571983E161E00E945719E9EBD6
:102C2000F0E080818E7F808380818D7F808380E251
:102C30008093B80085E48093BC000895413288F504
:102C4000909181049923E1F791E0909381049FEFA3
:102C50009093800410925E04942F915090935F049F
:102C6000880F816080935D0485EE8093BC00809125
:102C700081048130E1F380915E04841710F4409167
:102C80005E04E0E6F4E0262F372FD901242F30E050
:102C90002E0F3F1F02C081918D93E217F307D9F7E2
:102CA00001C040E0842F08954132B0F59091810435
:102CB0009923E1F792E0909381049FEF9093800431
:102CC00010925E0440935F04DB01E0E6F4E050E024
:102CD0004E0F5F1F02C09D919193E417F507D9F73E
:102CE00090E0880F991F80935D0485EE8093BC006F
:102CF000222321F0809181048230E1F380918004CD
:102D00008F3F61F080918004803251F08091800487
:102D1000803341F483E0089581E0089580E00895D0
:102D200082E0089584E008956132A0F42091810446
:102D3000243091F46093A604DC01E9EAF4E070E049
:102D40006E0F7F1F02C08D918193E617F707D9F7A9
:102D500080E0089581E0089582E00895882311F0CD
:102D600085EC01C085E88093BC00089585ED8093D3
:102D7000BC008091BC0084FDFCCF109281040895BA
:102D800085EC8093BC001092810408951F920F92ED
:102D90000FB60F9211242F933F934F935F936F932E
:102DA0007F938F939F93AF93BF93EF93FF93809104
:102DB000B90090E0887F90708036910509F4C2C018
:102DC00081369105E4F58832910509F47EC0893297
:102DD0009105C4F48031910509F472C081319105E7
:102DE00044F4009709F413C18830910509F013C128
:102DF00067C08831910509F468C08032910509F0F7
:102E00000AC178C08034910509F48AC081349105E3
:102E10004CF48033910509F46FC08833910509F0B3
:102E2000FAC06EC08035910509F46EC088359105F1
:102E300009F47BC08834910509F0EDC0EAC08839F7
:102E4000910509F4DAC089399105ECF488379105C8
:102E500009F478C0893791054CF48836910509F456
:102E600071C08037910509F0D6C06CC088389105D3
:102E700009F4C3C08039910509F46AC0803891050E
:102E800009F0C9C065C0803B910509F48EC0813B43
:102E900091054CF4803A910509F46CC0883A91058B
:102EA00009F0B9C082C0803C910509F4AAC0883CF1
:102EB000910509F4A6C0883B910509F0ACC08AC011
:102EC00080915D048093BB0013C090915E0480915B
:102ED0005F04981708F09DC080915E04E82FF0E031
:102EE000E05AFB4F90819093BB008F5F80935E040C
:102EF00081E084C080E201C080E38093800489C0C7
:102F000088E3809380044EC080915E049091BB0062
:102F1000E82FF0E0E05AFB4F90838F5F80935E04D0
:102F200090915E0480915F0465C080915E049091F1
:102F3000BB00E82FF0E0E05AFB4F90838F5F809357
:102F40005E0467C083E08093810410928204D0CF36
:102F500080918204803208F050C080918204909168
:102F6000BB00E82FF0E0ED57FB4F90838F5F80931D
:102F70008204BECF80918204803230F4E0918204DA
:102F8000F0E0ED57FB4F10820E94B616609182046C
:102F9000E091A304F091A40483E894E070E0099523
:102FA000109282040E94C01636C084E0809381048F
:102FB0001092A5041092A604E091A704F091A80431
:102FC00009958091A604882329F481E08093A604C2
:102FD0001092A9048091A504E82FF0E0E755FB4F7B
:102FE00090819093BB008F5F8093A5049091A5047E
:102FF0008091A604981708F47BCF80E00E94AE165B
:103000000AC081E00E94AE161092810404C01092A2
:1030100080040E94B616FF91EF91BF91AF919F91EE
:103020008F917F916F915F914F913F912F910F9071
:103030000FBE0F901F9018951F920F920FB60F9210
:1030400011242F933F934F935F936F937F938F93AD
:103050009F93AF93BF932091CD043091CE044091C4
:10306000CF045091D0047091D104DA01C9010296C5
:10307000A11DB11D672F6A5F6D3730F06D57DA0102
:10308000C9010396A11DB11D6093D1048093CD04A5
:103090009093CE04A093CF04B093D0048091C90440
:1030A0009091CA04A091CB04B091CC040196A11DCB
:1030B000B11D8093C9049093CA04A093CB04B0932C
:1030C000CC04BF91AF919F918F917F916F915F9150
:1030D0004F913F912F910F900FBE0F901F90189519
:1030E0008FB7F8942091CD043091CE044091CF0455
:1030F0005091D0048FBFB901CA0108959FB7F894C9
:103100002091C9043091CA044091CB045091CC0461
:1031100086B5A89B06C08F3F21F02F5F3F4F4F4FD2
:103120005F4F9FBF542F432F322F2227280F311D6F
:10313000411D511D83E0220F331F441F551F8A95E7
:10314000D1F7B901CA010895EF92FF920F931F932F
:10315000CF93DF937B018C010E947E18EB010FC09F
:103160000E947E186C1B7D0B83E0683E780738F068
:103170000894E108F10801091109C851DC4FE11474
:10318000F1040105110561F7DF91CF911F910F91B6
:10319000FF90EF900895789484B5826084BD84B5E3
:1031A000816084BD85B5826085BD85B5816085BD42
:1031B000EEE6F0E0808181608083E1E8F0E010825B
:1031C000808182608083808181608083E0E8F0E09C
:1031D000808181608083E1EBF0E080818460808386
:1031E000E0EBF0E0808181608083EAE7F0E08081BD
:1031F000846080838081826080838081816080831D
:103200008081806880831092C1000895833071F0BE
:10321000843028F48130A1F0823021F514C086304A
:10322000B1F08730D1F08430E9F404C0809180009F
:103230008F7703C0809180008F7D809380000895F8
:1032400084B58F7702C084B58F7D84BD0895809149
:10325000B0008F778093B00008958091B0008F7D8B
:103260008093B000089590E0FC01EF5DFE4F249143
:10327000FC01E35FFE4FE491EE23C1F0F0E0EE0FBE
:10328000FF1FE151FF4F85919491DC01662341F4CA
:103290009FB7F8948C91209582238C939FBF0895BB
:1032A0009FB7F8948C91822B8C939FBF08950F93B6
:1032B0001F93DF93CF930F92CDB7DEB7282F30E067
:1032C000F901EB5CFE4F8491F901EF5DFE4F149123
:1032D000235F3E4FF90104910023D9F0882321F0A8
:1032E00069830E9406196981E02FF0E0EE0FFF1F4D
:1032F000E750FF4F85919491DC019FB7F8946623C6
:1033000021F48C911095812302C08C91812B8C9398
:103310009FBF0F90CF91DF911F910F910895FC01F6
:1033200084859585FC01E05CFF4F208131818E5BB7
:103330009F4FFC0180819181281B390B2F733070C6
:10334000C9010895FC0184859585FC01E05CFF4F6F
:1033500040815181FC01EE5BFF4F2081318142179A
:10336000530741F00190F081E02DE80FF91F208113
:1033700030E002C02FEF3FEFC9010895FC018485C2
:103380009585FC01E05CFF4F40815181FC01EE5BC3
:10339000FF4F208131814217530771F0A081B18125
:1033A000A80FB91F2C918081918101968F73907025
:1033B0009183808330E002C02FEF3FEFC901089571
:1033C000DC011E968D919C911F97FC01E05CFF4FE4
:1033D0008E5B9F4F40815181DC012D913C91119773
:1033E00042175307B9F708951F93FC01162F26853E
:1033F0003785D901A05CBF4F8D919C91019660E407
:1034000070E00E941321D901AE5BBF4F4D915C91DA
:10341000119784179507D1F3D901A05CBF4F0D9088
:10342000BC91A02DA20FB31F1C93A685B785A05CED
:10343000BF4F11969C938E93A689B7892C9181E0FA
:1034400090E0058C02C0880F991F0A94E2F7282BA0
:103450002C9381E090E01F910895FB01E05CFF4F09
:10346000208131812F5F3F4F2F733070DB01AE5BC6
:10347000BF4F4D915C9111972417350739F0A0810A
:10348000B181A60FB71F8C933183208308950895CF
:103490001F920F920FB60F9211242F933F934F93C9
:1034A0005F936F937F938F939F93AF93BF93EF93AC
:1034B000FF938091C60062ED74E00E942D1AFF9187
:1034C000EF91BF91AF919F918F917F916F915F919C
:1034D0004F913F912F910F900FBE0F901F90189515
:1034E0008AE595E00E948F19009711F00E94471A13
:1034F00008951F920F920FB60F9211242F933F93AE
:103500005F936F937F938F939F93AF93BF93EF934B
:10351000FF93209156053091570580915805909161
:1035200059052817390731F48091C1008F7D8093A8
:10353000C10016C0E0915805F0915905EA5EFA4FB6
:1035400020818091580590915905019660E470E0C2
:103550000E94132190935905809358052093C6002B
:10356000FF91EF91BF91AF919F918F917F916F915B
:103570005F913F912F910F900FBE0F901F90189564
:103580009F92AF92BF92CF92DF92EF92FF920F93F2
:103590001F93CF93DF93EC017A018B0199249394CD
:1035A000EC89FD8981E090E00E8C02C0880F991FA4
:1035B0000A94E2F7808360E874E88EE190E0A80165
:1035C00097010E942621215030404040504056959E
:1035D00047953795279590E4A92E92E4B92E9FE060
:1035E000C92ED12C12C09924EC89FD891082C60104
:1035F000B501A80197010E9426212150304040408A
:103600005040569547953795279580E120303807EB
:1036100010F0992041F7E889F9893083EA89FB891C
:103620002083EE89FF89408181E090E09C010A8C33
:1036300002C0220F331F0A94E2F7422B4083EE8927
:10364000FF8940819C010B8C02C0220F331F0A941A
:10365000E2F7422B4083EE89FF8940819C010C8C6C
:1036600002C0220F331F0A94E2F7422B4083EE89F7
:10367000FF8920810D8C02C0880F991F0A94E2F700
:10368000809582238083DF91CF911F910F91FF90CE
:10369000EF90DF90CF90BF90AF909F9008951092E1
:1036A0005D0510925C0588EE93E0A0E0B0E08093A9
:1036B0005E0590935F05A0936005B0936105ECE50E
:1036C000F5E08CEC92E09293829382ED94E0958702
:1036D000848786E195E09787868785EC90E0918BDB
:1036E000808B84EC90E0938B828B80EC90E0958BC8
:1036F000848B81EC90E0978B868B86EC90E0918FA9
:10370000808F84E0828F83E0838F87E0848F85E0E1
:10371000858F81E0868F0895CF92DF92EF92FF929E
:103720000F931F93CF93DF936C017B018A01C0E05D
:10373000D0E00FC0D7016D917D01D601ED91FC91D4
:103740000190F081E02DC6010995C80FD91F0150E5
:1037500010400115110571F7CE01DF91CF911F9136
:103760000F91FF90EF90DF90CF900895DB010D90C7
:103770000020E9F7AD0141505040461B570BDC01DA
:10378000ED91FC910280F381E02D099508950E944E
:10379000B61B0895DC01ED91FC910190F081E02DC4
:1037A000099508950F931F93CF93DF93EC016DE07C
:1037B0000E94CA1B8C01CE016AE00E94CA1B080F3E
:1037C000191FC801DF91CF911F910F9108950F9399
:1037D0001F93CF93DF93EC010E94B61B8C01CE01A7
:1037E0000E94D21B080F191FC801DF91CF911F91B2
:1037F0000F9108958F929F92AF92BF92CF92DF92D6
:10380000EF92FF920F931F93DF93CF93CDB7DEB765
:10381000A1970FB6F894DEBF0FBECDBF6C01042F89
:10382000E52FCB01122F19A2223008F41AE021E271
:10383000E22EF12CEC0EFD1E812E9924AA24BB242D
:1038400003C0022FE32FCA01602F7E2FA501940130
:103850000E942621129F802D1124081B0894E10844
:10386000F1080A3014F4005D01C0095CF70100831F
:10387000211531054105510521F7C601B7010E9407
:10388000B61BA1960FB6F894DEBF0FBECDBFCF9189
:10389000DF911F910F91FF90EF90DF90CF90BF903D
:1038A000AF909F908F9008952115310549F4DC0168
:1038B000ED91FC910190F081E02D642F0995089520
:1038C0000E94FA1B0895CF92DF92EF92FF920F931E
:1038D0001F93CF93DF93EC017A018B012115310502
:1038E00041F4E881F9810190F081E02D642F099580
:1038F0001AC02A303105A9F477FF12C06DE20E9488
:10390000CA1B6C0144275527BA014E195F09600B89
:10391000710BCE012AE00E94FA1BC80ED91E04C00A
:103920002AE00E94FA1B6C01C601DF91CF911F9122
:103930000F91FF90EF90DF90CF9008959A01FB01D7
:10394000AF01662757FD6095762F0E94631C08958E
:103950000F931F93CF93DF93EC019A01CB01AC013E
:10396000662757FD6095762FCE010E94631C8C015F
:10397000CE010E94D21B080F191FC801DF91CF9101
:103980001F910F9108956F927F929F92AF92BF9275
:10399000CF92DF92EF92FF920F931F93CF93DF931B
:1039A0003C017A018B01C22ECB01BA0120E030E04C
:1039B000A9010E94691E87FF0AC0C3016DE20E942F
:1039C000CA1BEC0117FB109517F9109502C0C0E057
:1039D000D0E0DD2450E040E030E02FE311C0DA0118
:1039E000F9016B2F742F8F2F922F20E030E040E2EF
:1039F00051E40E94701E562F472F382F292FD39441
:103A0000DC1468F3C801B701DA01F9012B2F342F58
:103A10004F2F5E2F0E948C1D5B01F82E992E7B2D5F
:103A20000E94DD1E162FD72EE82E092F0E94091F97
:103A30009B01AC016A2D7B2D8F2D992D0E948B1D32
:103A4000962EA72EB82EF92EC301412F5D2D6E2D77
:103A5000702F2AE030E00E94541CC80FD91FCC20E0
:103A6000B9F1C30167E472E00E94B61BC80FD91F09
:103A70002FC0692D7A2D8B2D9F2D20E030E040E264
:103A800051E40E945020D62EB72EA82E992E0E94C7
:103A9000D81E7B010027F7FC0095102FC301B80149
:103AA000A7012AE030E00E94631CC80FD91FC8019B
:103AB000B7010E940B1F9B01AC016D2D7B2D8A2D40
:103AC000992D0E948B1D962EA72EB82EF92ECA94E2
:103AD000CC2079F6CE01DF91CF911F910F91FF900D
:103AE000EF90DF90CF90BF90AF909F907F906F90BE
:103AF00008950E94C31C0895CF93DF930E94CB18B2
:103B00000E94FD14C0E7DAE10E9494122097E1F3CD
:103B10000E94701AF9CF5058BB27AA270ED06AC24C
:103B200033D230F038D220F031F49F3F11F41EF43C
:103B3000F2C10EF4E095E7FBE8C1E92F7DD280F3F6
:103B4000BA17620773078407950718F071F49EF59A
:103B500095C20EF4E0950B2EBA2FA02D0B01B901E2
:103B600090010C01CA01A0011124FF27591B99F0F3
:103B7000593F50F4503E68F11A16F040A22F232FFF
:103B8000342F4427585FF3CF469537952795A7954F
:103B9000F0405395C9F77EF41F16BA0B620B730BF6
:103BA000840BBAF09150A1F0FF0FBB1F661F771F67
:103BB000881FC2F70EC0BA0F621F731F841F48F41C
:103BC000879577956795B795F7959E3F08F0B3CFA2
:103BD0009395880F08F09927EE0F9795879508958C
:103BE0009F939F77EEE389379E0720F4E8E6F0E0A5
:103BF000BAD109C04BD19058A2EA2AED3FE049EC76
:103C00005FE39BDFF7D10F9007FC90580895BCD17C
:103C100058F080E891E009F49EEFBDD128F040E82B
:103C200051E059F45EEF09C076C128C2E92FE0786F
:103C300003D268F3092E052AC1F326173707480770
:103C4000590738F00E2E07F8E02569F0E025E0640A
:103C50000AC0EF6307F8009407FADB01B9019D0180
:103C6000DC01CA01AD01EF934AD0C4D10AD05F9103
:103C7000552331F02BED3FE049E450FD49EC4CCFAA
:103C80000895DF93DD27B92FBF7740E85FE316166D
:103C9000170648075B0710F4D92FFBD19F938F932A
:103CA0007F936F93A8D2ECE7F0E038D1A3D12F91A6
:103CB0003F914F915F9100D2DD2349F09058A2EAE5
:103CC0002AED3FE049EC5FE3D0785D2736DFDF91F6
:103CD00091C1F7D008F481E0089565D1E3959BC1C7
:103CE0000CD088C158D140F04FD130F021F45F3F63
:103CF00019F00BC15111C3C10EC19ED198F3992384
:103D0000C9F35523B1F3951B550BBB27AA2762179F
:103D10007307840738F09F5F5F4F220F331F441FE4
:103D2000AA1FA9F333D00E2E3AF0E0E830D091501C
:103D30005040E695001CCAF729D0FE2F27D0660F09
:103D4000771F881FBB1F261737074807AB07B0E848
:103D500009F0BB0B802DBF01FF2793585F4F2AF05E
:103D60009E3F510568F0D1C08AC15F3FECF3983E99
:103D7000DCF3869577956795B795F7959F5FC9F7BB
:103D8000880F911D9695879597F90895E1E0660F44
:103D9000771F881FBB1F621773078407BA0720F0BD
:103DA000621B730B840BBA0BEE1F88F7E095089526
:103DB00004D06894B11163C1089546D188F09F572B
:103DC00090F0B92F9927B751A0F0D1F0660F771F67
:103DD000881F991F1AF0BA95C9F712C0B13081F047
:103DE0004DD1B1E008954AC1672F782F8827B85F79
:103DF00039F0B93FCCF3869577956795B395D9F7A8
:103E00003EF490958095709561957F4F8F4F9F4FB1
:103E10000895E89409C097FB3EF4909580957095BD
:103E200061957F4F8F4F9F4F9923A9F0F92F96E906
:103E3000BB279395F695879577956795B795F1117B
:103E4000F8CFFAF4BB0F11F460FF1BC06F5F7F4F18
:103E50008F4F9F4F16C0882311F096E911C077232A
:103E600021F09EE8872F762F05C0662371F096E833
:103E7000862F70E060E02AF09A95660F771F881F02
:103E8000DAF7880F9695879597F90895DF93CF9382
:103E90001F930F938B01EC01E9EAF0E03FD0AAD029
:103EA0009801AE018B01EC0160E070E080E89FE3D7
:103EB00032DE63D19801AE010F911F91CF91DF9156
:103EC000FBC0990F0008550FAA0BE0E8FEEF16168D
:103ED0001706E807F907C0F012161306E407F507FE
:103EE00098F0621B730B840B950B39F40A2661F072
:103EF000232B242B252B21F408950A2609F4A14015
:103F0000A6958FEF811D811D089597F99F6780E821
:103F100070E060E008959FEF80EC0895DF93CF9309
:103F20001F930F93FF92EF92DF927B018C016894B5
:103F300005C0DA2EEF01C0D0FE01E894A5912591CD
:103F4000359145915591AEF3EF01F7DDFE019701F3
:103F5000A801DA9479F7DF90EF90FF900F911F910D
:103F6000CF91DF9108959F938F937F936F93FF93EA
:103F7000EF939B01AC0194D0EF91FF91CFDF2F9194
:103F80003F914F915F918CC000240A94161617063A
:103F900018060906089500240A941216130614063A
:103FA00005060895B8CF50D0E8F3E894E0E0BB27C9
:103FB0009F57F0F02AED3FE049EC06C0EE0FBB0F33
:103FC000661F771F881F28F0B23A620773078407BD
:103FD00028F0B25A620B730B840BE3959A9572F733
:103FE000803830F49A95BB0F661F771F881FD2F771
:103FF000904806C1092E0394000C11F4882352F056
:10400000BB0F40F4BF2B11F460FF04C06F5F7F4F04
:104010008F4F9F4F0895EF93E0FF06C0A2EA2AED6D
:104020003FE049EC5FEB89DDE5DF0F90039401FC95
:104030009058E1EDF0E097CF57FD9058440F551F91
:1040400059F05F3F71F04795880F97FB991F61F01A
:104050009F3F79F087950895121613061406551F91
:10406000F2CF4695F1DF08C0161617061806991FFD
:10407000F1CF86957105610508940895E894BB27F2
:1040800066277727CB0197F908951BDF08F48FEF98
:1040900008959B01AC0160E070E080E89FE320CED2
:1040A0000BD0A8CF71DF28F076DF18F0952309F048
:1040B0002CCF31CF1124E3CFBFDFA0F3959FD1F3F5
:1040C000950F50E0551F629FF001729FBB27F00DC6
:1040D000B11D639FAA27F00DB11DAA1F649F66271B
:1040E000B00DA11D661F829F2227B00DA11D621F6A
:1040F000739FB00DA11D621F839FA00D611D221F24
:10410000749F3327A00D611D231F849F600D211D07
:10411000822F762F6A2F11249F5750408AF0E1F0AA
:1041200088234AF0EE0FFF1FBB1F661F771F881FF3
:1041300091505040A9F79E3F510570F0E6CE9FCFB9
:104140005F3FECF3983EDCF3869577956795B795DE
:10415000F795E7959F5FC1F7FE2B880F911D969508
:10416000879597F908959F931EDF0F9007FCEE5FE8
:1041700052CF11F40EF4CFCE41C066DFD0F39923B5
:10418000D9F3CEF39F57550B87FF46D00024A0E606
:1041900040EA900180585695979528F4805C660F08
:1041A000771F881F20F026173707480730F4621B57
:1041B000730B840B202931294A2BA6951794079459
:1041C000202531254A2758F7660F771F881F20F0D2
:1041D00026173707480730F4620B730B840B200D4A
:1041E000311D411DA09581F7B901842F9158880F89
:1041F0009695879508959B01AC0152CF9F3F31F072
:10420000915020F4879577956795B795880F911D04
:104210009695879597F9089591505040660F771FAE
:10422000881FD2F7089597FB092E07260AD077FD3D
:1042300004D02ED006D000201AF4709561957F4FDF
:104240000895F6F7909581959F4F0895A1E21A2E53
:10425000AA1BBB1BFD010DC0AA1FBB1FEE1FFF1F2A
:10426000A217B307E407F50720F0A21BB30BE40B7A
:10427000F50B661F771F881F991F1A9469F76095C1
:104280007095809590959B01AC01BD01CF0108957B
:10429000AA1BBB1B51E107C0AA1FBB1FA617B7076C
:1042A00010F0A61BB70B881F991F5A95A9F7809588
:1042B0009095BC01CD010895EE0FFF1F0590F4917C
:0842C000E02D0994F894FFCFF2
:1042C80062696E61727920666F726D617420666FC3
:1042D80072206F75747075745F6D696E652829201A
:1042E8006E6F7420796574207772697474656E00D6
:1042F80059617728726177293D002C005961772828
:104308006F6666736574293D004D41475F48656176
:1043180064696E6728726177293D0041783D0041E4
:10432800793D00417A3D004D783D004D793D004D85
:104338007A3D0047783D0047793D00477A3D0023A4
:104348005950523D00616363656C20782C792C7A52
:1043580020286D696E2F6D617829203D20002F007F
:104368002020006D61676E20782C792C7A20286DCA
:10437800696E2F6D617829203D20006779726F2062
:10438800782C792C7A202863757272656E742F6187
:1043980076657261676529203D200023412D002341
:1043A8004D2D0023472D00214552523A2072656158
:1043B80064696E6720616363656C65726F6D6574AF
:1043C800657200214552523A2072656164696E67D0
:1043D800206D61676E65746F6D6574657200214547
:1043E80052523A2072656164696E67206779726F0C
:1043F80073636F7065002353594E43480023414D42
:10440800472D4552523A002E0005000000803F001B
:1044180000000000000000000000000000803F00D5
:1044280000000000000000000000000000803F00C5
:104438000000000000803F000000400000404000F5
:104448000080400000A0400000C0400000E04000A4
:104458000000410138A3663F2F4EBC3CF2F1643C9A
:104468002F4EBC3C3CF77A3FA3F1BABCF2F1643C56
:10447800A3F1BABC22A6783F0000000086155415A7
:1044880026152F154315531500000000F4198C1B31
:084498008F19BE19A219E019E9
:00000001FF
