:100000000C94A7000C94CF000C94CF000C94CF005C
:100010000C94CF000C94CF000C94CF000C94CF0024
:100020000C94CF000C94CF000C94CF000C94CF0014
:100030000C94CF000C94CF000C94CF000C94CF0004
:100040000C9474160C94CF000C94A0180C94D11836
:100050000C94CF000C94CF000C94CF000C94CF00E4
:100060000C941E150C94CF00036EDB363D9A9999C3
:10007000993DABAAAA2A3E000000803F084AD73B20
:100080003BCE016E84BCBFFDC12F3D6C74319ABD67
:1000900056833DDA3D00C77F11BED9E4BB4C3E918B
:1000A0006BAAAABE000000803F072C7AA5BA6CC5D7
:1000B00090DA3B9365FC8BBC53F810FD3C56928361
:1000C0004DBD879D3AB63DCBC9BF5BBE73DA0FC944
:1000D0003F05A84CCDB2D44EB93836A9020C50B960
:1000E000918688083CA6AAAA2ABE000000803F008C
:1000F000000000240027002A00000000002500283E
:10010000002B000000000023002600290004040446
:1001100004040404040202020202020303030303B0
:10012000030102040810204080010204081020018D
:100130000204081020000000070002010000030470
:10014000060000000000000000004614A71911245A
:100150001FBECFEFD8E0DEBFCDBF12E0A0E0B1E020
:10016000E8E7FFE302C005900D92AC35B107D9F77F
:1001700014E0ACE5B2E001C01D92AD3FB107E1F77C
:1001800011E0CEE4D1E004C02297FE010E94B61F28
:10019000CA34D107C9F70E94D41B0C94BA1F0C941F
:1001A0000000CF92DF92EF92FF920F931F93CF93B5
:1001B000DF9380911602882309F458C04FE552E07E
:1001C000C7E7D2E09BE6C92E92E0D92E63E872E041
:1001D0000BE912E08FE8E82E82E0F82E23E030E011
:1001E000FA0181919191A191B191AF018993999374
:1001F000A993B993F60181939193A193B1936F0160
:10020000FB0181919191A191B191BF01F80181937D
:100210009193A193B1938F01F70181939193A1934E
:10022000B1937F0121503040D9F61092CC02109248
:10023000CB0280E090E0DC018093C7029093C8027B
:10024000A093C902B093CA028093C3029093C402E0
:10025000A093C502B093C6028093BF029093C002E0
:10026000A093C102B093C20210921602DF91CF9107
:100270001F910F91FF90EF90DF90CF90089581E054
:1002800080936D038DE061E00E94AF170895109296
:100290006D038DE060E00E94AF1708958EED94E04D
:1002A0000E94E71718161906CCF78EED94E00E940D
:1002B000161808952F923F924F925F926F927F92FD
:1002C0008F929F92AF92BF92CF92DF92EF92FF9266
:1002D0000F931F93DF93CF93CDB7DEB72C970FB655
:1002E000F894DEBF0FBECDBFE0905D03F0905E03DB
:1002F00000915F0310916003C801B7010E94C51C03
:1003000069877A878B879C87C801B7010E940B1F7A
:100310005B016C01E0905903F0905A0300915B037C
:1003200010915C03C801B7010E94C51C69837A83E0
:100330008B839C83C801B7010E940B1F1B012C01FA
:10034000E0908702F09088020091890210918A0261
:1003500060908B0270908C0280908D0290908E0243
:10036000C801B70129853A854B855C850E94A81E86
:100370006D837E838F839887C401B301A6019501A5
:100380000E94A81E9B01AC016D817E818F819885A2
:100390000E94E31B9B01AC0150582D833E834F8389
:1003A000588769817A818B819C8120918302309169
:1003B000840240918502509186020E94A81E6983A2
:1003C0007A838B839C83C801B701A60195010E94A3
:1003D000A81EA20191010E94A81E9B01AC01698187
:1003E0007A818B819C810E94E41B7B018C01C4017A
:1003F000B30129853A854B855C850E94A81EA20120
:1004000091010E94A81E9B01AC01C801B7010E9486
:10041000E41B9B01AC016D817E818F8198850E94D8
:100420006E1C6093CD027093CE028093CF029093A6
:10043000D0022C960FB6F894DEBF0FBECDBFCF9181
:10044000DF911F910F91FF90EF90DF90CF90BF90C1
:10045000AF909F908F907F906F905F904F903F9064
:100460002F9008956091E6017091E7018091E80175
:100470009091E9010E94481C905860935903709331
:100480005A0380935B0390935C036091EA0170913F
:10049000EB018091EC019091ED012091EE01309102
:1004A000EF014091F0015091F1010E946E1C6093A8
:1004B0005D0370935E0380935F039093600360918C
:1004C000DA017091DB018091DC019091DD012091D6
:1004D000CE013091CF014091D0015091D1010E94C5
:1004E0006E1C60935503709356038093570390934B
:1004F00058030895AF92BF92CF92DF92EF92FF928E
:100500000F931F93CF93DF93C82ED92EA62EB72E0D
:10051000C3E0D0E010E000E0FF24EE24F60161919A
:100520007191819191916F01F501219131914191E9
:1005300051915F010E94A81E9B01AC01D801F701F7
:100540006B2F702F8F2F9E2D0E94E41B162F072FCD
:10055000F82EE92E219711F7A8019701652F742F26
:10056000832F922FDF91CF911F910F91FF90EF90EA
:10057000DF90CF90BF90AF900895AF92BF92CF928F
:10058000DF92EF92FF920F931F93CF93DF937C0143
:10059000EB018A016C817D818E819F81FA0120852A
:1005A0003185428553850E94A81E5B016C016885D8
:1005B00079858A859B85F80124813581468157811B
:1005C0000E94A81E9B01AC01C601B5010E94E31B5D
:1005D000F7016083718382839383688579858A8537
:1005E0009B85F80120813181428153810E94A81EA0
:1005F0005B016C01688179818A819B81F80120858A
:100600003185428553850E94A81E9B01AC01C6011D
:10061000B5010E94E31BF70164837583868397838A
:10062000688179818A819B81F801248135814681A5
:1006300057810E94A81E5B016C016C817D818E81B7
:100640009F81F80120813181428153810E94A81E3F
:100650009B01AC01C601B5010E94E31BF701608755
:10066000718782879387DF91CF911F910F91FF90C0
:10067000EF90DF90CF90BF90AF900895CF92DF9230
:10068000EF92FF920F931F93CF93DF936C01EB01D7
:1006900079018A01688179818A819B810E94A81EE3
:1006A000F60160837183828393836C817D818E8167
:1006B0009F81A80197010E94A81EF601648375839B
:1006C00086839783688579858A859B85A8019701AC
:1006D0000E94A81EF6016087718782879387DF9149
:1006E000CF911F910F91FF90EF90DF90CF900895E1
:1006F000CF92DF92EF92FF920F931F93CF93DF93EE
:10070000062F172FE42EF52EC82ED92EC0E0D0E0EC
:10071000F80161917191819191918F01F70121917E
:100720003191419151917F010E94E41BF601619347
:100730007193819391936F012196C330D10541F755
:10074000DF91CF911F910F91FF90EF90DF90CF90AD
:1007500008956F927F928F929F92AF92BF92CF92A5
:10076000DF92EF92FF920F931F932091D10230916D
:10077000D2024091D3025091D402E090D502F09081
:10078000D6020091D7021091D802A090D902B09061
:10079000DA02C090DB02D090DC02CA01B9010E94EB
:1007A000A81E3B014C01C801B701A80197010E9496
:1007B000A81E9B01AC01C401B3010E94E41B7B0194
:1007C0008C01C601B501A60195010E94A81E9B01DE
:1007D000AC01C801B7010E94E41B0E94151F20E074
:1007E00030E040E85BE30E94A81E9B01AC0160E0A2
:1007F00070E080E89FE30E94E31BF62E072F182F7E
:10080000E92E20E030E0A9010E949D1E1816D4F4C4
:100810006F2D702F812F9E2D2F2D302F412F5E2D6C
:100820000E94E41B9B01AC0160E070E080E89FE364
:100830000E94E31B20E030E0A9010E94C11C87FF59
:1008400019C075C06F2D702F812F9E2D2F2D302F29
:10085000412F5E2D0E94E41B20E030E040E85FE382
:100860000E94E41B20E030E0A9010E94C11C87FF28
:100870001DC05DC06F2D702F812F9E2D2F2D302F0D
:10088000412F5E2D0E94E41B9B01AC0160E070E0F3
:1008900080E89FE30E94E31B20E030E040E85FE354
:1008A0000E949D1E18160CF447C019C06F2D702FA2
:1008B000812F9E2D2F2D302F412F5E2D0E94E41B66
:1008C00020E030E040E85FE30E94E41B20E030E0FD
:1008D00040E85FE30E949D1E181674F113C06F2D4F
:1008E000702F812F9E2D2F2D302F412F5E2D0E9496
:1008F000E41B9B01AC0160E070E080E89FE30E9494
:10090000E31B10C06F2D702F812F9E2D2F2D302FA8
:10091000412F5E2D0E94E41B20E030E040E85FE3C1
:100920000E94E41BF62E072F182FE92E0AC0FF2481
:1009300000E010E0EE2405C0FF2400E010E82FE303
:10094000E22E89E193E061ED72E046EE51E00E9413
:10095000BD026F2D702F812F9E2D2AE037ED43EAC7
:100960005CE30E94A81E9B01AC0185EF92E069E167
:1009700073E00E943E036F2D702F812F9E2D2CEA75
:1009800035EC47EA57E30E94A81E9B01AC0187E7BC
:1009900093E069E173E00E943E0381E093E0BC01D3
:1009A00047E753E00E947803E090CD02F090CE023A
:1009B0000091CF021091D002C801B7010E94C51C5E
:1009C0005B016C01C801B7010E940B1F2091CE0191
:1009D0003091CF014091D0015091D1010E94A81EC9
:1009E0007B018C01C601B5012091DA013091DB0158
:1009F0004091DC015091DD010E94A81E9B01AC01D9
:100A0000C801B7010E94E31B9B01AC0185E293E0A2
:100A100066EE71E00E943E0383E893E065E273E0D6
:100A20002AE939E949E95FE30E943E0385EF92E054
:100A3000BC0143E853E00E94780387E793E065E256
:100A400073E02CEA35EC47EA57E30E943E0381E06D
:100A500093E0BC0147E753E00E9478031F910F9198
:100A6000FF90EF90DF90CF90BF90AF909F908F90CE
:100A70007F906F9008956F927F928F929F92AF9226
:100A8000BF92CF92DF92EF92FF920F931F93DF936B
:100A9000CF93CDB7DEB7A4970FB6F894DEBF0FBEE5
:100AA000CDBF6EECC62E61E0D62E5CE0652E712CBB
:100AB0006C0C7D1CC601B3010E947A02905820E0A4
:100AC00030E040E05FE30E94A81E5B01982E892E73
:100AD0008E010F5F1F4FC801B301F4012A2D3B2D7A
:100AE0004F2F5E2F0E943E034DE0E42EF12CEC0EC2
:100AF000FD1EC701B601F4012A2D3B2D4F2F5E2F9D
:100B00000E943E03C801B801A6010E947803C701F4
:100B1000B701A3010E94780339E1A32EB12CAC0EDA
:100B2000BD1EC501B801A7010E94BD02C801B801E0
:100B30000E947A029B01AC0160E070E080E490E4E6
:100B40000E94E31B20E030E040E05FE30E94A81E2B
:100B50009B01AC01C601B8010E943E03C701B70169
:100B60000E947A029B01AC0160E070E080E490E4B6
:100B70000E94E31B20E030E040E05FE30E94A81EFB
:100B80009B01AC01C301B7010E943E03C501B50141
:100B90000E947A029B01AC0160E070E080E490E486
:100BA0000E94E31B20E030E040E05FE30E94A81ECB
:100BB0009B01AC0186EE91E0B5010E943E03A49634
:100BC0000FB6F894DEBF0FBECDBFCF91DF911F915E
:100BD0000F91FF90EF90DF90CF90BF90AF909F90DC
:100BE0008F907F906F9008952F923F924F925F92D7
:100BF0006F927F928F929F92AF92BF92CF92DF922D
:100C0000EF92FF920F931F93CF93DF93362E272EF1
:100C10003A01082F192FEE24FF2445C069917991DC
:100C200089919991F80120813181428153810E94FB
:100C3000A81E4B015C01F801648175818681978152
:100C4000288539854A855B850E94A81E9B01AC01D9
:100C5000C501B4010E94E41B4B015C01F8016085F1
:100C60007185828593852C893D894E895F890E9493
:100C7000A81E9B01AC01C501B4010E94E41BF60152
:100C800061937193819391936F01C415D50531F6EA
:100C9000ECE0CE2ED12CEC0CFD1C045F1F4F24E2A7
:100CA000E216F10479F0C101E92FEF016E01D22CB7
:100CB000E6016301CE0CDF1C7CE0472E512C4C0E6C
:100CC0005D1EACCFDF91CF911F910F91FF90EF9000
:100CD000DF90CF90BF90AF909F908F907F906F905C
:100CE0005F904F903F902F9008952F923F924F9298
:100CF0005F926F927F928F929F92AF92BF92CF92AC
:100D0000DF92EF92FF920F931F93DF93CF9300D068
:100D100000D0CDB7DEB76091B3027091B40280917C
:100D2000B5029091B60226EA36E24FE95AE30E94F4
:100D3000A81E6093DD027093DE028093DF02909321
:100D4000E0026091B7027091B8028091B90290916F
:100D5000BA0226EA36E24FE95AE30E94A81E6093DF
:100D6000E1027093E2028093E3029093E4026091C7
:100D7000BB027091BC028091BD029091BE0226EA36
:100D800036E24FE95AE30E94A81E6093E502709391
:100D9000E6028093E7029093E80280915F029091CF
:100DA0006002A0916102B09162028093D10290939F
:100DB000D202A093D302B093D402809163029091A7
:100DC0006402A0916502B09166028093D50290936F
:100DD000D602A093D702B093D80280916702909177
:100DE0006802A0916902B0916A028093D90290933F
:100DF000DA02A093DB02B093DC028DE093E06DEDAC
:100E000072E041E053E00E94780389EE92E06DE0E9
:100E100073E045EF52E00E9478030F2EF0E02F2E92
:100E2000F0E03F2EF0E04F2EF0E05F2EF02D20920C
:100E3000F2013092F3014092F4015092F501E090FA
:100E40006903F0906A0300916B0310916C035701E2
:100E50006801D7FAD094D7F8D0946090F1027090DE
:100E6000F2028090F3029090F402C601B501A40151
:100E700093010E94A81E6093F6017093F70180937E
:100E8000F8019093F9018091ED029091EE02A0910A
:100E9000EF02B091F00289839A83AB83BC83C801CF
:100EA000B70129813A814B815C810E94A81E609321
:100EB000FA017093FB018093FC019093FD01C8013E
:100EC000B701A40193010E94A81E6093FE017093D4
:100ED000FF0180930002909301022092020230925F
:100EE000030240920402509205026090E902709061
:100EF000EA028090EB029090EC02C601B501A401D9
:100F000093010E94A81E60930602709307028093CB
:100F1000080290930902C601B50129813A814B81EB
:100F20005C810E94A81E60930A0270930B0280935A
:100F30000C0290930D02C801B701A40193010E9415
:100F4000A81E60930E0270930F028093100290937C
:100F50001102209212023092130240921402509217
:100F600015028EEC91E062EF71E041E353E00E94E4
:100F7000F405FEECEF2EF1E0FF2E01E313E0D701C4
:100F80006D917D918D919C91F801208131814281FB
:100F900053810E94E41BD7016D937D938D939C93A5
:100FA000139714966D917D918D919C911797F801EF
:100FB00024813581468157810E94E41BD701149614
:100FC0006D937D938D939C93179718966D917D915A
:100FD0008D919C911B97F801208531854285538521
:100FE0000E94E41BD70118966D937D938D939C937B
:100FF0001B97ECE0F0E0EE0EFF1E045F1F4FF2EFD8
:10100000EF16F1E0FF0609F0BACF0F900F900F90A6
:101010000F90CF91DF911F910F91FF90EF90DF9094
:10102000CF90BF90AF909F908F907F906F905F9088
:101030004F903F902F9008958F929F92AF92BF92C2
:10104000CF92DF92EF92FF920F931F93CF93DF9394
:101050008B01E82EE7017E01F92EE701C42ED52E83
:10106000EE24FF24688179818A819B81F8012081A7
:101070003181428153810E94A81E4B015C016C8129
:101080007D818E819F81F801248135814681578140
:101090000E94A81E9B01AC01C501B4010E94E41B83
:1010A0004B015C01688579858A859B85F8012085DF
:1010B0003185428553850E94A81E9B01AC01C50164
:1010C000B4010E94E41BF6016193719381939193A3
:1010D0006F010894E11CF11C2C96F3E0EF16F1046B
:1010E00009F6DF91CF911F910F91FF90EF90DF9064
:1010F000CF90BF90AF909F908F90089560915F02C6
:1011000070916002809161029091620220E030E073
:1011100044E851E40E94E41B2BEF36E442E75FE32E
:101120000E94A81E60935F02709360028093610228
:1011300090936202609163027091640280916502F3
:101140009091660220E030E048E451E40E94E31B05
:101150002FE13DE243E75FE30E94A81E6093630234
:1011600070936402809365029093660260916702B7
:10117000709168028091690290916A0220E030E0EB
:1011800044ED51E40E94E41B28EE39EE45E75FE3AD
:101190000E94A81E609367027093680280936902A0
:1011A00090936A026091830270918402809185021B
:1011B0009091860229E235E043E850E40E94E41B66
:1011C0006093A7027093A8028093A9029093AA0249
:1011D00060918702709188028091890290918A02C1
:1011E0002EEE3CEF41E853E40E94E41B6093AB0217
:1011F0007093AC028093AD029093AE0260918B022B
:1012000070918C0280918D0290918E0220E231E6E5
:1012100042EC52E40E94E41B6093AF027093B00270
:101220008093B1029093B20287E192E067EA72E0A4
:1012300043E852E00E941C086091B3027091B4022E
:101240008091B5029091B6022BE734E146E951E472
:101250000E94E31B6093B3027093B4028093B502C3
:101260009093B6026091B7027091B8028091B90272
:101270009091BA0229E23CE54FE751E40E94E31B5A
:101280006093B7027093B8028093B9029093BA0248
:101290006091BB027091BC028091BD029091BE0230
:1012A0002CE53FE842ED50E40E94E31B6093BB0253
:1012B0007093BC028093BD029093BE0208952F925A
:1012C0003F924F925F926F927F928F929F92AF92D6
:1012D000BF92CF92DF92EF92FF920F931F93DF9313
:1012E000CF93CDB7DEB764970FB6F894DEBF0FBECD
:1012F000CDBF9C8B8B8B2A013B0148015901C70153
:10130000B6010E94C51C6D837E838F839887C701B9
:10131000B6010E940B1F69877A878B879C87C5015E
:10132000B4010E94C51C6D877E878F87988BC5018D
:10133000B4010E940B1F69837A838B839C83C30152
:10134000B2010E94C51C4B015C01C301B2010E94A5
:101350000B1F6B017C016D857E858F859889A501AA
:1013600094010E94A81EEB89FC89608371838283AB
:101370009383C501B40129853A854B855C850E941C
:10138000A81E362E272E898B9A8BA101652F742FCC
:1013900029813A814B815C810E94A81E2B013C016E
:1013A0006D817E818F819885A70196010E94A81E7C
:1013B0009B01AC01C301B2010E94E31BEB89FC89D4
:1013C00064837583868397836D817E818F81988501
:1013D000A50194010E94A81E462E772E682E592E34
:1013E00069857A858B859C85A70196010E94A81E38
:1013F0004B015C01642D772D862D952D29813A8135
:101400004B815C810E94A81E9B01AC01C501B40107
:101410000E94E41BEB89FC89608771878287938730
:101420008F01045F1F4F6D857E858F859889A70189
:1014300096010E94A81EEB89FC89648775878687C0
:10144000978769857A858B859C8529813A814B812F
:101450005C810E94A81EA70196010E94A81E9B0104
:10146000AC01642D772D862D952D0E94E41BF8018B
:1014700064837583868397836D817E818F81988550
:1014800029813A814B815C810E94A81EA7019601A7
:101490000E94A81ED101C9888A882B2F3A2F4C2D73
:1014A000582D0E94E31BF80160877187828793871C
:1014B0000B891C89085E1F4F89819A81AB81BC8191
:1014C000B058EB89FC89808F918FA28FB38F6D8587
:1014D0007E858F85988929853A854B855C850E9414
:1014E000A81EF80164837583868397836D817E814E
:1014F0008F8198852D853E854F8558890E94A81E2D
:10150000F801608771878287938764960FB6F89495
:10151000DEBF0FBECDBFCF91DF911F910F91FF9026
:10152000EF90DF90CF90BF90AF909F908F907F9083
:101530006F905F904F903F902F900895DF93CF93DF
:10154000CDB7DEB72C970FB6F894DEBF0FBECDBF78
:1015500080915C0290915D028130910509F040C05C
:1015600060915503709156038091570390915803F1
:1015700021EE3EE245E652E40E94A81E69837A838A
:101580008B839C836091590370915A0380915B0314
:1015900090915C0321EE3EE245E652E40E94A81ED3
:1015A0006D837E838F83988760915D0370915E0366
:1015B00080915F039091600321EE3EE245E652E4A4
:1015C0000E94A81E69877A878B879C878EED94E09E
:1015D000BE016F5F7F4F4CE050E00E94E4195BC09A
:1015E000009709F058C08EED94E060E071E00E9431
:1015F0001F1A609155037091560380915703909183
:10160000580321EE3EE245E652E40E94A81EAB01DB
:10161000BC018EED94E022E030E00E94D11B8EED03
:1016200094E066E071E00E941F1A60915903709186
:101630005A0380915B0390915C0321EE3EE245E604
:1016400052E40E94A81EAB01BC018EED94E022E0A2
:1016500030E00E94D11B8EED94E066E071E00E94C4
:101660001F1A60915D0370915E0380915F039091FA
:10167000600321EE3EE245E652E40E94A81EAB0163
:10168000BC018EED94E022E030E00E94D11B8EED93
:1016900094E00E942A1A2C960FB6F894DEBF0FBE73
:1016A000CDBFCF91DF9108954F925F926F927F925D
:1016B0008F929F92AF92BF92CF92DF92EF92FF9262
:1016C0000F931F93CF93DF93009709F06DC08EEDBA
:1016D00094E068E071E00E941F1A1FE5812E12E07D
:1016E000912ECBE6D2E007E712E0AA24BB24F40156
:1016F000C190D190E190F1904F013E01C701B60138
:10170000288139814A815B810E94C11C87FF04C006
:10171000C882D982EA82FB822801C701B601F8019A
:1017200020813181428153810E949D1E18162CF424
:10173000F801C082D182E282F3822496F3014081D3
:101740005181628173818EED94E022E030E00E944D
:10175000D11B8EED94E061E271E00E941F1A0C5FD4
:101760001F4FF20140815181628173818EED94E0BF
:1017700022E030E00E94D11BF2E0AF16B10439F054
:101780008EED94E063E271E00E941F1A04C08EEDBA
:1017900094E00E942A1A0894A11CB11C83E0A816A8
:1017A000B10409F0A4CF1DC18130910509F06DC0CD
:1017B0008EED94E066E271E00E941F1AB3E88B2E72
:1017C000B2E09B2ECFE8D2E00BE912E0AA24BB24C2
:1017D000F401C190D190E190F1904F013E01C70119
:1017E000B601288139814A815B810E94C11C87FF33
:1017F00004C0C882D982EA82FB822801C701B601EF
:10180000F80120813181428153810E949D1E18166A
:101810002CF4F801C082D182E282F3822496F30193
:1018200040815181628173818EED94E022E030E04D
:101830000E94D11B8EED94E061E271E00E941F1ABC
:101840000C5F1F4FF20140815181628173818EEDE7
:1018500094E022E030E00E94D11BF2E0AF16B10428
:1018600039F08EED94E063E271E00E941F1A04C02B
:101870008EED94E00E942A1A0894A11CB11C83E00A
:10188000A816B10409F0A4CFACC08230910509F0CC
:10189000A8C06091BF027091C0028091C102909176
:1018A000C2022091B3023091B4024091B50250912E
:1018B000B6020E94E41B6093BF027093C002809343
:1018C000C1029093C2026091C3027091C4028091E0
:1018D000C5029091C6022091B7023091B8024091A2
:1018E000B9025091BA020E94E41B6093C302709344
:1018F000C4028093C5029093C6026091C7027091A2
:10190000C8028091C9029091CA022091BB02309115
:10191000BC024091BD025091BE020E94E41B609344
:10192000C7027093C8028093C9029093CA02809143
:10193000CB029091CC0201969093CC028093CB0283
:101940008EED94E06EE371E00E941F1A03EB12E04B
:10195000AFEBCA2EA2E0DA2EC0E0D0E0F801419150
:101960005191619171918F018EED94E022E030E010
:101970000E94D11B8EED94E061E271E00E941F1A7B
:10198000F60181909190A190B1906F016091CB028E
:101990007091CC02882777FD8095982F0E94631D57
:1019A0009B01AC01C501B4010E94C81CAB01BC0184
:1019B0008EED94E022E030E00E94D11BC230D105D0
:1019C00039F08EED94E063E271E00E941F1A04C0CA
:1019D0008EED94E00E942A1A2196C330D10509F0B9
:1019E000BDCFDF91CF911F910F91FF90EF90DF90CE
:1019F000CF90BF90AF909F908F907F906F905F90AF
:101A00004F900895FF920F931F93CF93DF93F82E7B
:101A1000CEEDD4E0CE016EE571E00E941F1ACE013A
:101A20006F2D0E94221ACE016DE30E94221A40916E
:101A30005F02509160026091610270916202CE017A
:101A400022E030E00E94D11B06E011E0CE01B80197
:101A50000E941F1A409163025091640260916502D6
:101A600070916602CE0122E030E00E94D11BCE01CF
:101A7000B8010E941F1A409167025091680260915C
:101A8000690270916A02CE0122E030E00E94D11B0F
:101A9000CE010E942A1ACE0162E671E00E941F1A4E
:101AA000CE016F2D0E94221ACE016DE30E94221AF0
:101AB0004091830250918402609185027091860268
:101AC000CE0122E030E00E94D11BCE01B8010E947D
:101AD0001F1A40918702509188026091890270918B
:101AE0008A02CE0122E030E00E94D11BCE01B80173
:101AF0000E941F1A40918B0250918C0260918D02BE
:101B000070918E02CE0122E030E00E94D11BCE0106
:101B10000E942A1ACE0166E671E00E941F1ACE01C9
:101B20006F2D0E94221ACE016DE30E94221A40916D
:101B3000B3025091B4026091B5027091B602CE0129
:101B400022E030E00E94D11BCE01B8010E941F1A92
:101B50004091B7025091B8026091B9027091BA02F7
:101B6000CE0122E030E00E94D11BCE01B8010E94DC
:101B70001F1A4091BB025091BC026091BD0270914E
:101B8000BE02CE0122E030E00E94D11BCE010E94B5
:101B90002A1ADF91CF911F910F91FF900895CF9353
:101BA000DF93CEEDD4E0CE016FE572E04CE050E083
:101BB0000E94E419CE0163E872E04CE050E00E941C
:101BC000E419CE0163EB72E04CE050E00E94E419AE
:101BD000DF91CF9108958091CC019091CD01833018
:101BE000910559F480915C0290915D0281309105DC
:101BF00021F1009779F582E50FC08230910579F4E3
:101C00000E947E0880915C0290915D028130910576
:101C1000A1F00097F9F483E40E94020D0895843046
:101C20009105C1F480915C0290915D028130910533
:101C300039F40E94CF0D0E947E080E94CF0D0895B6
:101C4000009741F482E50E94020D0E947E0883E421
:101C50000E94020D089585ED93E00E940E140895F0
:101C6000CF93DF93C5EDD3E0CE0163E570E00E9432
:101C70003314CE016DE20E94DE13CE0168E00E94B3
:101C8000DE13CE010E94361465E070E080E090E043
:101C90000E94FC16CE0163E570E00E943314CE0171
:101CA00061E30E94DE13CE0168E00E94DE13CE01E4
:101CB0000E94361465E070E080E090E00E94FC161F
:101CC000CE0163E570E00E943314CE016CE20E9405
:101CD000DE13CE0169E00E94DE13CE010E943614AD
:101CE00065E070E080E090E00E94FC16DF91CF910B
:101CF0000895EF92FF920F931F93DF93CF9300D03D
:101D000000D000D0CDB7DEB785ED93E063E570E09D
:101D10000E94331485ED93E062E30E94DE1385EDAB
:101D200093E00E94361485ED93E063E570E00E9435
:101D3000331485ED93E063E570E046E050E00E94E7
:101D400026147E010894E11CF11C00E010E009C09B
:101D500085ED93E00E948713F70181937F010F5F68
:101D60001F4F85ED93E00E947E13009789F785ED64
:101D700093E00E94361406301105E9F59C8180E05D
:101D80006B8170E0682B792B882777FD8095982FE1
:101D90000E94631D60935F027093600280936102F2
:101DA000909362029A8180E0698170E0682B792BC0
:101DB000882777FD8095982F0E94631D60936302AA
:101DC0007093640280936502909366029E8180E026
:101DD0006D8170E0682B792B882777FD8095982F8F
:101DE0000E94631D6093670270936802809369028A
:101DF00090936A0213C080917103909172030196CF
:101E0000909372038093710380915E02882331F076
:101E10008EED94E06AE671E00E943F1A26960FB6B6
:101E2000F894DEBF0FBECDBFCF91DF911F910F9110
:101E3000FF90EF900895CF93DF93C5EDD3E0CE01EF
:101E40006EE170E00E943314CE0162E00E94DE1366
:101E5000CE0160E00E94DE13CE010E94361465E0E0
:101E600070E080E090E00E94FC16CE016EE170E030
:101E70000E943314CE0160E00E94DE13CE0168E1BF
:101E80000E94DE13CE010E94361465E070E080E00F
:101E900090E00E94FC16DF91CF910895EF92FF929F
:101EA0000F931F93DF93CF9300D000D000D0CDB716
:101EB000DEB785ED93E06EE170E00E94331485EDAE
:101EC00093E063E00E94DE1385ED93E00E943614F8
:101ED00085ED93E06EE170E00E94331485ED93E0B0
:101EE0006EE170E046E050E00E9426147E01089406
:101EF000E11CF11C00E010E009C085ED93E00E94B8
:101F00008713F70181937F010F5F1F4F85ED93E0EA
:101F10000E947E13009789F785ED93E00E943614A6
:101F20000630110509F046C09D8180E06E8170E0A9
:101F3000682B792B709561957F4F882777FD809569
:101F4000982F0E94631D6093830270938402809394
:101F5000850290938602998180E06A8170E0682B07
:101F6000792B709561957F4F882777FD8095982F05
:101F70000E94631D60938702709388028093890298
:101F800090938A029B8180E06C8170E0682B792BB2
:101F9000709561957F4F882777FD8095982F0E94D7
:101FA000631D60938B0270938C0280938D029093DB
:101FB0008E0213C0809173039091740301969093E5
:101FC00074038093730380915E02882331F08EED59
:101FD00094E066E871E00E943F1A26960FB6F894E6
:101FE000DEBF0FBECDBFCF91DF911F910F91FF904C
:101FF000EF900895CF93DF93C5EDD3E0CE0168E66F
:1020000070E00E943314CE016EE30E94DE13CE0115
:1020100060E80E94DE13CE010E94361465E070E095
:1020200080E090E00E94FC16CE0168E670E00E941D
:102030003314CE0166E10E94DE13CE016BE10E94F3
:10204000DE13CE010E94361465E070E080E090E07F
:102050000E94FC16CE0168E670E00E943314CE01A7
:1020600065E10E94DE13CE016AE00E94DE13CE011C
:102070000E94361465E070E080E090E00E94FC165B
:10208000CE0168E670E00E943314CE016EE30E9438
:10209000DE13CE0160E00E94DE13CE010E943614F2
:1020A00065E070E080E090E00E94FC16DF91CF9147
:1020B0000895EF92FF920F931F93DF93CF9300D079
:1020C00000D000D0CDB7DEB785ED93E068E670E0D4
:1020D0000E94331485ED93E06DE10E94DE1385EDDF
:1020E00093E00E94361485ED93E068E670E00E946C
:1020F000331485ED93E068E670E046E050E00E941E
:1021000026147E010894E11CF11C00E010E009C0D7
:1021100085ED93E00E948713F70181937F010F5FA4
:102120001F4F85ED93E00E947E13009789F785EDA0
:1021300093E00E9436140630110509F046C09B81D9
:1021400080E06C8170E0682B792B709561957F4FF2
:10215000882777FD8095982F0E94631D6093B302B6
:102160007093B4028093B5029093B602998180E097
:102170006A8170E0682B792B709561957F4F882775
:1021800077FD8095982F0E94631D6093B70270932E
:10219000B8028093B9029093BA029D8180E06E816B
:1021A00070E0682B792B709561957F4F882777FDBC
:1021B0008095982F0E94631D6093BB027093BC02B0
:1021C0008093BD029093BE0213C0809175039091DD
:1021D00076030196909376038093750380915E0257
:1021E000882331F08EED94E061EA71E00E943F1A9D
:1021F00026960FB6F894DEBF0FBECDBFCF91DF910C
:102200001F910F91FF90EF9008950E9459100E9426
:10221000790E0E944E0F08951F93DF93CF9300D045
:10222000CDB7DEB78EED94E00E94E71782309105BE
:102230000CF4DBC08EED94E00E94161883329105F9
:1022400009F0D3C08EED94E00E94161886369105F1
:1022500021F481E080936E03C8C083379105D1F4E7
:102260000E944E0189830E944E018A838EED94E084
:1022700069EB71E00E941F1A8EED94E0BE016F5F62
:102280007F4F42E050E00E94E4198EED94E00E94FE
:102290002A1AABC08F36910509F0A7C00E944E01E3
:1022A0008E3671F480916F0390917003019663E014
:1022B00070E00E946B1F9093700380936F0318C0AF
:1022C000843739F481E090E09093CD018093CC0184
:1022D0002EC0823639F481E090E09093CD01809356
:1022E000CC012FC0833641F41092CD011092CC0165
:1022F00081E08093160279C0833741F50E944E0138
:10230000182F0E944E01123719F423E030E009C063
:10231000133619F422E030E004C0123631F424E020
:1023200030E03093CD012093CC01843729F4109212
:102330005D0210925C0259C0823609F056C081E0FD
:1023400090E090935D0280935C024FC0803319F45B
:102350000E944701CDCF813331F481E08093160292
:102360000E943F0142C0853609F03FC00E944E01E5
:10237000803319F410925E0238C0813321F481E079
:1023800080935E0232C0833681F58EED94E060EC7E
:1023900071E00E941F1A60917103709172038EEDBB
:1023A00094E04AE050E00E94F61A8EED94E066E078
:1023B00071E00E941F1A60917303709174038EED97
:1023C00094E04AE050E00E94F61A8EED94E066E058
:1023D00071E00E941F1A60917503709176038EED73
:1023E00094E04AE050E00E94001B0E94C816209131
:1023F0006103309162034091630350916403621B57
:10240000730B840B950B643171058105910508F4FC
:102410007EC0209365033093660340936703509317
:1024200068030E94C81660936103709362038093EF
:102430006303909364032091650330916603409198
:102440006703509168032617370748075907A8F410
:10245000621B730B840B950B0E94611D20E030E022
:102460004AE754E40E94C81C6093690370936A03AE
:1024700080936B0390936C030BC080E090E0DC01D1
:102480008093690390936A03A0936B03B0936C03EA
:102490000E9405118091CC019091CD01009789F4A3
:1024A0000E94D10080916D03882321F480916E03F6
:1024B000882359F180916F03909170030E94540B0F
:1024C00024C081309105B9F40E947E080E945A010F
:1024D0000E9475060E943B050E94A9030E943202D9
:1024E00080916D03882321F480916E03882369F025
:1024F0000E949E0A0AC080916D03882321F4809176
:102500006E03882311F00E94EB0D10926E030F9062
:102510000F90CF91DF911F910895AF92BF92CF920C
:10252000DF92EF92FF920F931F93DF93CF93CDB77C
:10253000DEB7A4970FB6F894DEBF0FBECDBF80E024
:1025400090E0A0E8BFE3898F9A8FAB8FBC8F80E0CB
:1025500090E0DC018D8F9E8FAF8FB8A389A39AA3E3
:10256000ABA3BCA30E9405110E94C816609361032F
:1025700070936203809363039093640320916302DA
:10258000309164024091650250916602E0906702CA
:10259000F09068020091690210916A02CA01B901C3
:1025A0000E94A81E5B016C01C801B701A801970138
:1025B0000E94A81E9B01AC01C601B5010E94E41B4C
:1025C0000E94151F9B01AC0183E6E82E82E0F82EE5
:1025D000F70192918291729162917F010E946E1C2B
:1025E00090586093590370935A0380935B039093C0
:1025F0005C0309E1C02ED12CCC0EDD1E8E010F5FD5
:102600001F4FC801B701A6010E94BD02CE010D9661
:10261000B601A8010E94BD0269897A898B899C89CB
:102620002D893E894F89588D0E946E1C60935D03F1
:1026300070935E0380935F03909360030E945A013E
:102640004091CD025091CE026091CF027091D002A4
:102650004093550350935603609357037093580368
:102660000091590310915A0320915B0330915C0350
:10267000C0905D03D0905E03E0905F03F090600334
:102680008EEC91E00E945F09A4960FB6F894DEBF2D
:102690000FBECDBFCF91DF911F910F91FF90EF90B3
:1026A000DF90CF90BF90AF9008958EED94E040E022
:1026B00051EE60E070E00E9418198DE061E00E9428
:1026C0008B178DE060E00E94AF1762E370E080E05E
:1026D00090E00E94FC160E942B0E0E94300E0E9479
:1026E0001B0F0E94FA0F64E170E080E090E00E940E
:1026F000FC160E948D120E94470108952091B0039C
:1027000030E08091AF03281B3109C9010895809101
:10271000AF039091B003891750F4E82FF0E0E15730
:10272000FC4F208130E08F5F8093AF0302C02FEF1A
:102730003FEFC9010895E091AF038091B003E8171E
:1027400030F4F0E0E157FC4F208130E002C02FEF81
:102750003FEFC90108950895CF92DF92EF92FF9263
:102760000F931F93CF93DF936C01CB01EA0120916C
:10277000D4032223B1F0E62EF92E00E010E00DC0C4
:10278000D7016D917D01D601ED91FC910190F08111
:10279000E02DC60109950F5F1F4F0C171D0780F331
:1027A00003C0642F0E94EC14CE01DF91CF911F91E2
:1027B0000F91FF90EF90DF90CF900895DF93CF932C
:1027C0000F92CDB7DEB769832091D4032223D1F0D5
:1027D0002091D303203240F021E030E0FC0133832C
:1027E000228320E030E015C08091D203E82FF0E092
:1027F000EE54FC4F998190838F5F8093D203809336
:10280000D30305C0CE01019661E00E94EC1421E0E3
:1028100030E0C9010F90CF91DF9108951092AF037E
:102820001092B0031092D2031092D3030E945D1451
:102830000895862F413208F040E26FE873E00E946D
:1028400076141092AF038093B00308950E94191478
:10285000089581E08093D4036093B1031092D20372
:102860001092D30308950E94291408958091B10312
:1028700062EB73E04091D30321E00E94AC1410920C
:10288000D2031092D3031092D40308951092D80368
:102890001092D70388EE93E0A0E0B0E08093D903D4
:1028A0009093DA03A093DB03B093DC038FE392E011
:1028B0009093D6038093D50308951092050482E186
:1028C00061E00E94AF1783E161E00E94AF17E9EB7E
:1028D000F0E080818E7F808380818D7F808380E2A5
:1028E0008093B80085E48093BC000895413288F558
:1028F000909105049923E1F791E0909305049FEFEF
:10290000909304041092E203942F91509093E30368
:10291000880F81608093E10385EE8093BC008091F5
:1029200005048130E1F38091E203841710F44091B3
:10293000E203E4EEF3E0262F372FD901242F30E015
:102940002E0F3F1F02C081918D93E217F307D9F735
:1029500001C040E0842F08954132B0F59091050404
:102960009923E1F792E0909305049FEF909304047C
:102970001092E2034093E303DB01E4EEF3E050E066
:102980004E0F5F1F02C09D919193E417F507D9F791
:1029900090E0880F991F8093E10385EE8093BC003F
:1029A000222321F0809105048230E1F38091040418
:1029B0008F3F61F080910404803251F080910404D3
:1029C000803341F483E0089581E0089580E0089524
:1029D00082E0089584E008956132A0F42091050416
:1029E000243091F460932A04DC01EDE2F4E070E01D
:1029F0006E0F7F1F02C08D918193E617F707D9F7FD
:102A000080E0089581E0089582E00895882311F020
:102A100085EC01C085E88093BC00089585ED809326
:102A2000BC008091BC0084FDFCCF10920504089589
:102A300085EC8093BC001092050408951F920F92BC
:102A40000FB60F9211242F933F934F935F936F9381
:102A50007F938F939F93AF93BF93EF93FF93809157
:102A6000B90090E0887F90708036910509F4C2C06B
:102A700081369105E4F58832910509F47EC08932EA
:102A80009105C4F48031910509F472C0813191053A
:102A900044F4009709F413C18830910509F013C17B
:102AA00067C08831910509F468C08032910509F04A
:102AB0000AC178C08034910509F48AC08134910537
:102AC0004CF48033910509F46FC08833910509F007
:102AD000FAC06EC08035910509F46EC08835910545
:102AE00009F47BC08834910509F0EDC0EAC088394B
:102AF000910509F4DAC089399105ECF4883791051C
:102B000009F478C0893791054CF48836910509F4A9
:102B100071C08037910509F0D6C06CC08838910526
:102B200009F4C3C08039910509F46AC08038910561
:102B300009F0C9C065C0803B910509F48EC0813B96
:102B400091054CF4803A910509F46CC0883A9105DE
:102B500009F0B9C082C0803C910509F4AAC0883C44
:102B6000910509F4A6C0883B910509F0ACC08AC064
:102B70008091E1038093BB0013C09091E2038091A8
:102B8000E303981708F09DC08091E203E82FF0E07E
:102B9000EC51FC4F90819093BB008F5F8093E203D8
:102BA00081E084C080E201C080E38093040489C096
:102BB00088E3809304044EC08091E2039091BB00AF
:102BC000E82FF0E0EC51FC4F90838F5F8093E2039D
:102BD0009091E2038091E30365C08091E2039091BC
:102BE000BB00E82FF0E0EC51FC4F90838F5F8093A7
:102BF000E20367C083E08093050410920604D0CFFF
:102C000080910604803208F050C0809106049091B3
:102C1000BB00E82FF0E0E95FFB4F90838F5F80936C
:102C20000604BECF80910604803230F4E0910604A1
:102C3000F0E0E95FFB4F10820E940E1560910604E0
:102C4000E0912704F091280487E094E070E0099572
:102C5000109206040E94181536C084E08093050483
:102C60001092290410922A04E0912B04F0912C0474
:102C7000099580912A04882329F481E080932A040D
:102C800010922D0480912904E82FF0E0E35DFB4FC2
:102C900090819093BB008F5F8093290490912904C9
:102CA00080912A04981708F47BCF80E00E940615D3
:102CB0000AC081E00E9406151092050404C010921B
:102CC00004040E940E15FF91EF91BF91AF919F9167
:102CD0008F917F916F915F914F913F912F910F90C5
:102CE0000FBE0F901F9018951F920F920FB60F9264
:102CF00011242F933F934F935F936F937F938F9301
:102D00009F93AF93BF93209151043091520440910F
:102D100053045091540470915504DA01C90102968C
:102D2000A11DB11D672F6A5F6D3730F06D57DA0155
:102D3000C9010396A11DB11D6093550480935104F0
:102D400090935204A0935304B093540480914D0483
:102D500090914E04A0914F04B09150040196A11D92
:102D6000B11D80934D0490934E04A0934F04B093F3
:102D70005004BF91AF919F918F917F916F915F911F
:102D80004F913F912F910F900FBE0F901F9018956C
:102D90008FB7F8942091510430915204409153041C
:102DA000509154048FBFB901CA0108959FB7F89498
:102DB00020914D0430914E0440914F0450915004A5
:102DC00086B5A89B06C08F3F21F02F5F3F4F4F4F26
:102DD0005F4F9FBF542F432F322F2227280F311DC3
:102DE000411D511D83E0220F331F441F551F8A953B
:102DF000D1F7B901CA010895EF92FF920F931F9383
:102E0000CF93DF937B018C010E94D616EB010FC09C
:102E10000E94D6166C1B7D0B83E0683E780738F065
:102E20000894E108F10801091109C851DC4FE114C7
:102E3000F1040105110561F7DF91CF911F910F9109
:102E4000FF90EF900895789484B5826084BD84B536
:102E5000816084BD85B5826085BD85B5816085BD95
:102E6000EEE6F0E0808181608083E1E8F0E01082AE
:102E7000808182608083808181608083E0E8F0E0EF
:102E8000808181608083E1EBF0E0808184608083D9
:102E9000E0EBF0E0808181608083EAE7F0E0808110
:102EA0008460808380818260808380818160808370
:102EB0008081806880831092C1000895833071F012
:102EC000843028F48130A1F0823021F514C086309E
:102ED000B1F08730D1F08430E9F404C080918000F3
:102EE0008F7703C0809180008F7D8093800008954C
:102EF00084B58F7702C084B58F7D84BD089580919D
:102F0000B0008F778093B00008958091B0008F7DDE
:102F10008093B000089590E0FC01EF5DFE4F249196
:102F2000FC01E35FFE4FE491EE23C1F0F0E0EE0F11
:102F3000FF1FE151FF4F85919491DC01662341F41D
:102F40009FB7F8948C91209582238C939FBF08950E
:102F50009FB7F8948C91822B8C939FBF08950F9309
:102F60001F93DF93CF930F92CDB7DEB7282F30E0BA
:102F7000F901EB5CFE4F8491F901EF5DFE4F149176
:102F8000235F3E4FF90104910023D9F0882321F0FB
:102F900069830E945E176981E02FF0E0EE0FFF1F4A
:102FA000E750FF4F85919491DC019FB7F894662319
:102FB00021F48C911095812302C08C91812B8C93EC
:102FC0009FBF0F90CF91DF911F910F910895FC014A
:102FD00084859585FC01E05CFF4F208131818E5B0B
:102FE0009F4FFC0180819181281B390B2F7330701A
:102FF000C9010895FC0184859585FC01E05CFF4FC3
:1030000040815181FC01EE5BFF4F208131814217ED
:10301000530741F00190F081E02DE80FF91F208166
:1030200030E002C02FEF3FEFC9010895FC01848515
:103030009585FC01E05CFF4F40815181FC01EE5B16
:10304000FF4F208131814217530771F0A081B18178
:10305000A80FB91F2C918081918101968F73907078
:103060009183808330E002C02FEF3FEFC9010895C4
:10307000DC011E968D919C911F97FC01E05CFF4F37
:103080008E5B9F4F40815181DC012D913C911197C6
:1030900042175307B9F708951F93FC01162F268591
:1030A0003785D901A05CBF4F8D919C91019660E45A
:1030B00070E00E946B1FD901AE5BBF4F4D915C91D8
:1030C000119784179507D1F3D901A05CBF4F0D90DC
:1030D000BC91A02DA20FB31F1C93A685B785A05C41
:1030E000BF4F11969C938E93A689B7892C9181E04E
:1030F00090E0058C02C0880F991F0A94E2F7282BF4
:103100002C9381E090E01F910895FB01E05CFF4F5C
:10311000208131812F5F3F4F2F733070DB01AE5B19
:10312000BF4F4D915C9111972417350739F0A0815D
:10313000B181A60FB71F8C93318320830895089522
:103140001F920F920FB60F9211242F933F934F931C
:103150005F936F937F938F939F93AF93BF93EF93FF
:10316000FF938091C60066E574E00E948518FF9188
:10317000EF91BF91AF919F918F917F916F915F91EF
:103180004F913F912F910F900FBE0F901F90189568
:103190008EED94E00E94E717009711F00E949F18AF
:1031A00008951F920F920FB60F9211242F933F9301
:1031B0005F936F937F938F939F93AF93BF93EF939F
:1031C000FF932091DA043091DB048091DC0490912C
:1031D000DD042817390731F48091C1008F7D809379
:1031E000C10016C0E091DC04F091DD04E656FB4F0F
:1031F00020818091DC049091DD04019660E470E010
:103200000E946B1F9093DD048093DC042093C60022
:10321000FF91EF91BF91AF919F918F917F916F91AE
:103220005F913F912F910F900FBE0F901F901895B7
:103230009F92AF92BF92CF92DF92EF92FF920F9345
:103240001F93CF93DF93EC017A018B019924939420
:10325000EC89FD8981E090E00E8C02C0880F991FF7
:103260000A94E2F7808360E874E88EE190E0A801B8
:1032700097010E947E1F215030404040504056959B
:1032800047953795279590E4A92E92E4B92E9FE0B3
:10329000C92ED12C12C09924EC89FD891082C60157
:1032A000B501A80197010E947E1F21503040404087
:1032B0005040569547953795279580E1203038073F
:1032C00010F0992041F7E889F9893083EA89FB8970
:1032D0002083EE89FF89408181E090E09C010A8C87
:1032E00002C0220F331F0A94E2F7422B4083EE897B
:1032F000FF8940819C010B8C02C0220F331F0A946E
:10330000E2F7422B4083EE89FF8940819C010C8CBF
:1033100002C0220F331F0A94E2F7422B4083EE894A
:10332000FF8920810D8C02C0880F991F0A94E2F753
:10333000809582238083DF91CF911F910F91FF9021
:10334000EF90DF90CF90BF90AF909F900895109234
:10335000E1041092E00488EE93E0A0E0B0E08093F6
:10336000E2049093E304A093E404B093E504E0EE58
:10337000F4E08FE492E09293829386E594E095875F
:1033800084878AE994E09787868785EC90E0918B23
:10339000808B84EC90E0938B828B80EC90E0958B1B
:1033A000848B81EC90E0978B868B86EC90E0918FFC
:1033B000808F84E0828F83E0838F87E0848F85E035
:1033C000858F81E0868F0895CF92DF92EF92FF92F2
:1033D0000F931F93CF93DF936C017B018A01C0E0B1
:1033E000D0E00FC0D7016D917D01D601ED91FC9128
:1033F0000190F081E02DC6010995C80FD91F015039
:1034000010400115110571F7CE01DF91CF911F9189
:103410000F91FF90EF90DF90CF900895DB010D901A
:103420000020E9F7AD0141505040461B570BDC012D
:10343000ED91FC910280F381E02D099508950E94A1
:103440000E1A0895DC01ED91FC910190F081E02DC0
:10345000099508950F931F93CF93DF93EC016DE0CF
:103460000E94221A8C01CE016AE00E94221A080FE3
:10347000191FC801DF91CF911F910F9108950F93EC
:103480001F93CF93DF93EC010E940E1A8C01CE01A3
:103490000E942A1A080F191FC801DF91CF911F91AE
:1034A0000F9108958F929F92AF92BF92CF92DF9229
:1034B000EF92FF920F931F93DF93CF93CDB7DEB7B9
:1034C000A1970FB6F894DEBF0FBECDBF6C01042FDD
:1034D000E52FCB01122F19A2223008F41AE021E2C5
:1034E000E22EF12CEC0EFD1E812E9924AA24BB2481
:1034F00003C0022FE32FCA01602F7E2FA501940184
:103500000E947E1F129F802D1124081B0894E10841
:10351000F1080A3014F4005D01C0095CF701008372
:10352000211531054105510521F7C601B7010E945A
:103530000E1AA1960FB6F894DEBF0FBECDBFCF9185
:10354000DF911F910F91FF90EF90DF90CF90BF9090
:10355000AF909F908F9008952115310549F4DC01BB
:10356000ED91FC910190F081E02D642F0995089573
:103570000E94521A0895CF92DF92EF92FF920F931A
:103580001F93CF93DF93EC017A018B012115310555
:1035900041F4E881F9810190F081E02D642F0995D3
:1035A0001AC02A303105A9F477FF12C06DE20E94DB
:1035B000221A6C0144275527BA014E195F09600B86
:1035C000710BCE012AE00E94521AC80ED91E04C007
:1035D0002AE00E94521A6C01C601DF91CF911F911F
:1035E0000F91FF90EF90DF90CF9008959A01FB012B
:1035F000AF01662757FD6095762F0E94BB1A08958C
:103600000F931F93CF93DF93EC019A01CB01AC0191
:10361000662757FD6095762FCE010E94BB1A8C015C
:10362000CE010E942A1A080F191FC801DF91CF91FD
:103630001F910F9108956F927F929F92AF92BF92C8
:10364000CF92DF92EF92FF920F931F93CF93DF936E
:103650003C017A018B01C22ECB01BA0120E030E09F
:10366000A9010E94C11C87FF0AC0C3016DE20E942C
:10367000221AEC0117FB109517F9109502C0C0E053
:10368000D0E0DD2450E040E030E02FE311C0DA016B
:10369000F9016B2F742F8F2F922F20E030E040E242
:1036A00051E40E94C81C562F472F382F292FD3943E
:1036B000DC1468F3C801B701DA01F9012B2F342FAC
:1036C0004F2F5E2F0E94E41B5B01F82E992E7B2D5D
:1036D0000E94351D162FD72EE82E092F0E94611D3E
:1036E0009B01AC016A2D7B2D8F2D992D0E94E31B30
:1036F000962EA72EB82EF92EC301412F5D2D6E2DCB
:10370000702F2AE030E00E94AC1AC80FD91FCC20DD
:10371000B9F1C3016AEC71E00E940E1AC80FD91FFB
:103720002FC0692D7A2D8B2D9F2D20E030E040E2B7
:1037300051E40E94A81ED62EB72EA82E992E0E94C4
:10374000301D7B010027F7FC0095102FC301B80145
:10375000A7012AE030E00E94BB1AC80FD91FC80198
:10376000B7010E94631D9B01AC016D2D7B2D8A2D3D
:10377000992D0E94E31B962EA72EB82EF92ECA94DF
:10378000CC2079F6CE01DF91CF911F910F91FF9060
:10379000EF90DF90CF90BF90AF909F907F906F9011
:1037A00008950E941B1B0895CF93DF930E94231757
:1037B0000E945513C8ECD8E10E940C112097E1F348
:1037C0000E94C818F9CF5058BB27AA270ED06AC24A
:1037D00033D230F038D220F031F49F3F11F41EF490
:1037E000F2C10EF4E095E7FBE8C1E92F7DD280F34A
:1037F000BA17620773078407950718F071F49EF5EE
:1038000095C20EF4E0950B2EBA2FA02D0B01B90135
:1038100090010C01CA01A0011124FF27591B99F046
:10382000593F50F4503E68F11A16F040A22F232F52
:10383000342F4427585FF3CF469537952795A795A2
:10384000F0405395C9F77EF41F16BA0B620B730B49
:10385000840BBAF09150A1F0FF0FBB1F661F771FBA
:10386000881FC2F70EC0BA0F621F731F841F48F46F
:10387000879577956795B795F7959E3F08F0B3CFF5
:103880009395880F08F09927EE0F979587950895DF
:103890009F939F77EEE389379E0720F4E8E6F0E0F8
:1038A000BAD109C04BD19058A2EA2AED3FE049ECC9
:1038B0005FE39BDFF7D10F9007FC90580895BCD1D0
:1038C00058F080E891E009F49EEFBDD128F040E87F
:1038D00051E059F45EEF09C076C128C2E92FE078C3
:1038E00003D268F3092E052AC1F3261737074807C4
:1038F000590738F00E2E07F8E02569F0E025E0645E
:103900000AC0EF6307F8009407FADB01B9019D01D3
:10391000DC01CA01AD01EF934AD0C4D10AD05F9156
:10392000552331F02BED3FE049E450FD49EC4CCFFD
:103930000895DF93DD27B92FBF7740E85FE31616C0
:10394000170648075B0710F4D92FFBD19F938F937D
:103950007F936F93A8D2ECE7F0E038D1A3D12F91F9
:103960003F914F915F9100D2DD2349F09058A2EA38
:103970002AED3FE049EC5FE3D0785D2736DFDF9149
:1039800091C1F7D008F481E0089565D1E3959BC11A
:103990000CD088C158D140F04FD130F021F45F3FB6
:1039A00019F00BC15111C3C10EC19ED198F39923D7
:1039B000C9F35523B1F3951B550BBB27AA276217F3
:1039C0007307840738F09F5F5F4F220F331F441F38
:1039D000AA1FA9F333D00E2E3AF0E0E830D0915070
:1039E0005040E695001CCAF729D0FE2F27D0660F5D
:1039F000771F881FBB1F261737074807AB07B0E89C
:103A000009F0BB0B802DBF01FF2793585F4F2AF0B1
:103A10009E3F510568F0D1C08AC15F3FECF3983EEC
:103A2000DCF3869577956795B795F7959F5FC9F70E
:103A3000880F911D9695879597F90895E1E0660F97
:103A4000771F881FBB1F621773078407BA0720F010
:103A5000621B730B840BBA0BEE1F88F7E095089579
:103A600004D06894B11163C1089546D188F09F577E
:103A700090F0B92F9927B751A0F0D1F0660F771FBA
:103A8000881F991F1AF0BA95C9F712C0B13081F09A
:103A90004DD1B1E008954AC1672F782F8827B85FCC
:103AA00039F0B93FCCF3869577956795B395D9F7FB
:103AB0003EF490958095709561957F4F8F4F9F4F05
:103AC0000895E89409C097FB3EF490958095709511
:103AD00061957F4F8F4F9F4F9923A9F0F92F96E95A
:103AE000BB279395F695879577956795B795F111CF
:103AF000F8CFFAF4BB0F11F460FF1BC06F5F7F4F6C
:103B00008F4F9F4F16C0882311F096E911C077237D
:103B100021F09EE8872F762F05C0662371F096E886
:103B2000862F70E060E02AF09A95660F771F881F55
:103B3000DAF7880F9695879597F90895DF93CF93D5
:103B40001F930F938B01EC01E9EAF0E03FD0AAD07C
:103B50009801AE018B01EC0160E070E080E89FE32A
:103B600032DE63D19801AE010F911F91CF91DF91A9
:103B7000FBC0990F0008550FAA0BE0E8FEEF1616E0
:103B80001706E807F907C0F012161306E407F50751
:103B900098F0621B730B840B950B39F40A2661F0C5
:103BA000232B242B252B21F408950A2609F4A14068
:103BB000A6958FEF811D811D089597F99F6780E875
:103BC00070E060E008959FEF80EC0895DF93CF935D
:103BD0001F930F93FF92EF92DF927B018C01689409
:103BE00005C0DA2EEF01C0D0FE01E894A591259121
:103BF000359145915591AEF3EF01F7DDFE01970147
:103C0000A801DA9479F7DF90EF90FF900F911F9160
:103C1000CF91DF9108959F938F937F936F93FF933D
:103C2000EF939B01AC0194D0EF91FF91CFDF2F91E7
:103C30003F914F915F918CC000240A94161617068D
:103C400018060906089500240A941216130614068D
:103C500005060895B8CF50D0E8F3E894E0E0BB271C
:103C60009F57F0F02AED3FE049EC06C0EE0FBB0F86
:103C7000661F771F881F28F0B23A62077307840710
:103C800028F0B25A620B730B840BE3959A9572F786
:103C9000803830F49A95BB0F661F771F881FD2F7C4
:103CA000904806C1092E0394000C11F4882352F0A9
:103CB000BB0F40F4BF2B11F460FF04C06F5F7F4F58
:103CC0008F4F9F4F0895EF93E0FF06C0A2EA2AEDC1
:103CD0003FE049EC5FEB89DDE5DF0F90039401FCE9
:103CE0009058E1EDF0E097CF57FD9058440F551FE5
:103CF00059F05F3F71F04795880F97FB991F61F06E
:103D00009F3F79F087950895121613061406551FE4
:103D1000F2CF4695F1DF08C0161617061806991F50
:103D2000F1CF86957105610508940895E894BB2745
:103D300066277727CB0197F908951BDF08F48FEFEB
:103D400008959B01AC0160E070E080E89FE320CE25
:103D50000BD0A8CF71DF28F076DF18F0952309F09B
:103D60002CCF31CF1124E3CFBFDFA0F3959FD1F348
:103D7000950F50E0551F629FF001729FBB27F00D19
:103D8000B11D639FAA27F00DB11DAA1F649F66276E
:103D9000B00DA11D661F829F2227B00DA11D621FBD
:103DA000739FB00DA11D621F839FA00D611D221F77
:103DB000749F3327A00D611D231F849F600D211D5B
:103DC000822F762F6A2F11249F5750408AF0E1F0FE
:103DD00088234AF0EE0FFF1FBB1F661F771F881F47
:103DE00091505040A9F79E3F510570F0E6CE9FCF0D
:103DF0005F3FECF3983EDCF3869577956795B79532
:103E0000F795E7959F5FC1F7FE2B880F911D96955B
:103E1000879597F908959F931EDF0F9007FCEE5F3B
:103E200052CF11F40EF4CFCE41C066DFD0F3992308
:103E3000D9F3CEF39F57550B87FF46D00024A0E659
:103E400040EA900180585695979528F4805C660F5B
:103E5000771F881F20F026173707480730F4621BAA
:103E6000730B840B202931294A2BA69517940794AC
:103E7000202531254A2758F7660F771F881F20F025
:103E800026173707480730F4620B730B840B200D9D
:103E9000311D411DA09581F7B901842F9158880FDC
:103EA0009695879508959B01AC0152CF9F3F31F0C5
:103EB000915020F4879577956795B795880F911D58
:103EC0009695879597F9089591505040660F771F02
:103ED000881FD2F7089597FB092E07260AD077FD91
:103EE00004D02ED006D000201AF4709561957F4F33
:103EF0000895F6F7909581959F4F0895A1E21A2EA7
:103F0000AA1BBB1BFD010DC0AA1FBB1FEE1FFF1F7D
:103F1000A217B307E407F50720F0A21BB30BE40BCD
:103F2000F50B661F771F881F991F1A9469F7609514
:103F30007095809590959B01AC01BD01CF010895CE
:103F4000AA1BBB1B51E107C0AA1FBB1FA617B707BF
:103F500010F0A61BB70B881F991F5A95A9F78095DB
:103F60009095BC01CD010895EE0FFF1F0590F491CF
:083F7000E02D0994F894FFCF45
:103F7800235950523D002C00616363656C20782CF6
:103F8800792C7A20286D696E2F6D617829203D2063
:103F9800002F002020006D61676E20782C792C7A24
:103FA80020286D696E2F6D617829203D2000677982
:103FB800726F20782C792C7A202863757272656E5E
:103FC800742F6176657261676529203D2000234161
:103FD8002D00234D2D0023472D00214552523A2014
:103FE80072656164696E6720616363656C65726F91
:103FF8006D6574657200214552523A20726561649C
:10400800696E67206D61676E65746F6D6574657242
:1040180000214552523A2072656164696E672067D3
:1040280079726F73636F7065002353594E4348006C
:1040380023414D472D4552523A002E000100000001
:10404800803F0000000000000000000000000000A9
:10405800803F000000000000000000000000000099
:10406800803F000000000000803F0000004000008A
:104078004040000080400000A0400000C040000018
:10408800E04000000041013D60463FDCB900BEC889
:10409800DA95BDDCB900BEA8AB3F3F4EAA893BC844
:1040A800DA95BD4EAA893B2D0A773F00000000DE55
:1040B80013AC137E1387139B13AB13000000004C43
:0C40C80018E419E7171618FA173818004A
:00000001FF
