:100000000C94A7000C94CF000C94CF000C94CF005C
:100010000C94CF000C94CF000C94CF000C94CF0024
:100020000C94CF000C94CF000C94CF000C94CF0014
:100030000C94CF000C94CF000C94CF000C94CF0004
:100040000C94B6150C94CF000C94E2170C94131872
:100050000C94CF000C94CF000C94CF000C94CF00E4
:100060000C9460140C94CF00036EDB363D9A999982
:10007000993DABAAAA2A3E000000803F084AD73B20
:100080003BCE016E84BCBFFDC12F3D6C74319ABD67
:1000900056833DDA3D00C77F11BED9E4BB4C3E918B
:1000A0006BAAAABE000000803F072C7AA5BA6CC5D7
:1000B00090DA3B9365FC8BBC53F810FD3C56928361
:1000C0004DBD879D3AB63DCBC9BF5BBE73DA0FC944
:1000D0003F05A84CCDB2D44EB93836A9020C50B960
:1000E000918688083CA6AAAA2ABE000000803F008C
:1000F000000000240027002A00000000002500283E
:10010000002B000000000023002600290004040446
:1001100004040404040202020202020303030303B0
:10012000030102040810204080010204081020018D
:100130000204081020000000070002010000030470
:10014000060000000000000000008813E9181124D8
:100150001FBECFEFD8E0DEBFCDBF12E0A0E0B1E020
:10016000ECEFFDE302C005900D92A833B107D9F77B
:1001700014E0A8E3B2E001C01D92AD3CB107E1F785
:1001800011E0CEE4D1E004C02297FE010E94F81EE7
:10019000CA34D107C9F70E94161B0C94FC1E0C949C
:1001A000000060913B0270913C0280913D02909171
:1001B0003E022FE632E143E85FE30E94EA1D6093CE
:1001C0003B0270933C0280933D0290933E0260910B
:1001D0003F027091400280914102909142022FE6CD
:1001E00032E143E85FE30E94EA1D60933F027093AF
:1001F00040028093410290934202609143027091C9
:10020000440280914502909146022FE632E143E894
:100210005FE30E94EA1D609343027093440280935F
:1002200045029093460260915F0270916002809156
:100230006102909162022BEA3AEA4AE25EE30E948E
:10024000EA1D60935F027093600280936102909355
:1002500062026091630270916402809165029091E4
:1002600066022BEA3AEA4AE25EE30E94EA1D6093E4
:1002700063027093640280936502909366026091BA
:100280006702709168028091690290916A022BEA7C
:100290003AEA4AE25EE30E94EA1D609367027093C5
:1002A00068028093690290936A020895CF92DF9268
:1002B000EF92FF920F931F93CF93DF9380911602DB
:1002C000882309F458C04BE352E0C3E5D2E097E439
:1002D000C92E92E0D92E6FE572E007E712E08BE6B7
:1002E000E82E82E0F82E23E030E0FA01819191912E
:1002F000A191B191AF0189939993A993B993F60113
:1003000081939193A193B1936F01FB01819191919D
:10031000A191B191BF01F80181939193A193B19300
:100320008F01F70181939193A193B1937F012150A4
:100330003040D9F610929C0210929B0280E090E02F
:10034000DC018093970290939802A0939902B09356
:100350009A028093930290939402A0939502B09393
:10036000960280938F0290939002A0939102B09393
:10037000920210921602DF91CF911F910F91FF9080
:10038000EF90DF90CF90089581E080933D038DE062
:1003900061E00E94F116089510923D038DE060E047
:1003A0000E94F11608958EEA94E00E94291718160B
:1003B0001906CCF78EEA94E00E94581708952F9200
:1003C0003F924F925F926F927F928F929F92AF92E5
:1003D000BF92CF92DF92EF92FF920F931F93DF9322
:1003E000CF93CDB7DEB72C970FB6F894DEBF0FBE14
:1003F000CDBFE0902D03F0902E0300912F031091BC
:100400003003C801B7010E94071C69877A878B8770
:100410009C87C801B7010E944D1E5B016C01E090F2
:100420002903F0902A0300912B0310912C03C8019B
:10043000B7010E94071C69837A838B839C83C80160
:10044000B7010E944D1E1B012C01E0906302F09049
:1004500064020091650210916602609067027090DC
:1004600068028090690290906A02C801B7012985EC
:100470003A854B855C850E94EA1D6D837E838F8360
:100480009887C401B301A60195010E94EA1D9B0152
:10049000AC016D817E818F8198850E94251B9B0117
:1004A000AC0150582D833E834F83588769817A81F0
:1004B0008B819C8120915F023091600240916102AA
:1004C000509162020E94EA1D69837A838B839C8328
:1004D000C801B701A60195010E94EA1DA201910180
:1004E0000E94EA1D9B01AC0169817A818B819C810C
:1004F0000E94261B7B018C01C401B30129853A852A
:100500004B855C850E94EA1DA20191010E94EA1DB3
:100510009B01AC01C801B7010E94261B9B01AC01E5
:100520006D817E818F8198850E94B01B60939D02B2
:1005300070939E0280939F029093A0022C960FB618
:10054000F894DEBF0FBECDBFCF91DF911F910F9109
:10055000FF90EF90DF90CF90BF90AF909F908F90E3
:100560007F906F905F904F903F902F900895609193
:10057000E6017091E7018091E8019091E9010E9404
:100580008A1B90586093290370932A0380932B034E
:1005900090932C036091EA017091EB018091EC0142
:1005A0009091ED012091EE013091EF014091F00129
:1005B0005091F1010E94B01B60932D0370932E03A4
:1005C00080932F03909330036091DA017091DB01E7
:1005D0008091DC019091DD012091CE013091CF011D
:1005E0004091D0015091D1010E94B01B609325032E
:1005F0007093260380932703909328030895AF9266
:10060000BF92CF92DF92EF92FF920F931F93CF93FF
:10061000DF93C82ED92EA62EB72EC3E0D0E010E06F
:1006200000E0FF24EE24F601619171918191919196
:100630006F01F50121913191419151915F010E942A
:10064000EA1D9B01AC01D801F7016B2F702F8F2F92
:100650009E2D0E94261B162F072FF82EE92E21977C
:1006600011F7A8019701652F742F832F922FDF9127
:10067000CF911F910F91FF90EF90DF90CF90BF909F
:10068000AF900895AF92BF92CF92DF92EF92FF9218
:100690000F931F93CF93DF937C01EB018A016C8151
:1006A0007D818E819F81FA01208531854285538528
:1006B0000E94EA1D5B016C01688579858A859B85AE
:1006C000F80124813581468157810E94EA1D9B01F2
:1006D000AC01C601B5010E94251BF701608371833F
:1006E00082839383688579858A859B85F80120813B
:1006F0003181428153810E94EA1D5B016C01688156
:1007000079818A819B81F8012085318542855385D5
:100710000E94EA1D9B01AC01C601B5010E94251B88
:10072000F7016483758386839783688179818A81E1
:100730009B81F80124813581468157810E94EA1D01
:100740005B016C016C817D818E819F81F80120812C
:100750003181428153810E94EA1D9B01AC01C60197
:10076000B5010E94251BF7016087718782879387F7
:10077000DF91CF911F910F91FF90EF90DF90CF907D
:10078000BF90AF900895CF92DF92EF92FF920F93B8
:100790001F93CF93DF936C01EB0179018A0168818C
:1007A00079818A819B810E94EA1DF60160837183B1
:1007B000828393836C817D818E819F81A8019701C3
:1007C0000E94EA1DF601648375838683978368859A
:1007D00079858A859B85A80197010E94EA1DF6010B
:1007E0006087718782879387DF91CF911F910F91E7
:1007F000FF90EF90DF90CF900895CF92DF92EF922D
:10080000FF920F931F93CF93DF93062F172FE42EA2
:10081000F52EC82ED92EC0E0D0E0F801619171917B
:10082000819191918F01F7012191319141915191E4
:100830007F010E94261BF60161937193819391932E
:100840006F012196C330D10541F7DF91CF911F9100
:100850000F91FF90EF90DF90CF9008956F927F926D
:100860008F929F92AF92BF92CF92DF92EF92FF92C0
:100870000F931F932091A1023091A2024091A302F5
:100880005091A402E090A502F090A6020091A70268
:100890001091A802A090A902B090AA02C090AB0249
:1008A000D090AC02CA01B9010E94EA1D3B014C0183
:1008B000C801B701A80197010E94EA1D9B01AC0184
:1008C000C401B3010E94261B7B018C01C601B50146
:1008D000A60195010E94EA1D9B01AC01C801B70168
:1008E0000E94261B0E94571E20E030E040E85BE398
:1008F0000E94EA1D9B01AC0160E070E080E89FE38C
:100900000E94251BF62E072F182FE92E20E030E03D
:10091000A9010E94DF1D1816D4F46F2D702F812FAE
:100920009E2D2F2D302F412F5E2D0E94261B9B01C7
:10093000AC0160E070E080E89FE30E94251B20E0AE
:1009400030E0A9010E94031C87FF19C075C06F2DFC
:10095000702F812F9E2D2F2D302F412F5E2D0E9425
:10096000261B20E030E040E85FE30E94261B20E0E9
:1009700030E0A9010E94031C87FF1DC05DC06F2DE0
:10098000702F812F9E2D2F2D302F412F5E2D0E94F5
:10099000261B9B01AC0160E070E080E89FE30E94B1
:1009A000251B20E030E040E85FE30E94DF1D1816C1
:1009B0000CF447C019C06F2D702F812F9E2D2F2D45
:1009C000302F412F5E2D0E94261B20E030E040E8B2
:1009D0005FE30E94261B20E030E040E85FE30E94D6
:1009E000DF1D181674F113C06F2D702F812F9E2DEF
:1009F0002F2D302F412F5E2D0E94261B9B01AC0115
:100A000060E070E080E89FE30E94251B10C06F2D1E
:100A1000702F812F9E2D2F2D302F412F5E2D0E9464
:100A2000261B20E030E040E85FE30E94261BF62E04
:100A3000072F182FE92E0AC0FF2400E010E0EE2453
:100A400005C0FF2400E010E82FE3E22E89EE92E0DB
:100A500061EA72E046EE51E00E9442036F2D702F72
:100A6000812F9E2D2AE037ED43EA5CE30E94EA1DC8
:100A70009B01AC0185EC92E069EE72E00E94C30339
:100A80006F2D702F812F9E2D2CEA35EC47EA57E30E
:100A90000E94EA1D9B01AC0187E493E069EE72E0DD
:100AA0000E94C30381ED92E0BC0147E453E00E9441
:100AB000FD03E0909D02F0909E0200919F02109134
:100AC000A002C801B7010E94071C5B016C01C801AC
:100AD000B7010E944D1E2091CE013091CF0140916F
:100AE000D0015091D1010E94EA1D7B018C01C60109
:100AF000B5012091DA013091DB014091DC01509188
:100B0000DD010E94EA1D9B01AC01C801B7010E94F2
:100B1000251B9B01AC0185EF92E066EE71E00E941F
:100B2000C30383E593E065EF72E02AE939E949E917
:100B30005FE30E94C30385EC92E0BC0143E553E010
:100B40000E94FD0387E493E065EF72E02CEA35EC48
:100B500047EA57E30E94C30381ED92E0BC0147E4FA
:100B600053E00E94FD031F910F91FF90EF90DF90E3
:100B7000CF90BF90AF909F908F907F906F9008958F
:100B80006F927F928F929F92AF92BF92CF92DF929D
:100B9000EF92FF920F931F93DF93CF93CDB7DEB702
:100BA000A4970FB6F894DEBF0FBECDBF6EECC62E75
:100BB00061E0D62E5CE0652E712C6C0C7D1CC601AC
:100BC000B3010E94FF02905820E030E040E05FE374
:100BD0000E94EA1D5B01982E892E8E010F5F1F4F28
:100BE000C801B301F4012A2D3B2D4F2F5E2F0E9427
:100BF000C3034DE0E42EF12CEC0EFD1EC701B6013F
:100C0000F4012A2D3B2D4F2F5E2F0E94C303C801F4
:100C1000B801A6010E94FD03C701B701A3010E940C
:100C2000FD0339E1A32EB12CAC0EBD1EC501B801E8
:100C3000A7010E944203C801B8010E94FF029B0164
:100C4000AC0160E070E080E490E40E94251B20E0AD
:100C500030E040E05FE30E94EA1D9B01AC01C60169
:100C6000B8010E94C303C701B7010E94FF029B01A4
:100C7000AC0160E070E080E490E40E94251B20E07D
:100C800030E040E05FE30E94EA1D9B01AC01C3013C
:100C9000B7010E94C303C501B5010E94FF029B0179
:100CA000AC0160E070E080E490E40E94251B20E04D
:100CB00030E040E05FE30E94EA1D9B01AC0186EE5C
:100CC00091E0B5010E94C303A4960FB6F894DEBF6D
:100CD0000FBECDBFCF91DF911F910F91FF90EF908D
:100CE000DF90CF90BF90AF909F908F907F906F904C
:100CF00008952F923F924F925F926F927F928F92C0
:100D00009F92AF92BF92CF92DF92EF92FF920F939A
:100D10001F93CF93DF93362E272E3A01082F192FDA
:100D2000EE24FF2445C06991799189919991F80148
:100D300020813181428153810E94EA1D4B015C0177
:100D4000F8016481758186819781288539854A8576
:100D50005B850E94EA1D9B01AC01C501B4010E94A4
:100D6000261B4B015C01F8016085718582859385A6
:100D70002C893D894E895F890E94EA1D9B01AC0147
:100D8000C501B4010E94261BF60161937193819302
:100D900091936F01C415D50531F6ECE0CE2ED12C20
:100DA000EC0CFD1C045F1F4F24E2E216F10479F005
:100DB000C101E92FEF016E01D22CE6016301CE0CD7
:100DC000DF1C7CE0472E512C4C0E5D1EACCFDF911A
:100DD000CF911F910F91FF90EF90DF90CF90BF9038
:100DE000AF909F908F907F906F905F904F903F90CB
:100DF0002F9008952F923F924F925F926F927F9221
:100E00008F929F92AF92BF92CF92DF92EF92FF921A
:100E10000F931F93DF93CF9300D000D0CDB7DEB7F1
:100E20006091830270918402809185029091860284
:100E300026EA36E24FE95AE30E94EA1D6093AD02CA
:100E40007093AE028093AF029093B00260918702DC
:100E5000709188028091890290918A0226EA36E296
:100E60004FE95AE30E94EA1D6093B1027093B20207
:100E70008093B3029093B40260918B0270918C02C4
:100E800080918D0290918E0226EA36E24FE95AE374
:100E90000E94EA1D6093B5027093B6028093B70278
:100EA0009093B80280913B0290913C02A0913D0248
:100EB000B0913E028093A1029093A202A093A3025C
:100EC000B093A40280913F0290914002A091410210
:100ED000B09142028093A5029093A602A093A7022C
:100EE000B093A8028091430290914402A0914502E0
:100EF000B09146028093A9029093AA02A093AB02FC
:100F0000B093AC028DED92E06DEA72E041ED52E0FB
:100F10000E94FD0389EB92E06DED72E045EC52E03A
:100F20000E94FD030F2EF0E02F2EF0E03F2EF0E0A8
:100F30004F2EF0E05F2EF02D2092F2013092F3015F
:100F40004092F4015092F501E0903903F0903A0399
:100F500000913B0310913C0357016801D7FAD094EC
:100F6000D7F8D0946090C1027090C2028090C30202
:100F70009090C402C601B501A40193010E94EA1D2C
:100F80006093F6017093F7018093F8019093F90153
:100F90008091BD029091BE02A091BF02B091C002AB
:100FA00089839A83AB83BC83C801B70129813A81C5
:100FB0004B815C810E94EA1D6093FA017093FB01F2
:100FC0008093FC019093FD01C801B701A401930136
:100FD0000E94EA1D6093FE017093FF01809300025E
:100FE0009093010220920202309203024092040286
:100FF000509205026090B9027090BA028090BB02D4
:101000009090BC02C601B501A40193010E94EA1DA3
:10101000609306027093070280930802909309027E
:10102000C601B50129813A814B815C810E94EA1D8C
:1010300060930A0270930B0280930C0290930D024E
:10104000C801B701A40193010E94EA1D60930E023A
:1010500070930F028093100290931102209212025B
:101060003092130240921402509215028EEC91E0DD
:1010700062EF71E041E053E00E947906FEECEF2E52
:10108000F1E0FF2E01E013E0D7016D917D918D918C
:101090009C91F80120813181428153810E94261B5D
:1010A000D7016D937D938D939C93139714966D91B7
:1010B0007D918D919C911797F8012481358146810E
:1010C00057810E94261BD70114966D937D938D93B3
:1010D0009C93179718966D917D918D919C911B977C
:1010E000F80120853185428553850E94261BD70152
:1010F00018966D937D938D939C931B97ECE0F0E095
:10110000EE0EFF1E045F1F4FF2EFEF16F1E0FF0639
:1011100009F0BACF0F900F900F900F90CF91DF9101
:101120001F910F91FF90EF90DF90CF90BF90AF9005
:101130009F908F907F906F905F904F903F902F90F7
:1011400008952F923F924F925F926F927F928F926B
:101150009F92AF92BF92CF92DF92EF92FF920F9346
:101160001F93DF93CF93CDB7DEB764970FB6F89494
:10117000DEBF0FBECDBF9C8B8B8B2A013B0148018C
:101180005901C701B6010E94071C6D837E838F83BE
:101190009887C701B6010E944D1E69877A878B87A1
:1011A0009C87C501B4010E94071C6D877E878F87CD
:1011B000988BC501B4010E944D1E69837A838B838D
:1011C0009C83C301B2010E94071C4B015C01C30157
:1011D000B2010E944D1E6B017C016D857E858F855D
:1011E0009889A50194010E94EA1DEB89FC8960831E
:1011F000718382839383C501B40129853A854B8528
:101200005C850E94EA1D362E272E898B9A8BA101C0
:10121000652F742F29813A814B815C810E94EA1DE0
:101220002B013C016D817E818F819885A7019601FC
:101230000E94EA1D9B01AC01C301B2010E94251B63
:10124000EB89FC8964837583868397836D817E81B6
:101250008F819885A50194010E94EA1D462E772E64
:10126000682E592E69857A858B859C85A701960104
:101270000E94EA1D4B015C01642D772D862D952D72
:1012800029813A814B815C810E94EA1D9B01AC015E
:10129000C501B4010E94261BEB89FC896087718718
:1012A000828793878F01045F1F4F6D857E858F85B1
:1012B0009889A70196010E94EA1DEB89FC89648741
:1012C00075878687978769857A858B859C8529812F
:1012D0003A814B815C810E94EA1DA70196010E9420
:1012E000EA1D9B01AC01642D772D862D952D0E9462
:1012F000261BF80164837583868397836D817E81C5
:101300008F81988529813A814B815C810E94EA1DF9
:10131000A70196010E94EA1DD101C9888A882B2F56
:101320003A2F4C2D582D0E94251BF801608771879C
:10133000828793870B891C89085E1F4F89819A8158
:10134000AB81BC81B058EB89FC89808F918FA28FD3
:10135000B38F6D857E858F85988929853A854B85E4
:101360005C850E94EA1DF8016483758386839783F8
:101370006D817E818F8198852D853E854F85588929
:101380000E94EA1DF80160877187828793876496BF
:101390000FB6F894DEBF0FBECDBFCF91DF911F9186
:1013A0000F91FF90EF90DF90CF90BF90AF909F9004
:1013B0008F907F906F905F904F903F902F90089507
:1013C000DF93CF93CDB7DEB72C970FB6F894DEBF7F
:1013D0000FBECDBF809138029091390281309105C6
:1013E00009F040C060912503709126038091270386
:1013F0009091280321EE3EE245E652E40E94EA1D68
:1014000069837A838B839C836091290370912A037B
:1014100080912B0390912C0321EE3EE245E652E4AD
:101420000E94EA1D6D837E838F83988760912D03D0
:1014300070912E0380912F039091300321EE3EE2B4
:1014400045E652E40E94EA1D69877A878B879C876C
:101450008EEA94E0BE016F5F7F4F4CE050E00E9447
:1014600026195BC0009709F058C08EEA94E060E04E
:1014700071E00E94611960912503709126038091AB
:1014800027039091280321EE3EE245E652E40E94B4
:10149000EA1DAB01BC018EEA94E022E030E00E943C
:1014A000131B8EEA94E066E071E00E94611960917E
:1014B000290370912A0380912B0390912C0321EE34
:1014C0003EE245E652E40E94EA1DAB01BC018EEA11
:1014D00094E022E030E00E94131B8EEA94E066E084
:1014E00071E00E94611960912D0370912E0380912B
:1014F0002F039091300321EE3EE245E652E40E9434
:10150000EA1DAB01BC018EEA94E022E030E00E94CB
:10151000131B8EEA94E00E946C192C960FB6F89477
:10152000DEBF0FBECDBFCF91DF9108954F925F9286
:101530006F927F928F929F92AF92BF92CF92DF92E3
:10154000EF92FF920F931F93CF93DF93009709F0D1
:101550006DC08EEA94E068E071E00E9461191BE3BF
:10156000812E12E0912EC7E4D2E003E512E0AA2416
:10157000BB24F401C190D190E190F1904F013E0164
:10158000C701B601288139814A815B810E94031C11
:1015900087FF04C0C882D982EA82FB822801C70182
:1015A000B601F80120813181428153810E94DF1D03
:1015B00018162CF4F801C082D182E282F3822496BC
:1015C000F30140815181628173818EEA94E022E0CF
:1015D00030E00E94131B8EEA94E061E271E00E9409
:1015E00061190C5F1F4FF20140815181628173814B
:1015F0008EEA94E022E030E00E94131BF2E0AF1686
:10160000B10439F08EEA94E063E271E00E9461195E
:1016100004C08EEA94E00E946C190894A11CB11CCD
:1016200083E0A816B10409F0A4CF1DC18130910553
:1016300009F06DC08EEA94E066E271E00E946119E3
:10164000BFE58B2EB2E09B2ECBE6D2E007E712E09F
:10165000AA24BB24F401C190D190E190F1904F01F4
:101660003E01C701B601288139814A815B810E9410
:10167000031C87FF04C0C882D982EA82FB8228014A
:10168000C701B601F80120813181428153810E9456
:10169000DF1D18162CF4F801C082D182E282F38299
:1016A0002496F30140815181628173818EEA94E036
:1016B00022E030E00E94131B8EEA94E061E271E0C8
:1016C0000E9461190C5F1F4FF201408151816281BC
:1016D00073818EEA94E022E030E00E94131BF2E076
:1016E000AF16B10439F08EEA94E063E271E00E9433
:1016F000611904C08EEA94E00E946C190894A11C40
:10170000B11C83E0A816B10409F0A4CFACC08230AC
:10171000910509F0A8C060918F02709190028091AC
:101720009102909192022091830230918402409123
:101730008502509186020E94261B60938F0270934F
:101740009002809391029093920260919302709123
:101750009402809195029091960220918702309197
:1017600088024091890250918A020E94261B609350
:1017700093027093940280939502909396026091E5
:101780009702709198028091990290919A0220910B
:101790008B0230918C0240918D0250918E020E94FA
:1017A000261B6093970270939802809399029093FE
:1017B0009A0280919B0290919C02019690939C02C8
:1017C00080939B028EEA94E06EE371E00E946119BF
:1017D00003E812E0AFE8CA2EA2E0DA2EC0E0D0E0C3
:1017E000F80141915191619171918F018EEA94E0DC
:1017F00022E030E00E94131B8EEA94E061E271E087
:101800000E946119F60181909190A190B1906F01B1
:1018100060919B0270919C02882777FD8095982F9C
:101820000E94A51C9B01AC01C501B4010E940A1CC9
:10183000AB01BC018EEA94E022E030E00E94131B71
:10184000C230D10539F08EEA94E063E271E00E9483
:10185000611904C08EEA94E00E946C192196C3308D
:10186000D10509F0BDCFDF91CF911F910F91FF906E
:10187000EF90DF90CF90BF90AF909F908F907F9030
:101880006F905F904F900895FF920F931F93CF93A7
:10189000DF93F82ECEEAD4E0CE016EE571E00E942F
:1018A0006119CE016F2D0E946419CE016DE30E9473
:1018B000641940913B0250913C0260913D0270914D
:1018C0003E02CE0122E030E00E94131B06E011E050
:1018D000CE01B8010E94611940913F02509140022F
:1018E0006091410270914202CE0122E030E00E94FC
:1018F000131BCE01B8010E9461194091430250911F
:1019000044026091450270914602CE0122E030E02F
:101910000E94131BCE010E946C19CE0162E671E099
:101920000E946119CE016F2D0E946419CE016DE3F2
:101930000E94641940915F025091600260916102BF
:1019400070916202CE0122E030E00E94131BCE01B2
:10195000B8010E9461194091630250916402609144
:10196000650270916602CE0122E030E00E94131BF6
:10197000CE01B8010E94611940916702509168023E
:101980006091690270916A02CE0122E030E00E940B
:10199000131BCE010E946C19CE0166E671E00E9415
:1019A0006119CE016F2D0E946419CE016DE30E9472
:1019B0006419409183025091840260918502709174
:1019C0008602CE0122E030E00E94131BCE01B80156
:1019D0000E946119409187025091880260918902AA
:1019E00070918A02CE0122E030E00E94131BCE01EA
:1019F000B8010E94611940918B0250918C02609154
:101A00008D0270918E02CE0122E030E00E94131B05
:101A1000CE010E946C19DF91CF911F910F91FF9021
:101A20000895CF93DF93CEEAD4E0CE016BE372E06A
:101A30004CE050E00E942619CE016FE572E04CE0C8
:101A400050E00E942619CE0163E872E04CE050E0BD
:101A50000E942619DF91CF9108958091CC01909139
:101A6000CD018330910559F480913802909139026B
:101A70008130910521F1009779F582E50FC0823020
:101A8000910579F40E94D100809138029091390239
:101A900081309105A1F00097F9F483E40E94440C91
:101AA000089584309105C1F48091380290913902F3
:101AB0008130910539F40E94110D0E94D1000E94DD
:101AC000110D0895009741F482E50E94440C0E9494
:101AD000D10083E40E94440C089585EA93E00E94BB
:101AE00050130895CF93DF93C5EAD3E0CE0163E5A9
:101AF00070E00E947513CE016DE20E942013CE01AA
:101B000068E00E942013CE010E94781365E070E027
:101B100080E090E00E943E16CE0163E570E00E94F6
:101B20007513CE0161E30E942013CE0168E00E948C
:101B30002013CE010E94781365E070E080E090E011
:101B40000E943E16CE0163E570E00E947513CE013F
:101B50006CE20E942013CE0169E00E942013CE01A6
:101B60000E94781365E070E080E090E00E943E16ED
:101B7000DF91CF910895EF92FF920F931F93DF9320
:101B8000CF9300D000D000D0CDB7DEB785EA93E088
:101B900063E570E00E94751385EA93E062E30E94BA
:101BA000201385EA93E00E94781385EA93E063E5C9
:101BB00070E00E94751385EA93E063E570E046E00B
:101BC00050E00E9468137E010894E11CF11C00E0C3
:101BD00010E009C085EA93E00E94C912F7018193E1
:101BE0007F010F5F1F4F85EA93E00E94C0120097AC
:101BF00089F785EA93E00E94781306301105E9F52C
:101C00009C8180E06B8170E0682B792B882777FDC1
:101C10008095982F0E94A51C60933B0270933C0214
:101C200080933D0290933E029A8180E0698170E04A
:101C3000682B792B882777FD8095982F0E94A51C0B
:101C400060933F027093400280934102909342025E
:101C50009E8180E06D8170E0682B792B882777FD6D
:101C60008095982F0E94A51C6093430270934402B4
:101C7000809345029093460213C080914103909156
:101C800042030196909342038093410380913A026C
:101C9000882331F08EEA94E06AE671E00E948119AF
:101CA00026960FB6F894DEBF0FBECDBFCF91DF9161
:101CB0001F910F91FF90EF900895CF93DF93C5EAA6
:101CC000D3E0CE016EE170E00E947513CE0162E0B8
:101CD0000E942013CE0160E00E942013CE010E94DA
:101CE000781365E070E080E090E00E943E16CE013F
:101CF0006EE170E00E947513CE0160E00E94201337
:101D0000CE0168E10E942013CE010E94781365E0A5
:101D100070E080E090E00E943E16DF91CF91089540
:101D2000EF92FF920F931F93DF93CF9300D000D0D9
:101D300000D0CDB7DEB785EA93E06EE170E00E9497
:101D4000751385EA93E063E00E94201385EA93E02F
:101D50000E94781385EA93E06EE170E00E947513AB
:101D600085EA93E06EE170E046E050E00E9468137F
:101D70007E010894E11CF11C00E010E009C085EA36
:101D800093E00E94C912F70181937F010F5F1F4FFB
:101D900085EA93E00E94C012009789F785EA93E0F4
:101DA0000E9478130630110509F046C09D8180E03D
:101DB0006E8170E0682B792B709561957F4F882735
:101DC00077FD8095982F0E94A51C60935F02709309
:101DD00060028093610290936202998180E06A813F
:101DE00070E0682B792B709561957F4F882777FD80
:101DF0008095982F0E94A51C6093630270936402E3
:101E000080936502909366029B8180E06C8170E014
:101E1000682B792B709561957F4F882777FD80958A
:101E2000982F0E94A51C60936702709368028093AC
:101E3000690290936A0213C0809143039091440316
:101E40000196909344038093430380913A02882340
:101E500031F08EEA94E066E871E00E9481192696DE
:101E60000FB6F894DEBF0FBECDBFCF91DF911F91AB
:101E70000F91FF90EF900895CF93DF93C5EAD3E0E1
:101E8000CE0168E670E00E947513CE016EE30E94F9
:101E90002013CE0160E80E942013CE010E94781327
:101EA00065E070E080E090E00E943E16CE0168E6BA
:101EB00070E00E947513CE0166E10E942013CE01EE
:101EC0006BE10E942013CE010E94781365E070E060
:101ED00080E090E00E943E16CE0168E670E00E942D
:101EE0007513CE0165E10E942013CE016AE00E94C5
:101EF0002013CE010E94781365E070E080E090E04E
:101F00000E943E16CE0168E670E00E947513CE0175
:101F10006EE30E942013CE0160E00E942013CE01E8
:101F20000E94781365E070E080E090E00E943E1629
:101F3000DF91CF910895EF92FF920F931F93DF935C
:101F4000CF9300D000D000D0CDB7DEB785EA93E0C4
:101F500068E670E00E94751385EA93E06DE10E94E7
:101F6000201385EA93E00E94781385EA93E068E6FF
:101F700070E00E94751385EA93E068E670E046E041
:101F800050E00E9468137E010894E11CF11C00E0FF
:101F900010E009C085EA93E00E94C912F70181931D
:101FA0007F010F5F1F4F85EA93E00E94C0120097E8
:101FB00089F785EA93E00E9478130630110509F04D
:101FC00046C09B8180E06C8170E0682B792B709516
:101FD00061957F4F882777FD8095982F0E94A51CDB
:101FE00060938302709384028093850290938602AB
:101FF000998180E06A8170E0682B792B70956195FA
:102000007F4F882777FD8095982F0E94A51C6093AD
:102010008702709388028093890290938A029D813F
:1020200080E06E8170E0682B792B709561957F4F11
:10203000882777FD8095982F0E94A51C60938B02BE
:1020400070938C0280938D0290938E0213C08091C6
:102050004503909146030196909346038093450370
:1020600080913A02882331F08EEA94E061EA71E0CF
:102070000E94811926960FB6F894DEBF0FBECDBF21
:10208000CF91DF911F910F91FF90EF9008950E94E3
:102090009B0F0E94BB0D0E94900E08951F93DF932B
:1020A000CF9300D0CDB7DEB78EEA94E00E94291717
:1020B000823091050CF4DBC08EEA94E00E94581740
:1020C0008332910509F0D3C08EEA94E00E9458173C
:1020D0008636910521F481E080933E03C8C08337A2
:1020E0009105D1F40E94D30189830E94D3018A8390
:1020F0008EEA94E069EB71E00E9461198EEA94E047
:10210000BE016F5F7F4F42E050E00E9426198EEAC9
:1021100094E00E946C19ABC08F36910509F0A7C0FE
:102120000E94D3018E3671F480913F039091400359
:10213000019663E070E00E94AD1E9093400380938F
:102140003F0318C0843739F481E090E09093CD01CB
:102150008093CC012EC0823639F481E090E09093D8
:10216000CD018093CC012FC0833641F41092CD0174
:102170001092CC0181E08093160279C0833741F53B
:102180000E94D301182F0E94D301123719F423E0C3
:1021900030E009C0133619F422E030E004C01236F2
:1021A00031F424E030E03093CD012093CC0184372A
:1021B00029F4109239021092380259C0823609F07F
:1021C00056C081E090E090933902809338024FC06E
:1021D000803319F40E94CC01CDCF813331F481E0FA
:1021E000809316020E94C40142C0853609F03FC0A8
:1021F0000E94D301803319F410923A0238C081331F
:1022000021F481E080933A0232C0833681F58EEA70
:1022100094E060EC71E00E9461196091410370915B
:1022200042038EEA94E04AE050E00E94381A8EEAB7
:1022300094E066E071E00E9461196091430370913F
:1022400044038EEA94E04AE050E00E94381A8EEA95
:1022500094E066E071E00E9461196091450370911D
:1022600046038EEA94E04AE050E00E94421A0E943F
:102270000A1620913103309132034091330350917B
:102280003403621B730B840B950B6431710581055C
:10229000910508F47EC020933503309336034093B4
:1022A0003703509338030E940A16609331037093EA
:1022B000320380933303909334032091350330919C
:1022C00036034091370350913803261737074807E4
:1022D0005907A8F4621B730B840B950B0E94A31C77
:1022E00020E030E04AE754E40E940A1C609339037E
:1022F00070933A0380933B0390933C030BC080E0C0
:1023000090E0DC018093390390933A03A0933B0360
:10231000B0933C030E9447108091CC019091CD0175
:10232000009789F40E94560180913D03882321F48F
:1023300080913E03882359F180913F03909140039F
:102340000E94960A24C081309105B9F40E94D10000
:102350000E94DF010E94FA060E94C0050E942E041E
:102360000E94B70280913D03882321F480913E03AF
:10237000882369F00E94E0090AC080913D03882308
:1023800021F480913E03882311F00E942D0D1092BC
:102390003E030F900F90CF91DF911F910895AF9260
:1023A000BF92CF92DF92EF92FF920F931F93DF9332
:1023B000CF93CDB7DEB7A4970FB6F894DEBF0FBEAC
:1023C000CDBF80E090E0A0E8BFE3898F9A8FAB8F0C
:1023D000BC8F80E090E0DC018D8F9E8FAF8FB8A323
:1023E00089A39AA3ABA3BCA30E9447100E940A161C
:1023F00060933103709332038093330390933403DB
:1024000020913F023091400240914102509142029E
:10241000E0904302F0904402009145021091460280
:10242000CA01B9010E94EA1D5B016C01C801B70134
:10243000A80197010E94EA1D9B01AC01C601B501EC
:102440000E94261B0E94571E9B01AC018FE3E82EC1
:1024500082E0F82EF70192918291729162917F0150
:102460000E94B01B90586093290370932A038093B5
:102470002B0390932C0309E1C02ED12CCC0EDD1E32
:102480008E010F5F1F4FC801B701A6010E944203D2
:10249000CE010D96B601A8010E94420369897A898E
:1024A0008B899C892D893E894F89588D0E94B01B4C
:1024B00060932D0370932E0380932F03909330032A
:1024C0000E94DF0140919D0250919E0260919F0207
:1024D0007091A00240932503509326036093270335
:1024E000709328030091290310912A0320912B0354
:1024F00030912C03C0902D03D0902E03E0902F0339
:10250000F09030038EEC91E00E94A108A4960FB6E3
:10251000F894DEBF0FBECDBFCF91DF911F910F9119
:10252000FF90EF90DF90CF90BF90AF9008958EEA2C
:1025300094E040E051EE60E070E00E945A188DE0B7
:1025400061E00E94CD168DE060E00E94F11662E32A
:1025500070E080E090E00E943E160E946D0D0E94A7
:10256000720D0E945D0E0E943C0F64E170E080E0FD
:1025700090E00E943E160E94CF110E94C40108956F
:102580002091800330E080917F03281B3109C9012D
:10259000089580917F0390918003891750F4E82F6C
:1025A000F0E0E15AFC4F208130E08F5F80937F03A1
:1025B00002C02FEF3FEFC9010895E0917F038091A2
:1025C0008003E81730F4F0E0E15AFC4F208130E05E
:1025D00002C02FEF3FEFC90108950895CF92DF9217
:1025E000EF92FF920F931F93CF93DF936C01CB0178
:1025F000EA012091A4032223B1F0E62EF92E00E097
:1026000010E00DC0D7016D917D01D601ED91FC91D7
:102610000190F081E02DC60109950F5F1F4F0C1747
:102620001D0780F303C0642F0E942E14CE01DF919A
:10263000CF911F910F91FF90EF90DF90CF90089571
:10264000DF93CF930F92CDB7DEB769832091A403B8
:102650002223D1F02091A303203240F021E030E08A
:10266000FC013383228320E030E015C08091A20377
:10267000E82FF0E0EE57FC4F998190838F5F8093B5
:10268000A2038093A30305C0CE01019661E00E94DE
:102690002E1421E030E0C9010F90CF91DF91089511
:1026A00010927F03109280031092A2031092A30352
:1026B0000E949F130895862F413208F040E26FE593
:1026C00073E00E94B81310927F03809380030895F3
:1026D0000E945B13089581E08093A40360938103BB
:1026E0001092A2031092A30308950E946B13089501
:1026F0008091810362E873E04091A30321E00E948E
:10270000EE131092A2031092A3031092A403089553
:102710001092A8031092A70388EE93E0A0E0B0E027
:102720008093A9039093AA03A093AB03B093AC0347
:102730008BE192E09093A6038093A50308951092F5
:10274000D50382E161E00E94F11683E161E00E941D
:10275000F116E9EBF0E080818E7F808380818D7FB0
:10276000808380E28093B80085E48093BC00089564
:10277000413288F59091D5039923E1F791E0909348
:10278000D5039FEF9093D4031092B203942F9150EE
:102790009093B303880F81608093B10385EE80939B
:1027A000BC008091D5038130E1F38091B20384179E
:1027B00010F44091B203E4EBF3E0262F372FD90158
:1027C000242F30E02E0F3F1F02C081918D93E2171E
:1027D000F307D9F701C040E0842F08954132B0F5E6
:1027E0009091D5039923E1F792E09093D5039FEF61
:1027F0009093D4031092B2034093B303DB01E4EB54
:10280000F3E050E04E0F5F1F02C09D919193E417DB
:10281000F507D9F790E0880F991F8093B10385EEF3
:102820008093BC00222321F08091D5038230E1F314
:102830008091D4038F3F61F08091D403803251F0B6
:102840008091D403803341F483E0089581E00895BA
:1028500080E0089582E0089584E008956132A0F454
:102860002091D503243091F46093FA03DC01EDEF5D
:10287000F3E070E06E0F7F1F02C08D918193E61729
:10288000F707D9F780E0089581E0089582E0089580
:10289000882311F085EC01C085E88093BC00089581
:1028A00085ED8093BC008091BC0084FDFCCF10922C
:1028B000D503089585EC8093BC001092D50308954C
:1028C0001F920F920FB60F9211242F933F934F93A5
:1028D0005F936F937F938F939F93AF93BF93EF9388
:1028E000FF938091B90090E0887F907080369105C9
:1028F00009F4C2C081369105E4F58832910509F4E6
:102900007EC089329105C4F48031910509F472C00A
:102910008131910544F4009709F413C18830910581
:1029200009F013C167C08831910509F468C080328D
:10293000910509F00AC178C08034910509F48AC074
:10294000813491054CF48033910509F46FC08833CC
:10295000910509F0FAC06EC08035910509F46EC08A
:102960008835910509F47BC08834910509F0EDC0E4
:10297000EAC08839910509F4DAC089399105ECF487
:102980008837910509F478C0893791054CF4883669
:10299000910509F471C08037910509F0D6C06CC06B
:1029A0008838910509F4C3C08039910509F46AC0DB
:1029B0008038910509F0C9C065C0803B910509F4D4
:1029C0008EC0813B91054CF4803A910509F46CC0AE
:1029D000883A910509F0B9C082C0803C910509F49C
:1029E000AAC0883C910509F4A6C0883B910509F06E
:1029F000ACC08AC08091B1038093BB0013C090919A
:102A0000B2038091B303981708F09DC08091B20380
:102A1000E82FF0E0EC54FC4F90819093BB008F5F67
:102A20008093B20381E084C080E201C080E38093A0
:102A3000D40389C088E38093D4034EC08091B2034D
:102A40009091BB00E82FF0E0EC54FC4F90838F5F37
:102A50008093B2039091B2038091B30365C08091DB
:102A6000B2039091BB00E82FF0E0EC54FC4F908350
:102A70008F5F8093B20367C083E08093D503109289
:102A8000D603D0CF8091D603803208F050C0809119
:102A9000D6039091BB00E82FF0E0E952FC4F908301
:102AA0008F5F8093D603BECF8091D603803230F4FF
:102AB000E091D603F0E0E952FC4F10820E945014DE
:102AC0006091D603E091F703F091F80387ED93E06E
:102AD00070E009951092D6030E945A1436C084E023
:102AE0008093D5031092F9031092FA03E091FB034F
:102AF000F091FC0309958091FA03882329F481E081
:102B00008093FA031092FD038091F903E82FF0E01F
:102B1000E350FC4F90819093BB008F5F8093F9034B
:102B20009091F9038091FA03981708F47BCF80E025
:102B30000E9448140AC081E00E9448141092D503F4
:102B400004C01092D4030E945014FF91EF91BF91E2
:102B5000AF919F918F917F916F915F914F913F9135
:102B60002F910F900FBE0F901F9018951F920F92EC
:102B70000FB60F9211242F933F934F935F936F9350
:102B80007F938F939F93AF93BF93209121043091B4
:102B90002204409123045091240470912504DA0109
:102BA000C9010296A11DB11D672F6A5F6D3730F014
:102BB0006D57DA01C9010396A11DB11D609325046B
:102BC0008093210490932204A0932304B0932404BF
:102BD00080911D0490911E04A0911F04B0912004C7
:102BE0000196A11DB11D80931D0490931E04A09316
:102BF0001F04B0932004BF91AF919F918F917F915B
:102C00006F915F914F913F912F910F900FBE0F9059
:102C10001F9018958FB7F8942091210430912204C9
:102C200040912304509124048FBFB901CA01089533
:102C30009FB7F89420911D0430911E0440911F0409
:102C40005091200486B5A89B06C08F3F21F02F5FCE
:102C50003F4F4F4F5F4F9FBF542F432F322F22279D
:102C6000280F311D411D511D83E0220F331F441FCA
:102C7000551F8A95D1F7B901CA010895EF92FF92C5
:102C80000F931F93CF93DF937B018C010E94181643
:102C9000EB010FC00E9418166C1B7D0B83E0683E91
:102CA000780738F00894E108F10801091109C851C2
:102CB000DC4FE114F1040105110561F7DF91CF91BB
:102CC0001F910F91FF90EF900895789484B58260E2
:102CD00084BD84B5816084BD85B5826085BD85B5C0
:102CE000816085BDEEE6F0E0808181608083E1E86F
:102CF000F0E01082808182608083808181608083A7
:102D0000E0E8F0E0808181608083E1EBF0E08081A9
:102D100084608083E0EBF0E0808181608083EAE77B
:102D2000F0E0808184608083808182608083808104
:102D3000816080838081806880831092C1000895C3
:102D4000833071F0843028F48130A1F0823021F595
:102D500014C08630B1F08730D1F08430E9F404C07B
:102D6000809180008F7703C0809180008F7D809359
:102D70008000089584B58F7702C084B58F7D84BDAF
:102D800008958091B0008F778093B000089580916E
:102D9000B0008F7D8093B000089590E0FC01EF5D5E
:102DA000FE4F2491FC01E35FFE4FE491EE23C1F05E
:102DB000F0E0EE0FFF1FE151FF4F85919491DC0190
:102DC000662341F49FB7F8948C91209582238C93CD
:102DD0009FBF08959FB7F8948C91822B8C939FBFCF
:102DE00008950F931F93DF93CF930F92CDB7DEB764
:102DF000282F30E0F901EB5CFE4F8491F901EF5D83
:102E0000FE4F1491235F3E4FF90104910023D9F046
:102E1000882321F069830E94A0166981E02FF0E0E9
:102E2000EE0FFF1FE750FF4F85919491DC019FB794
:102E3000F894662321F48C911095812302C08C9123
:102E4000812B8C939FBF0F90CF91DF911F910F919A
:102E50000895FC0184859585FC01E05CFF4F20818D
:102E600031818E5B9F4FFC0180819181281B390B42
:102E70002F733070C9010895FC0184859585FC018C
:102E8000E05CFF4F40815181FC01EE5BFF4F2081F0
:102E900031814217530741F00190F081E02DE80F96
:102EA000F91F208130E002C02FEF3FEFC9010895E4
:102EB000FC0184859585FC01E05CFF4F40815181D8
:102EC000FC01EE5BFF4F208131814217530771F007
:102ED000A081B181A80FB91F2C91808191810196A9
:102EE0008F7390709183808330E002C02FEF3FEFAB
:102EF000C9010895DC011E968D919C911F97FC01DC
:102F0000E05CFF4F8E5B9F4F40815181DC012D9132
:102F10003C91119742175307B9F708951F93FC018D
:102F2000162F26853785D901A05CBF4F8D919C91C6
:102F3000019660E470E00E94AD1ED901AE5BBF4F08
:102F40004D915C91119784179507D1F3D901A05C3D
:102F5000BF4F0D90BC91A02DA20FB31F1C93A6854F
:102F6000B785A05CBF4F11969C938E93A689B789B5
:102F70002C9181E090E0058C02C0880F991F0A9483
:102F8000E2F7282B2C9381E090E01F910895FB013C
:102F9000E05CFF4F208131812F5F3F4F2F733070F6
:102FA000DB01AE5BBF4F4D915C9111972417350744
:102FB00039F0A081B181A60FB71F8C933183208394
:102FC000089508951F920F920FB60F9211242F9318
:102FD0003F934F935F936F937F938F939F93AF93A1
:102FE000BF93EF93FF938091C60066E274E00E9466
:102FF000C717FF91EF91BF91AF919F918F917F91F3
:103000006F915F914F913F912F910F900FBE0F9055
:103010001F9018958EEA94E00E942917009711F0EE
:103020000E94E11708951F920F920FB60F9211247C
:103030002F933F935F936F937F938F939F93AF9360
:10304000BF93EF93FF932091AA043091AB0480913A
:10305000AC049091AD042817390731F48091C10078
:103060008F7D8093C10016C0E091AC04F091AD0457
:10307000E659FB4F20818091AC049091AD040196FC
:1030800060E470E00E94AD1E9093AD048093AC04A8
:103090002093C600FF91EF91BF91AF919F918F91C7
:1030A0007F916F915F913F912F910F900FBE0F9085
:1030B0001F9018959F92AF92BF92CF92DF92EF929E
:1030C000FF920F931F93CF93DF93EC017A018B0153
:1030D00099249394EC89FD8981E090E00E8C02C0E4
:1030E000880F991F0A94E2F7808360E874E88EE104
:1030F00090E0A80197010E94C01E2150304040403E
:103100005040569547953795279590E4A92E92E41F
:10311000B92E9FE0C92ED12C12C09924EC89FD89CB
:103120001082C601B501A80197010E94C01E21505E
:10313000304040405040569547953795279580E15F
:103140002030380710F0992041F7E889F989308359
:10315000EA89FB892083EE89FF89408181E090E044
:103160009C010A8C02C0220F331F0A94E2F7422B03
:103170004083EE89FF8940819C010B8C02C0220FA5
:10318000331F0A94E2F7422B4083EE89FF89408186
:103190009C010C8C02C0220F331F0A94E2F7422BD1
:1031A0004083EE89FF8920810D8C02C0880F991F12
:1031B0000A94E2F7809582238083DF91CF911F915B
:1031C0000F91FF90EF90DF90CF90BF90AF909F90C6
:1031D00008951092B1041092B00488EE93E0A0E03C
:1031E000B0E08093B2049093B304A093B404B0937E
:1031F000B504E0EBF4E08BE292E09293829386E2F6
:1032000094E0958784878AE694E09787868785ECA3
:1032100090E0918B808B84EC90E0938B828B80ECA0
:1032200090E0958B848B81EC90E0978B868B86EC7D
:1032300090E0918F808F84E0828F83E0838F87E09E
:10324000848F85E0858F81E0868F0895CF92DF920D
:10325000EF92FF920F931F93CF93DF936C017B014B
:103260008A01C0E0D0E00FC0D7016D917D01D60189
:10327000ED91FC910190F081E02DC6010995C80FF8
:10328000D91F015010400115110571F7CE01DF91D2
:10329000CF911F910F91FF90EF90DF90CF90089505
:1032A000DB010D900020E9F7AD0141505040461B75
:1032B000570BDC01ED91FC910280F381E02D099523
:1032C00008950E9450190895DC01ED91FC91019040
:1032D000F081E02D099508950F931F93CF93DF930D
:1032E000EC016DE00E9464198C01CE016AE00E943D
:1032F0006419080F191FC801DF91CF911F910F9119
:1033000008950F931F93CF93DF93EC010E94501900
:103310008C01CE010E946C19080F191FC801DF91A2
:10332000CF911F910F9108958F929F92AF92BF926C
:10333000CF92DF92EF92FF920F931F93DF93CF9381
:10334000CDB7DEB7A1970FB6F894DEBF0FBECDBFE5
:103350006C01042FE52FCB01122F19A2223008F4A3
:103360001AE021E2E22EF12CEC0EFD1E812E9924B2
:10337000AA24BB2403C0022FE32FCA01602F7E2F93
:10338000A50194010E94C01E129F802D1124081BCC
:103390000894E108F1080A3014F4005D01C0095CEA
:1033A000F7010083211531054105510521F7C601BB
:1033B000B7010E945019A1960FB6F894DEBF0FBE58
:1033C000CDBFCF91DF911F910F91FF90EF90DF90D4
:1033D000CF90BF90AF909F908F90089521153105A9
:1033E00049F4DC01ED91FC910190F081E02D642F16
:1033F000099508950E9494190895CF92DF92EF9253
:10340000FF920F931F93CF93DF93EC017A018B010F
:103410002115310541F4E881F9810190F081E02D19
:10342000642F09951AC02A303105A9F477FF12C01C
:103430006DE20E9464196C0144275527BA014E19A8
:103440005F09600B710BCE012AE00E949419C80E2F
:10345000D91E04C02AE00E9494196C01C601DF91B4
:10346000CF911F910F91FF90EF90DF90CF90089533
:103470009A01FB01AF01662757FD6095762F0E94E8
:10348000FD1908950F931F93CF93DF93EC019A01D9
:10349000CB01AC01662757FD6095762FCE010E94C7
:1034A000FD198C01CE010E946C19080F191FC8016B
:1034B000DF91CF911F910F9108956F927F929F920C
:1034C000AF92BF92CF92DF92EF92FF920F931F9332
:1034D000CF93DF933C017A018B01C22ECB01BA015D
:1034E00020E030E0A9010E94031C87FF0AC0C3014D
:1034F0006DE20E946419EC0117FB109517F9109505
:1035000002C0C0E0D0E0DD2450E040E030E02FE336
:1035100011C0DA01F9016B2F742F8F2F922F20E049
:1035200030E040E251E40E940A1C562F472F382F0A
:10353000292FD394DC1468F3C801B701DA01F9012B
:103540002B2F342F4F2F5E2F0E94261B5B01F82E4E
:10355000992E7B2D0E94771C162FD72EE82E092F2F
:103560000E94A31C9B01AC016A2D7B2D8F2D992DF0
:103570000E94251B962EA72EB82EF92EC301412F8F
:103580005D2D6E2D702F2AE030E00E94EE19C80FDD
:10359000D91FCC20B9F1C3016AEC71E00E94501927
:1035A000C80FD91F2FC0692D7A2D8B2D9F2D20E09C
:1035B00030E040E251E40E94EA1DD62EB72EA82E3C
:1035C000992E0E94721C7B010027F7FC0095102F9A
:1035D000C301B801A7012AE030E00E94FD19C80F1D
:1035E000D91FC801B7010E94A51C9B01AC016D2D1C
:1035F0007B2D8A2D992D0E94251B962EA72EB82E45
:10360000F92ECA94CC2079F6CE01DF91CF911F918B
:103610000F91FF90EF90DF90CF90BF90AF909F9071
:103620007F906F9008950E945D1A0895CF93DF9365
:103630000E9465160E949712CAE0D8E10E944E10BF
:103640002097E1F30E940A18F9CF5058BB27AA2708
:103650000ED06AC233D230F038D220F031F49F3F1E
:1036600011F41EF4F2C10EF4E095E7FBE8C1E92F76
:103670007DD280F3BA17620773078407950718F0A5
:1036800071F49EF595C20EF4E0950B2EBA2FA02D85
:103690000B01B90190010C01CA01A0011124FF27FF
:1036A000591B99F0593F50F4503E68F11A16F040FA
:1036B000A22F232F342F4427585FF3CF46953795F9
:1036C0002795A795F0405395C9F77EF41F16BA0BBE
:1036D000620B730B840BBAF09150A1F0FF0FBB1F6C
:1036E000661F771F881FC2F70EC0BA0F621F731FB5
:1036F000841F48F4879577956795B795F7959E3F12
:1037000008F0B3CF9395880F08F09927EE0F97959F
:10371000879508959F939F77EEE389379E0720F45E
:10372000E8E6F0E0BAD109C04BD19058A2EA2AED00
:103730003FE049EC5FE39BDFF7D10F9007FC905827
:103740000895BCD158F080E891E009F49EEFBDD116
:1037500028F040E851E059F45EEF09C076C128C274
:10376000E92FE07803D268F3092E052AC1F3261762
:1037700037074807590738F00E2E07F8E02569F09B
:10378000E025E0640AC0EF6307F8009407FADB0164
:10379000B9019D01DC01CA01AD01EF934AD0C4D14A
:1037A0000AD05F91552331F02BED3FE049E450FD05
:1037B00049EC4CCF0895DF93DD27B92FBF7740E860
:1037C0005FE31616170648075B0710F4D92FFBD1E5
:1037D0009F938F937F936F93A8D2ECE7F0E038D15B
:1037E000A3D12F913F914F915F9100D2DD2349F0FA
:1037F0009058A2EA2AED3FE049EC5FE3D0785D27DC
:1038000036DFDF9191C1F7D008F481E0089565D1EA
:10381000E3959BC10CD088C158D140F04FD130F016
:1038200021F45F3F19F00BC15111C3C10EC19ED1EC
:1038300098F39923C9F35523B1F3951B550BBB2777
:10384000AA2762177307840738F09F5F5F4F220F24
:10385000331F441FAA1FA9F333D00E2E3AF0E0E81D
:1038600030D091505040E695001CCAF729D0FE2F69
:1038700027D0660F771F881FBB1F261737074807FB
:10388000AB07B0E809F0BB0B802DBF01FF279358B1
:103890005F4F2AF09E3F510568F0D1C08AC15F3F5B
:1038A000ECF3983EDCF3869577956795B795F79599
:1038B0009F5FC9F7880F911D9695879597F9089591
:1038C000E1E0660F771F881FBB1F6217730784072D
:1038D000BA0720F0621B730B840BBA0BEE1F88F73C
:1038E000E095089504D06894B11163C1089546D15C
:1038F00088F09F5790F0B92F9927B751A0F0D1F0D9
:10390000660F771F881F991F1AF0BA95C9F712C062
:10391000B13081F04DD1B1E008954AC1672F782FC1
:103920008827B85F39F0B93FCCF3869577956795CE
:10393000B395D9F73EF490958095709561957F4F3A
:103940008F4F9F4F0895E89409C097FB3EF49095E0
:103950008095709561957F4F8F4F9F4F9923A9F068
:10396000F92F96E9BB279395F695879577956795F7
:10397000B795F111F8CFFAF4BB0F11F460FF1BC03B
:103980006F5F7F4F8F4F9F4F16C0882311F096E9CE
:1039900011C0772321F09EE8872F762F05C066237C
:1039A00071F096E8862F70E060E02AF09A95660F35
:1039B000771F881FDAF7880F9695879597F90895EE
:1039C000DF93CF931F930F938B01EC01E9EAF0E0B3
:1039D0003FD0AAD09801AE018B01EC0160E070E00D
:1039E00080E89FE332DE63D19801AE010F911F9111
:1039F000CF91DF91FBC0990F0008550FAA0BE0E8AB
:103A0000FEEF16161706E807F907C0F012161306A0
:103A1000E407F50798F0621B730B840B950B39F4E0
:103A20000A2661F0232B242B252B21F408950A2646
:103A300009F4A140A6958FEF811D811D089597F986
:103A40009F6780E870E060E008959FEF80EC089544
:103A5000DF93CF931F930F93FF92EF92DF927B013F
:103A60008C01689405C0DA2EEF01C0D0FE01E89405
:103A7000A5912591359145915591AEF3EF01F7DD73
:103A8000FE019701A801DA9479F7DF90EF90FF909B
:103A90000F911F91CF91DF9108959F938F937F9303
:103AA0006F93FF93EF939B01AC0194D0EF91FF9143
:103AB000CFDF2F913F914F915F918CC000240A94EA
:103AC0001616170618060906089500240A941216F9
:103AD0001306140605060895B8CF50D0E8F3E8940D
:103AE000E0E0BB279F57F0F02AED3FE049EC06C02D
:103AF000EE0FBB0F661F771F881F28F0B23A6207D0
:103B00007307840728F0B25A620B730B840BE3959A
:103B10009A9572F7803830F49A95BB0F661F771F1D
:103B2000881FD2F7904806C1092E0394000C11F4A7
:103B3000882352F0BB0F40F4BF2B11F460FF04C088
:103B40006F5F7F4F8F4F9F4F0895EF93E0FF06C049
:103B5000A2EA2AED3FE049EC5FEB89DDE5DF0F905B
:103B6000039401FC9058E1EDF0E097CF57FD905899
:103B7000440F551F59F05F3F71F04795880F97FB31
:103B8000991F61F09F3F79F08795089512161306EB
:103B90001406551FF2CF4695F1DF08C0161617061A
:103BA0001806991FF1CF869571056105089408954F
:103BB000E894BB2766277727CB0197F908951BDF89
:103BC00008F48FEF08959B01AC0160E070E080E89D
:103BD0009FE320CE0BD0A8CF71DF28F076DF18F05E
:103BE000952309F02CCF31CF1124E3CFBFDFA0F311
:103BF000959FD1F3950F50E0551F629FF001729F82
:103C0000BB27F00DB11D639FAA27F00DB11DAA1FA0
:103C1000649F6627B00DA11D661F829F2227B00DED
:103C2000A11D621F739FB00DA11D621F839FA00D78
:103C3000611D221F749F3327A00D611D231F849FC8
:103C4000600D211D822F762F6A2F11249F5750401F
:103C50008AF0E1F088234AF0EE0FFF1FBB1F661FBA
:103C6000771F881F91505040A9F79E3F510570F073
:103C7000E6CE9FCF5F3FECF3983EDCF386957795D9
:103C80006795B795F795E7959F5FC1F7FE2B880F6E
:103C9000911D9695879597F908959F931EDF0F9034
:103CA00007FCEE5F52CF11F40EF4CFCE41C066DFB9
:103CB000D0F39923D9F3CEF39F57550B87FF46D006
:103CC0000024A0E640EA900180585695979528F484
:103CD000805C660F771F881F20F02617370748077C
:103CE00030F4621B730B840B202931294A2BA695D3
:103CF00017940794202531254A2758F7660F771F18
:103D0000881F20F026173707480730F4620B730B23
:103D1000840B200D311D411DA09581F7B901842F21
:103D20009158880F9695879508959B01AC0152CFC5
:103D30009F3F31F0915020F4879577956795B7951F
:103D4000880F911D9695879597F908959150504049
:103D5000660F771F881FD2F7089597FB092E072655
:103D60000AD077FD04D02ED006D000201AF470952A
:103D700061957F4F0895F6F7909581959F4F08952F
:103D8000A1E21A2EAA1BBB1BFD010DC0AA1FBB1F5F
:103D9000EE1FFF1FA217B307E407F50720F0A21BD1
:103DA000B30BE40BF50B661F771F881F991F1A943E
:103DB00069F760957095809590959B01AC01BD0168
:103DC000CF010895AA1BBB1B51E107C0AA1FBB1F4F
:103DD000A617B70710F0A61BB70B881F991F5A9597
:103DE000A9F780959095BC01CD010895EE0FFF1FB6
:0C3DF0000590F491E02D0994F894FFCFA9
:103DFC00235950523D002C00616363656C20782C74
:103E0C00792C7A20286D696E2F6D617829203D20E0
:103E1C00002F002020006D61676E20782C792C7AA1
:103E2C0020286D696E2F6D617829203D20006779FF
:103E3C00726F20782C792C7A202863757272656EDB
:103E4C00742F6176657261676529203D20002341DE
:103E5C002D00234D2D0023472D00214552523A2091
:103E6C0072656164696E6720616363656C65726F0E
:103E7C006D6574657200214552523A207265616419
:103E8C00696E67206D61676E65746F6D65746572C0
:103E9C0000214552523A2072656164696E67206751
:103EAC0079726F73636F7065002353594E434800EA
:103EBC0023414D472D4552523A002E00010000007F
:103ECC00803F000000000000000000000000000027
:103EDC00803F000000000000000000000000000017
:103EEC00803F000000000000803F00000040000008
:103EFC004040000080400000A0400000C040000096
:103F0C00E0400000004101000000002013EE12C050
:103F1C0012C912DD12ED12000000008E17261929AD
:083F2C001758173C177A170023
:00000001FF
