:100000000C94A7000C94CF000C94CF000C94CF005C
:100010000C94CF000C94CF000C94CF000C94CF0024
:100020000C94CF000C94CF000C94CF000C94CF0014
:100030000C94CF000C94CF000C94CF000C94CF0004
:100040000C9405190C94CF000C94311B0C94621B7A
:100050000C94CF000C94CF000C94CF000C94CF00E4
:100060000C94AF170C94CF00036EDB363D9A999930
:10007000993DABAAAA2A3E000000803F084AD73B20
:100080003BCE016E84BCBFFDC12F3D6C74319ABD67
:1000900056833DDA3D00C77F11BED9E4BB4C3E918B
:1000A0006BAAAABE000000803F072C7AA5BA6CC5D7
:1000B00090DA3B9365FC8BBC53F810FD3C56928361
:1000C0004DBD879D3AB63DCBC9BF5BBE73DA0FC944
:1000D0003F05A84CCDB2D44EB93836A9020C50B960
:1000E000918688083CA6AAAA2ABE000000803F008C
:1000F000000000240027002A00000000002500283E
:10010000002B000000000023002600290004040446
:1001100004040404040202020202020303030303B0
:10012000030102040810204080010204081020018D
:100130000204081020000000070002010000030470
:1001400006000000000000000000D716381C112433
:100150001FBECFEFD8E0DEBFCDBF12E0A0E0B1E020
:10016000EAE9F4E402C005900D92A23BB107D9F789
:1001700015E0A2EBB2E001C01D92A735B107E1F78F
:1001800011E0CEE4D1E004C02297FE010E94472294
:10019000CA34D107C9F70E94651E0C944B220C94F7
:1001A0000000CF92DF92EF92FF920F931F93CF93B5
:1001B000DF9380916D02882309F458C045EB52E02B
:1001C000CDECD2E091ECC92E92E0D92E69ED72E02F
:1001D00001EF12E085EEE82E82E0F82E23E030E019
:1001E000FA0181919191A191B191AF018993999374
:1001F000A993B993F60181939193A193B1936F0160
:10020000FB0181919191A191B191BF01F80181937D
:100210009193A193B1938F01F70181939193A1934E
:10022000B1937F0121503040D9F6109222031092F1
:10023000210380E090E0DC0180931D0390931E0376
:10024000A0931F03B09320038093190390931A0384
:10025000A0931B03B0931C03809315039093160384
:10026000A0931703B093180310926D02DF91CF9102
:100270001F910F91FF90EF90DF90CF90089581E054
:100280008093C7038DE061E00E94401A08951092A8
:10029000C7038DE060E00E94401A089588E395E06E
:1002A0000E94781A18161906CCF788E395E00E9488
:1002B000A71A08952F923F924F925F926F927F926A
:1002C0008F929F92AF92BF92CF92DF92EF92FF9266
:1002D0000F931F93DF93CF93CDB7DEB72C970FB655
:1002E000F894DEBF0FBECDBFE090B703F090B80327
:1002F0000091B9031091BA03C801B7010E94561FBB
:1003000069877A878B879C87C801B7010E949C21E7
:100310005B016C01E090B303F090B4030091B5036E
:100320001091B603C801B7010E94561F69837A83F2
:100330008B839C83C801B7010E949C211B012C0167
:10034000E090DD02F090DE020091DF021091E00209
:100350006090E1027090E2028090E3029090E402EB
:10036000C801B70129853A854B855C850E943921F2
:100370006D837E838F839887C401B301A6019501A5
:100380000E9439219B01AC016D817E818F8198850E
:100390000E94741E9B01AC0150582D833E834F83F5
:1003A000588769817A818B819C812091D902309113
:1003B000DA024091DB025091DC020E94392169830C
:1003C0007A838B839C83C801B701A60195010E94A3
:1003D0003921A20191010E9439219B01AC0169815F
:1003E0007A818B819C810E94751E7B018C01C401E6
:1003F000B30129853A854B855C850E943921A2018C
:1004000091010E9439219B01AC01C801B7010E94F2
:10041000751E9B01AC016D817E818F8198850E9444
:10042000FF1E609327037093280380932903909302
:100430002A032C960FB6F894DEBF0FBECDBFCF9126
:10044000DF911F910F91FF90EF90DF90CF90BF90C1
:10045000AF909F908F907F906F905F904F903F9064
:100460002F90089560913D0270913E0280913F026D
:10047000909140020E94D91E90586093B3037093EC
:10048000B4038093B5039093B603609141027091D9
:1004900042028091430290914402209145023091A2
:1004A000460240914702509148020E94FF1E60930D
:1004B000B7037093B8038093B9039093BA03609124
:1004C0003102709132028091330290913402209176
:1004D00025023091260240912702509128020E9465
:1004E000FF1E6093AF037093B0038093B1039093AA
:1004F000B2030895AF92BF92CF92DF92EF92FF9234
:100500000F931F93CF93DF93C82ED92EA62EB72E0D
:10051000C3E0D0E010E000E0FF24EE24F60161919A
:100520007191819191916F01F501219131914191E9
:1005300051915F010E9439219B01AC01D801F70163
:100540006B2F702F8F2F9E2D0E94751E162F072F39
:10055000F82EE92E219711F7A8019701652F742F26
:10056000832F922FDF91CF911F910F91FF90EF90EA
:10057000DF90CF90BF90AF900895AF92BF92CF928F
:10058000DF92EF92FF920F931F93CF93DF937C0143
:10059000EB018A016C817D818E819F81FA0120852A
:1005A0003185428553850E9439215B016C01688544
:1005B00079858A859B85F80124813581468157811B
:1005C0000E9439219B01AC01C601B5010E94741E35
:1005D000F7016083718382839383688579858A8537
:1005E0009B85F80120813181428153810E9439210C
:1005F0005B016C01688179818A819B81F80120858A
:100600003185428553850E9439219B01AC01C60189
:10061000B5010E94741EF7016483758386839783F6
:10062000688179818A819B81F801248135814681A5
:1006300057810E9439215B016C016C817D818E8123
:100640009F81F80120813181428153810E943921AB
:100650009B01AC01C601B5010E94741EF7016087C1
:10066000718782879387DF91CF911F910F91FF90C0
:10067000EF90DF90CF90BF90AF900895CF92DF9230
:10068000EF92FF920F931F93CF93DF936C01EB01D7
:1006900079018A01688179818A819B810E9439214F
:1006A000F60160837183828393836C817D818E8167
:1006B0009F81A80197010E943921F6016483758307
:1006C00086839783688579858A859B85A8019701AC
:1006D0000E943921F6016087718782879387DF91B5
:1006E000CF911F910F91FF90EF90DF90CF900895E1
:1006F000CF92DF92EF92FF920F931F93CF93DF93EE
:10070000062F172FE42EF52EC82ED92EC0E0D0E0EC
:10071000F80161917191819191918F01F70121917E
:100720003191419151917F010E94751EF6016193B3
:100730007193819391936F012196C330D10541F755
:10074000DF91CF911F910F91FF90EF90DF90CF90AD
:1007500008956F927F928F929F92AF92BF92CF92A5
:10076000DF92EF92FF920F931F9320912B03309112
:100770002C0340912D0350912E03E0902F03F09015
:1007800030030091310310913203A0903303B090F5
:100790003403C0903503D0903603CA01B9010E94DA
:1007A00039213B014C01C801B701A80197010E9402
:1007B00039219B01AC01C401B3010E94751E7B016C
:1007C0008C01C601B501A60195010E9439219B014A
:1007D000AC01C801B7010E94751E0E94A62120E04D
:1007E00030E040E85BE30E9439219B01AC0160E00E
:1007F00070E080E89FE30E94741EF62E072F182FEA
:10080000E92E20E030E0A9010E942E211816D4F430
:100810006F2D702F812F9E2D2F2D302F412F5E2D6C
:100820000E94751E9B01AC0160E070E080E89FE3D0
:100830000E94741E20E030E0A9010E94521F87FF31
:1008400019C075C06F2D702F812F9E2D2F2D302F29
:10085000412F5E2D0E94751E20E030E040E85FE3EE
:100860000E94751E20E030E0A9010E94521F87FF00
:100870001DC05DC06F2D702F812F9E2D2F2D302F0D
:10088000412F5E2D0E94751E9B01AC0160E070E05F
:1008900080E89FE30E94741E20E030E040E85FE3C0
:1008A0000E942E2118160CF447C019C06F2D702F0E
:1008B000812F9E2D2F2D302F412F5E2D0E94751ED2
:1008C00020E030E040E85FE30E94751E20E030E069
:1008D00040E85FE30E942E21181674F113C06F2DBB
:1008E000702F812F9E2D2F2D302F412F5E2D0E9496
:1008F000751E9B01AC0160E070E080E89FE30E9400
:10090000741E10C06F2D702F812F9E2D2F2D302F14
:10091000412F5E2D0E94751E20E030E040E85FE32D
:100920000E94751EF62E072F182FE92E0AC0FF24ED
:1009300000E010E0EE2405C0FF2400E010E82FE303
:10094000E22E83E793E06BE273E04DE352E00E9416
:10095000BD026F2D702F812F9E2D2AE037ED43EAC7
:100960005CE30E9439219B01AC018FE493E063E7D3
:1009700073E00E943E036F2D702F812F9E2D2CEA75
:1009800035EC47EA57E30E9439219B01AC0181ED28
:1009900093E063E773E00E943E038BE593E0BC01C4
:1009A00041ED53E00E947803E0902703F090280384
:1009B0000091290310912A03C801B7010E94561F14
:1009C0005B016C01C801B7010E949C2120912502A6
:1009D0003091260240912702509128020E9439212D
:1009E0007B018C01C601B5012091310230913202A8
:1009F00040913302509134020E9439219B01AC0195
:100A0000C801B7010E94741E9B01AC018FE793E0FF
:100A10006DE372E00E943E038DED93E06FE773E0BB
:100A20002AE939E949E95FE30E943E038FE493E054
:100A3000BC014DED53E00E94780381ED93E06FE738
:100A400073E02CEA35EC47EA57E30E943E038BE55E
:100A500093E0BC0141ED53E00E9478031F910F9198
:100A6000FF90EF90DF90CF90BF90AF909F908F90CE
:100A70007F906F9008956F927F928F929F92AF9226
:100A8000BF92CF92DF92EF92FF920F931F93DF936B
:100A9000CF93CDB7DEB7A4970FB6F894DEBF0FBEE5
:100AA000CDBF65E2C62E62E0D62E5CE0652E712CCD
:100AB0006C0C7D1CC601B3010E947A02905820E0A4
:100AC00030E040E05FE30E9439215B01982E892EDF
:100AD0008E010F5F1F4FC801B301F4012A2D3B2D7A
:100AE0004F2F5E2F0E943E034DE0E42EF12CEC0EC2
:100AF000FD1EC701B601F4012A2D3B2D4F2F5E2F9D
:100B00000E943E03C801B801A6010E947803C701F4
:100B1000B701A3010E94780339E1A32EB12CAC0EDA
:100B2000BD1EC501B801A7010E94BD02C801B801E0
:100B30000E947A029B01AC0160E070E080E490E4E6
:100B40000E94741E20E030E040E05FE30E94392103
:100B50009B01AC01C601B8010E943E03C701B70169
:100B60000E947A029B01AC0160E070E080E490E4B6
:100B70000E94741E20E030E040E05FE30E943921D3
:100B80009B01AC01C301B7010E943E03C501B50141
:100B90000E947A029B01AC0160E070E080E490E486
:100BA0000E94741E20E030E040E05FE30E943921A3
:100BB0009B01AC018DE392E0B5010E943E03A49637
:100BC0000FB6F894DEBF0FBECDBFCF91DF911F915E
:100BD0000F91FF90EF90DF90CF90BF90AF909F90DC
:100BE0008F907F906F9008952F923F924F925F92D7
:100BF0006F927F928F929F92AF92BF92CF92DF922D
:100C0000EF92FF920F931F93CF93DF93362E272EF1
:100C10003A01082F192FEE24FF2445C069917991DC
:100C200089919991F80120813181428153810E94FB
:100C300039214B015C01F8016481758186819781BE
:100C4000288539854A855B850E9439219B01AC0145
:100C5000C501B4010E94751E4B015C01F80160855D
:100C60007185828593852C893D894E895F890E9493
:100C700039219B01AC01C501B4010E94751EF6012A
:100C800061937193819391936F01C415D50531F6EA
:100C9000ECE0CE2ED12CEC0CFD1C045F1F4F24E2A7
:100CA000E216F10479F0C101E92FEF016E01D22CB7
:100CB000E6016301CE0CDF1C7CE0472E512C4C0E6C
:100CC0005D1EACCFDF91CF911F910F91FF90EF9000
:100CD000DF90CF90BF90AF909F908F907F906F905C
:100CE0005F904F903F902F9008952F923F924F9298
:100CF0005F926F927F928F929F92AF92BF92CF92AC
:100D0000DF92EF92FF920F931F93DF93CF9300D068
:100D100000D0CDB7DEB76091090370910A038091CE
:100D20000B0390910C0326EA36E24FE95AE30E9446
:100D3000392160933703709338038093390390937C
:100D40003A0360910D0370910E0380910F0390910F
:100D5000100326EA36E24FE95AE30E9439216093F4
:100D60003B0370933C0380933D0390933E0360915B
:100D7000110370911203809113039091140326EADA
:100D800036E24FE95AE30E94392160933F037093A2
:100D9000400380934103909342038091B502909168
:100DA000B602A091B702B091B80280932B03909342
:100DB0002C03A0932D03B0932E038091B902909140
:100DC000BA02A091BB02B091BC0280932F03909312
:100DD0003003A0933103B09332038091BD02909110
:100DE000BE02A091BF02B091C002809333039093E2
:100DF0003403A0933503B093360387E693E067E3AB
:100E000073E04BE553E00E94780383E493E067E6E8
:100E100073E04FE453E00E9478030F2EF0E02F2E92
:100E2000F0E03F2EF0E04F2EF0E05F2EF02D20920C
:100E3000490230924A0240924B0250924C02E0909A
:100E4000C303F090C4030091C5031091C60357017A
:100E50006801D7FAD094D7F8D09460904B03709083
:100E60004C0380904D0390904E03C601B501A40140
:100E700093010E94392160934D0270934E0280933A
:100E80004F02909350028091470390914803A091A4
:100E90004903B0914A0389839A83AB83BC83C80119
:100EA000B70129813A814B815C810E94392160938D
:100EB0005102709352028093530290935402C801DE
:100EC000B701A40193010E943921609355027093E8
:100ED0005602809357029093580220925902309202
:100EE0005A0240925B0250925C0260904303709001
:100EF00044038090450390904603C601B501A401C8
:100F000093010E94392160935D0270935E02809389
:100F10005F0290936002C601B50129813A814B813D
:100F20005C810E9439216093610270936202809318
:100F3000630290936402C801B701A40193010E9467
:100F400039216093650270936602809367029093E3
:100F500068022092690230926A0240926B025092BB
:100F60006C0285E292E069E472E04BE853E00E9493
:100F7000F405F5E2EF2EF2E0FF2E0BE813E0D701C7
:100F80006D917D918D919C91F801208131814281FB
:100F900053810E94751ED7016D937D938D939C9311
:100FA000139714966D917D918D919C911797F801EF
:100FB00024813581468157810E94751ED701149680
:100FC0006D937D938D939C93179718966D917D915A
:100FD0008D919C911B97F801208531854285538521
:100FE0000E94751ED70118966D937D938D939C93E7
:100FF0001B97ECE0F0E0EE0EFF1E045F1F4FF9E4DC
:10100000EF16F2E0FF0609F0BACF0F900F900F90A5
:101010000F90CF91DF911F910F91FF90EF90DF9094
:10102000CF90BF90AF909F908F907F906F905F9088
:101030004F903F902F9008958F929F92AF92BF92C2
:10104000CF92DF92EF92FF920F931F93CF93DF9394
:101050008B01E82EE7017E01F92EE701C42ED52E83
:10106000EE24FF24688179818A819B81F8012081A7
:101070003181428153810E9439214B015C016C8195
:101080007D818E819F81F801248135814681578140
:101090000E9439219B01AC01C501B4010E94751E5B
:1010A0004B015C01688579858A859B85F8012085DF
:1010B0003185428553850E9439219B01AC01C501D0
:1010C000B4010E94751EF60161937193819391930F
:1010D0006F010894E11CF11C2C96F3E0EF16F1046B
:1010E00009F6DF91CF911F910F91FF90EF90DF9064
:1010F000CF90BF90AF909F908F9008956091B50270
:101100007091B6028091B7029091B80220E030E071
:1011100044E851E40E94751E25E037ED46E75FE3A1
:101120000E9439216093B5027093B6028093B70292
:101130009093B8026091B9027091BA028091BB029B
:101140009091BC0220E030E048E651E40E94741E19
:1011500024E339EA49E75FE30E9439216093B90249
:101160007093BA028093BB029093BC026091BD025F
:101170007091BE028091BF029091C00220E030E0E9
:101180004CEE51E40E94751E24E339EA49E75FE31F
:101190000E9439216093BD027093BE028093BF020A
:1011A0009093C0026091D9027091DA028091DB02C3
:1011B0009091DC022EEE3BE247E252E40E94741E64
:1011C0006093FD027093FE028093FF0290930003F0
:1011D0006091DD027091DE028091DF029091E00269
:1011E00027ED34E744E352E40E94741E6093010348
:1011F0007093020380930303909304036091E102D0
:101200007091E2028091E3029091E40226EF38ECC3
:1012100042E953E40E94751E609305037093060330
:1012200080930703909308038EE692E06DEF72E0DF
:1012300049ED52E00E941C086091090370910A0375
:1012400080910B0390910C0320E030E048E551E4DD
:101250000E94741E6093090370930A0380930B032A
:1012600090930C0360910D0370910E0380910F0316
:101270009091100323EC35EF40E551E40E94741E79
:1012800060930D0370930E0380930F0390931003EC
:1012900060911103709112038091130390911403D4
:1012A00025E83BEE4DE051E40E94741E609311036B
:1012B00070931203809313039093140308952F9255
:1012C0003F924F925F926F927F928F929F92AF92D6
:1012D000BF92CF92DF92EF92FF920F931F93DF9313
:1012E000CF93CDB7DEB764970FB6F894DEBF0FBECD
:1012F000CDBF9C8B8B8B2A013B0148015901C70153
:10130000B6010E94561F6D837E838F839887C70125
:10131000B6010E949C2169877A878B879C87C501CB
:10132000B4010E94561F6D877E878F87988BC501F9
:10133000B4010E949C2169837A838B839C83C301BF
:10134000B2010E94561F4B015C01C301B2010E9411
:101350009C216B017C016D857E858F859889A50117
:1013600094010E943921EB89FC8960837183828317
:101370009383C501B40129853A854B855C850E941C
:101380003921362E272E898B9A8BA101652F742F38
:1013900029813A814B815C810E9439212B013C01DA
:1013A0006D817E818F819885A70196010E943921E8
:1013B0009B01AC01C301B2010E94741EEB89FC8940
:1013C00064837583868397836D817E818F81988501
:1013D000A50194010E943921462E772E682E592EA0
:1013E00069857A858B859C85A70196010E943921A4
:1013F0004B015C01642D772D862D952D29813A8135
:101400004B815C810E9439219B01AC01C501B40173
:101410000E94751EEB89FC8960877187828793879C
:101420008F01045F1F4F6D857E858F859889A70189
:1014300096010E943921EB89FC896487758786872C
:10144000978769857A858B859C8529813A814B812F
:101450005C810E943921A70196010E9439219B01DC
:10146000AC01642D772D862D952D0E94751EF801F7
:1014700064837583868397836D817E818F81988550
:1014800029813A814B815C810E943921A701960113
:101490000E943921D101C9888A882B2F3A2F4C2DDF
:1014A000582D0E94741EF801608771878287938788
:1014B0000B891C89085E1F4F89819A81AB81BC8191
:1014C000B058EB89FC89808F918FA28FB38F6D8587
:1014D0007E858F85988929853A854B855C850E9414
:1014E0003921F80164837583868397836D817E81BA
:1014F0008F8198852D853E854F8558890E94392199
:10150000F801608771878287938764960FB6F89495
:10151000DEBF0FBECDBFCF91DF911F910F91FF9026
:10152000EF90DF90CF90BF90AF909F908F907F9083
:101530006F905F904F903F902F9008956091B5020B
:101540007091B6028091B7029091B8022FE83AE20A
:1015500045E750E40E9439216093B5027093B602CA
:101560008093B7029093B8026091B9027091BA0269
:101570008091BB029091BC022FE83AE245E750E42B
:101580000E9439216093B9027093BA028093BB0222
:101590009093BC026091BD027091BE028091BF0227
:1015A0009091C0022FE83AE245E750E40E943921C9
:1015B0006093BD027093BE028093BF029093C002FD
:1015C0000895AF92BF92CF92DF92EF92FF920F9366
:1015D0001F93DF93CF93CDB7DEB760970FB6F89424
:1015E000DEBF0FBECDBFA090AF03B090B003C090E0
:1015F000B103D090B203C601B50129E038E944E453
:101600005EE30E94751E7B018C017F2D912F20E0EF
:1016100030E0A9010E94521F87FF0CC06E2D7F2D64
:10162000802F912F2BED3FE049EC50E40E94751E76
:101630007B018C018091B2029091B30281309105BF
:1016400009F063C08091230390912403A0912503A6
:10165000B091260389839A83AB83BC83C601B5010D
:1016600021EE3EE245E652E40E9439216D837E83FD
:101670008F8398876E2D7F2D802F912F21EE3EE254
:1016800045E652E40E94392169877A878B879C87D7
:1016900060912703709128038091290390912A0378
:1016A00021EE3EE245E652E40E9439216D877E87B5
:1016B0008F87988B88E395E0BE016B5F7F4F4CE08E
:1016C00050E00E94751C88E395E065EB72E04CE009
:1016D00050E00E94751C88E395E069ED72E04CE0F3
:1016E00050E00E94751C88E395E069E073E04CE0EF
:1016F00050E00E94751C88E395E0BE016F5F7F4F4C
:1017000044E050E00E94751C67C1009709F064C175
:1017100088E395E060E071E00E94B01C40912303F3
:1017200050912403609125037091260388E395E08E
:101730002AE030E00E943D1D88E395E06AE071E018
:101740000E94B01C88E395E06CE071E00E94B01C40
:101750006091AF037091B0038091B1039091B20397
:1017600021EE3EE245E652E40E943921AB01BC0184
:1017700088E395E022E030E00E94621E88E395E075
:101780006AE071E00E94B01C88E395E066E171E0D8
:101790000E94B01C6E2D7F2D802F912F21EE3EE2F6
:1017A00045E652E40E943921AB01BC0188E395E093
:1017B00022E030E00E94621E88E395E06AE071E07A
:1017C0000E94B01C88E395E063E271E00E94B01CC7
:1017D00060912703709128038091290390912A0337
:1017E00021EE3EE245E652E40E943921AB01BC0104
:1017F00088E395E022E030E00E94621E88E395E0F5
:101800006AE071E00E94B01C88E395E065E371E056
:101810000E94B01C4091B5025091B6026091B7028F
:101820007091B80288E395E022E030E00E94621EE9
:1018300088E395E06AE071E00E94B01C88E395E0DF
:1018400069E371E00E94B01C4091B9025091BA0264
:101850006091BB027091BC0288E395E022E030E029
:101860000E94621E88E395E06AE071E00E94B01C6D
:1018700088E395E06DE371E00E94B01C4091BD02E9
:101880005091BE026091BF027091C00288E395E062
:1018900022E030E00E94621E88E395E06AE071E099
:1018A0000E94B01C88E395E061E471E00E94B01CE6
:1018B0004091D9025091DA026091DB027091DC0212
:1018C00088E395E022E030E00E94621E88E395E024
:1018D0006AE071E00E94B01C88E395E065E471E085
:1018E0000E94B01C4091DD025091DE026091DF0247
:1018F0007091E00288E395E022E030E00E94621EF1
:1019000088E395E06AE071E00E94B01C88E395E00E
:1019100069E471E00E94B01C4091E1025091E20242
:101920006091E3027091E40288E395E022E030E008
:101930000E94621E88E395E06AE071E00E94B01C9C
:1019400088E395E06DE471E00E94B01C40910903CA
:1019500050910A0360910B0370910C0388E395E0AA
:1019600022E030E00E94621E88E395E06AE071E0C8
:101970000E94B01C88E395E061E571E00E94B01C14
:1019800040910D0350910E0360910F03709110036D
:1019900088E395E022E030E00E94621E88E395E053
:1019A0006AE071E00E94B01C88E395E065E571E0B3
:1019B0000E94B01C409111035091120360911303D7
:1019C0007091140388E395E022E030E00E94621EEB
:1019D00088E395E00E94BB1C60960FB6F894DEBFCA
:1019E0000FBECDBFCF91DF911F910F91FF90EF9070
:1019F000DF90CF90BF90AF900895DF93CF93CDB796
:101A0000DEB72C970FB6F894DEBF0FBECDBF809126
:101A1000B2029091B3028130910509F040C060910B
:101A2000AF037091B0038091B1039091B20321EEA6
:101A30003EE245E652E40E94392169837A838B8332
:101A40009C836091B3037091B4038091B50390912E
:101A5000B60321EE3EE245E652E40E9439216D8351
:101A60007E838F8398876091B7037091B8038091CC
:101A7000B9039091BA0321EE3EE245E652E40E949A
:101A8000392169877A878B879C8788E395E0BE0137
:101A90006F5F7F4F4CE050E00E94751C5BC0009769
:101AA00009F058C088E395E069E571E00E94B01C38
:101AB0006091AF037091B0038091B1039091B20334
:101AC00021EE3EE245E652E40E943921AB01BC0121
:101AD00088E395E022E030E00E94621E88E395E012
:101AE0006AE071E00E94B01C6091B3037091B4038E
:101AF0008091B5039091B60321EE3EE245E652E4B3
:101B00000E943921AB01BC0188E395E022E030E07E
:101B10000E94621E88E395E06AE071E00E94B01CBA
:101B20006091B7037091B8038091B9039091BA03A3
:101B300021EE3EE245E652E40E943921AB01BC01B0
:101B400088E395E022E030E00E94621E88E395E0A1
:101B50000E94BB1C2C960FB6F894DEBF0FBECDBF03
:101B6000CF91DF9108954F925F926F927F928F9203
:101B70009F92AF92BF92CF92DF92EF92FF920F931C
:101B80001F93CF93DF93009709F06DC088E395E032
:101B90006FE571E00E94B01C15EB812E12E0912ED2
:101BA000C1ECD2E00DEC12E0AA24BB24F401C190F8
:101BB000D190E190F1904F013E01C701B60128811B
:101BC00039814A815B810E94521F87FF04C0C8820D
:101BD000D982EA82FB822801C701B601F80120817F
:101BE0003181428153810E942E2118162CF4F80174
:101BF000C082D182E282F3822496F3014081518136
:101C00006281738188E395E022E030E00E94621EE9
:101C100088E395E068E771E00E94B01C0C5F1F4FFD
:101C2000F201408151816281738188E395E022E075
:101C300030E00E94621EF2E0AF16B10439F088E392
:101C400095E06AE771E00E94B01C04C088E395E06B
:101C50000E94BB1C0894A11CB11C83E0A816B1040F
:101C600009F0A4CF1DC18130910509F06DC088E352
:101C700095E06DE771E00E94B01CB9ED8B2EB2E0EB
:101C80009B2EC5EED2E001EF12E0AA24BB24F401A2
:101C9000C190D190E190F1904F013E01C701B60192
:101CA000288139814A815B810E94521F87FF04C0CD
:101CB000C882D982EA82FB822801C701B601F801F5
:101CC00020813181428153810E942E2118162CF4EB
:101CD000F801C082D182E282F3822496F30140812E
:101CE00051816281738188E395E022E030E00E94B7
:101CF000621E88E395E068E771E00E94B01C0C5F0B
:101D00001F4FF201408151816281738188E395E028
:101D100022E030E00E94621EF2E0AF16B10439F01A
:101D200088E395E06AE771E00E94B01C04C088E394
:101D300095E00E94BB1C0894A11CB11C83E0A8166E
:101D4000B10409F0A4CFACC08230910509F0A8C05D
:101D500060911503709116038091170390911803F9
:101D60002091090330910A0340910B0350910C0319
:101D70000E94751E609315037093160380931703DA
:101D8000909318036091190370911A0380911B03BB
:101D900090911C0320910D0330910E0340910F038D
:101DA000509110030E94751E6093190370931A03DB
:101DB00080931B0390931C0360911D0370911E037D
:101DC00080911F0390912003209111033091120301
:101DD00040911303509114030E94751E60931D03DC
:101DE00070931E0380931F0390932003809121031F
:101DF000909122030196909322038093210388E31C
:101E000095E065E971E00E94B01C09E013E0A5E1EE
:101E1000CA2EA3E0DA2EC0E0D0E0F8014191519142
:101E2000619171918F0188E395E022E030E00E949A
:101E3000621E88E395E068E771E00E94B01CF6013D
:101E400081909190A190B1906F0160912103709168
:101E50002203882777FD8095982F0E94F41F9B010D
:101E6000AC01C501B4010E94591FAB01BC0188E35C
:101E700095E022E030E00E94621EC230D10539F0C8
:101E800088E395E06AE771E00E94B01C04C088E333
:101E900095E00E94BB1C2196C330D10509F0BDCF4F
:101EA000DF91CF911F910F91FF90EF90DF90CF9036
:101EB000BF90AF909F908F907F906F905F904F906A
:101EC0000895FF920F931F93CF93DF93F82EC8E3EB
:101ED000D5E0CE0165EB71E00E94B01CCE016F2D04
:101EE0000E94B31CCE016DE30E94B31C4091B50269
:101EF0005091B6026091B7027091B802CE0122E013
:101F000030E00E94621E0AE011E0CE01B8010E949A
:101F1000B01C4091B9025091BA026091BB0270911D
:101F2000BC02CE0122E030E00E94621ECE01B80168
:101F30000E94B01C4091BD025091BE026091BF0250
:101F40007091C002CE0122E030E00E94621ECE01FC
:101F50000E94BB1CCE0169EB71E00E94B01CCE0157
:101F60006F2D0E94B31CCE016DE30E94B31C409103
:101F7000D9025091DA026091DB027091DC02CE014D
:101F800022E030E00E94621ECE01B8010E94B01C27
:101F90004091DD025091DE026091DF027091E0021B
:101FA000CE0122E030E00E94621ECE01B8010E9404
:101FB000B01C4091E1025091E2026091E302709105
:101FC000E402CE0122E030E00E94621ECE010E94B7
:101FD000BB1CCE016DEB71E00E94B01CCE016F2DD9
:101FE0000E94B31CCE016DE30E94B31C4091090313
:101FF00050910A0360910B0370910C03CE0122E013
:1020000030E00E94621ECE01B8010E94B01C4091D7
:102010000D0350910E0360910F0370911003CE01D8
:1020200022E030E00E94621ECE01B8010E94B01C86
:1020300040911103509112036091130370911403A6
:10204000CE0122E030E00E94621ECE010E94BB1C45
:10205000DF91CF911F910F91FF900895CF93DF9360
:10206000C8E3D5E0CE0165EB72E04CE050E00E94A1
:10207000751CCE0169ED72E04CE050E00E94751CC9
:10208000CE0169E073E04CE050E00E94751CDF91E6
:10209000CF9108958091230290912402833091057D
:1020A00059F48091B2029091B3028130910521F1EF
:1020B000009779F582E50FC08230910579F40E948E
:1020C0007E088091B2029091B30281309105A1F017
:1020D0000097F9F483E40E94610F0895843091051C
:1020E000C1F48091B2029091B3028130910539F42C
:1020F0000E942E100E947E080E942E1008950097C4
:1021000041F482E50E94610F0E947E0883E40E94F0
:10211000610F08958FE294E00E949F160895CF9377
:10212000DF93CFE2D4E0CE0163E570E00E94C416F5
:10213000CE016DE20E946F16CE0168E00E946F161C
:10214000CE010E94C71665E070E080E090E00E943A
:102150008D19CE0163E570E00E94C416CE0161E3E3
:102160000E946F16CE0168E00E946F16CE010E9499
:10217000C71665E070E080E090E00E948D19CE0106
:1021800063E570E00E94C416CE016CE20E946F16F7
:10219000CE0169E00E946F16CE010E94C71665E06D
:1021A00070E080E090E00E948D19DF91CF9108955A
:1021B000EF92FF920F931F93DF93CF9300D000D045
:1021C00000D0CDB7DEB78FE294E063E570E00E9407
:1021D000C4168FE294E062E30E946F168FE294E0EF
:1021E0000E94C7168FE294E063E570E00E94C41677
:1021F0008FE294E063E570E046E050E00E94B7169D
:102200007E010894E11CF11C00E010E009C08FE29F
:1022100094E00E941816F70181937F010F5F1F4F12
:102220008FE294E00E940F16009789F78FE294E006
:102230000E94C71606301105E9F59C8180E06B818C
:1022400070E0682B792B882777FD8095982F0E9466
:10225000F41F6093B5027093B6028093B702909317
:10226000B8029A8180E0698170E0682B792B882719
:1022700077FD8095982F0E94F41F6093B9027093A8
:10228000BA028093BB029093BC029E8180E06D8174
:1022900070E0682B792B882777FD8095982F0E9416
:1022A000F41F6093BD027093BE028093BF029093AF
:1022B000C00213C08091CB039091CC030196909300
:1022C000CC038093CB038091B402882331F088E360
:1022D00095E061EC71E00E94D01C26960FB6F89450
:1022E000DEBF0FBECDBFCF91DF911F910F91FF9049
:1022F000EF900895CF93DF93CFE2D4E0CE016EE16B
:1023000070E00E94C416CE0162E00E946F16CE01FA
:1023100060E00E946F16CE010E94C71665E070E073
:1023200080E090E00E948D19CE016EE170E00E9485
:10233000C416CE0160E00E946F16CE0168E10E94D3
:102340006F16CE010E94C71665E070E080E090E055
:102350000E948D19DF91CF910895EF92FF920F9314
:102360001F93DF93CF9300D000D000D0CDB7DEB75E
:102370008FE294E06EE170E00E94C4168FE294E078
:1023800063E00E946F168FE294E00E94C7168FE20E
:1023900094E06EE170E00E94C4168FE294E06EE17A
:1023A00070E046E050E00E94B7167E010894E11C00
:1023B000F11C00E010E009C08FE294E00E941816C2
:1023C000F70181937F010F5F1F4F8FE294E00E941E
:1023D0000F16009789F78FE294E00E94C716063027
:1023E000110509F046C09D8180E06E8170E0682B88
:1023F000792B709561957F4F882777FD8095982F71
:102400000E94F41F6093D9027093DA028093DB027A
:102410009093DC02998180E06A8170E0682B792BCF
:10242000709561957F4F882777FD8095982F0E9442
:10243000F41F6093DD027093DE028093DF029093BD
:10244000E0029B8180E06C8170E0682B792B7095B5
:1024500061957F4F882777FD8095982F0E94F41F04
:102460006093E1027093E2028093E3029093E402AE
:1024700013C08091CD039091CE0301969093CE032B
:102480008093CD038091B402882331F088E395E0F6
:102490006DED71E00E94D01C26960FB6F894DEBF59
:1024A0000FBECDBFCF91DF911F910F91FF90EF90A5
:1024B0000895CF93DF93CFE2D4E0CE0168E670E0D9
:1024C0000E94C416CE016EE30E946F16CE0160E832
:1024D0000E946F16CE010E94C71665E070E080E092
:1024E00090E00E948D19CE0168E670E00E94C4164B
:1024F000CE0166E10E946F16CE016BE10E946F165D
:10250000CE010E94C71665E070E080E090E00E9476
:102510008D19CE0168E670E00E94C416CE0165E117
:102520000E946F16CE016AE00E946F16CE010E94D3
:10253000C71665E070E080E090E00E948D19CE0142
:1025400068E670E00E94C416CE016EE30E946F162A
:10255000CE0160E00E946F16CE010E94C71665E0B2
:1025600070E080E090E00E948D19DF91CF91089596
:10257000EF92FF920F931F93DF93CF9300D000D081
:1025800000D0CDB7DEB78FE294E068E670E00E943D
:10259000C4168FE294E06DE10E946F168FE294E022
:1025A0000E94C7168FE294E068E670E00E94C416AD
:1025B0008FE294E068E670E046E050E00E94B716D3
:1025C0007E010894E11CF11C00E010E009C08FE2DC
:1025D00094E00E941816F70181937F010F5F1F4F4F
:1025E0008FE294E00E940F16009789F78FE294E043
:1025F0000E94C7160630110509F046C09B8180E095
:102600006C8170E0682B792B709561957F4F8827DE
:1026100077FD8095982F0E94F41F609309037093B3
:102620000A0380930B0390930C03998180E06A81E5
:1026300070E0682B792B709561957F4F882777FD27
:102640008095982F0E94F41F60930D0370930E03E2
:1026500080930F03909310039D8180E06E8170E062
:10266000682B792B709561957F4F882777FD809532
:10267000982F0E94F41F60931103709312038093AC
:1026800013039093140313C08091CF039091D00350
:1026900001969093D0038093CF038091B402882356
:1026A00031F088E395E068EF71E00E94D01C269637
:1026B0000FB6F894DEBF0FBECDBFCF91DF911F9153
:1026C0000F91FF90EF9008950E94B8120E94D810C9
:1026D0000E94AD1108951F93DF93CF9300D0CDB723
:1026E000DEB788E395E00E94781A823091050CF4F9
:1026F000E6C088E395E00E94A71A8332910509F0AD
:10270000DEC088E395E00E94A71A8636910521F481
:1027100081E08093C803D3C083379105D1F40E9430
:102720004E0189830E944E018A8388E395E060E12F
:1027300072E00E94B01C88E395E0BE016F5F7F4F9E
:1027400042E050E00E94751C88E395E00E94BB1CAB
:10275000B6C08F36910509F0B2C00E944E018D3689
:1027600049F485E090E090932402809323020E9434
:102770004E0145C08E3671F48091C9039091CA0311
:10278000019663E070E00E94FC219093CA0380935D
:10279000C90318C0843739F481E090E09093240293
:1027A000809323022EC0823639F481E090E090932A
:1027B0002402809323022FC0833641F41092240216
:1027C0001092230281E080936D0279C0833741F536
:1027D0000E944E01182F0E944E01123719F423E077
:1027E00030E009C0133619F422E030E004C012369C
:1027F00031F424E030E03093240220932302843724
:1028000029F41092B3021092B20259C0823609F034
:1028100056C081E090E09093B3028093B2024FC023
:10282000803319F40E944701CDCF813331F481E028
:1028300080936D020E943F0142C0853609F03FC07F
:102840000E944E01803319F41092B40238C08133D3
:1028500021F481E08093B40232C0833681F588E3AD
:1028600095E067E172E00E94B01C6091CB0370912B
:10287000CC0388E395E04AE050E00E94871D88E39E
:1028800095E06AE071E00E94B01C6091CD03709108
:10289000CE0388E395E04AE050E00E94871D88E37C
:1028A00095E06AE071E00E94B01C6091CF037091E6
:1028B000D00388E395E04AE050E00E94911D0E9419
:1028C00059192091BB033091BC034091BD03509135
:1028D000BE03621B730B840B950B6431710581057C
:1028E000910508F4A5C02093BF033093C003409323
:1028F000C1035093C2030E9459196093BB037093A4
:10290000BC038093BD039093BE032091BF0330911D
:10291000C0034091C1035091C203261737074807EF
:102920005907A8F4621B730B840B950B0E94F21FCE
:1029300020E030E04AE754E40E94591F6093C3034B
:102940007093C4038093C5039093C6030BC080E0CB
:1029500090E0DC018093C3039093C403A093C5036C
:10296000B093C6030E9464138091230290912402C5
:10297000009791F40E94D1008091C703882329F425
:102980008091C803882309F451C08091C9039091B4
:10299000CA030E94B30D4AC08530910519F50E9403
:1029A0007E080E945A010E9475060E943B050E9403
:1029B000A9030E9432020E949E0A0E945919609344
:1029C000230370932403809325039093260380911F
:1029D000C703882321F48091C803882339F10E941A
:1029E000E10A24C081309105B9F40E947E080E945A
:1029F0005A010E9475060E943B050E94A9030E948D
:102A000032028091C703882321F48091C803882370
:102A100069F00E94FD0C0AC08091C703882321F44D
:102A20008091C803882311F00E944A101092C803B5
:102A30000F900F90CF91DF911F910895AF92BF92A9
:102A4000CF92DF92EF92FF920F931F93DF93CF937A
:102A5000CDB7DEB7A4970FB6F894DEBF0FBECDBFDB
:102A600080E090E0A0E8BFE3898F9A8FAB8FBC8FA6
:102A700080E090E0DC018D8F9E8FAF8FB8A389A39B
:102A80009AA3ABA3BCA30E9464130E94591960933C
:102A9000BB037093BC038093BD039093BE0320914E
:102AA000B9023091BA024091BB025091BC02E09051
:102AB000BD02F090BE020091BF021091C002CA0197
:102AC000B9010E9439215B016C01C801B701A8015D
:102AD00097010E9439219B01AC01C601B5010E94FA
:102AE000751E0E94A6219B01AC0189EBE82E82E0B5
:102AF000F82EF70192918291729162917F010E946A
:102B0000FF1E90586093B3037093B4038093B50392
:102B10009093B60309E1C02ED12CCC0EDD1E8E01A0
:102B20000F5F1F4FC801B701A6010E94BD02CE0171
:102B30000D96B601A8010E94BD0269897A898B8928
:102B40009C892D893E894F89588D0E94FF1E609374
:102B5000B7037093B8038093B9039093BA030E94AC
:102B60005A014091270350912803609129037091E5
:102B70002A034093AF035093B0036093B103709363
:102B8000B2030091B3031091B4032091B5033091C7
:102B9000B603C090B703D090B803E090B903F090AB
:102BA000BA0385E292E00E945F09A4960FB6F894FA
:102BB000DEBF0FBECDBFCF91DF911F910F91FF9070
:102BC000EF90DF90CF90BF90AF90089588E395E0AD
:102BD00040E051EE60E070E00E94A91B8DE061E0F2
:102BE0000E941C1A8DE060E00E94401A62E370E0CF
:102BF00080E090E00E948D190E948A100E948F1040
:102C00000E947A110E94591264E170E080E090E025
:102C10000E948D190E941E150E944701089520915F
:102C20000A0430E080910904281B3109C901089584
:102C30008091090490910A04891750F4E82FF0E07C
:102C4000E751FC4F208130E08F5F8093090402C080
:102C50002FEF3FEFC9010895E091090480910A0424
:102C6000E81730F4F0E0E751FC4F208130E002C07B
:102C70002FEF3FEFC90108950895CF92DF92EF92B1
:102C8000FF920F931F93CF93DF936C01CB01EA0167
:102C900020912E042223B1F0E62EF92E00E010E060
:102CA0000DC0D7016D917D01D601ED91FC91019090
:102CB000F081E02DC60109950F5F1F4F0C171D070E
:102CC00080F303C0642F0E947D17CE01DF91CF9166
:102CD0001F910F91FF90EF90DF90CF900895DF93B9
:102CE000CF930F92CDB7DEB7698320912E042223B4
:102CF000D1F020912D04203240F021E030E0FC01A1
:102D00003383228320E030E015C080912C04E82F2B
:102D1000F0E0E45FFB4F998190838F5F80932C04F8
:102D200080932D0405C0CE01019661E00E947D17BD
:102D300021E030E0C9010F90CF91DF91089510920A
:102D4000090410920A0410922C0410922D040E947F
:102D5000EE160895862F413208F040E269EE73E0E6
:102D60000E9407171092090480930A0408950E9494
:102D7000AA16089581E080932E0460930B041092AC
:102D80002C0410922D0408950E94BA160895809183
:102D90000B046CE074E040912D0421E00E943D178B
:102DA00010922C0410922D0410922E04089510926B
:102DB00032041092310488EE93E0A0E0B0E08093FA
:102DC000330490933404A0933504B093360486E919
:102DD00092E09093300480932F04089510925F0442
:102DE00082E161E00E94401A83E161E00E94401AA2
:102DF000E9EBF0E080818E7F808380818D7F80830E
:102E000080E28093B80085E48093BC00089541324D
:102E100088F590915F049923E1F791E090935F0426
:102E20009FEF90935E0410923C04942F91509093E6
:102E30003D04880F816080933B0485EE8093BC0045
:102E400080915F048130E1F380913C04841710F499
:102E500040913C04EEE3F4E0262F372FD901242FD4
:102E600030E02E0F3F1F02C081918D93E217F307D0
:102E7000D9F701C040E0842F08954132B0F5909118
:102E80005F049923E1F792E090935F049FEF9093A2
:102E90005E0410923C0440933D04DB01EEE3F4E059
:102EA00050E04E0F5F1F02C09D919193E417F5070C
:102EB000D9F790E0880F991F80933B0485EE8093AB
:102EC000BC00222321F080915F048230E1F38091E5
:102ED0005E048F3F61F080915E04803251F08091FA
:102EE0005E04803341F483E0089581E0089580E03A
:102EF000089582E0089584E008956132A0F420915D
:102F00005F04243091F460938404DC01E7E8F4E08A
:102F100070E06E0F7F1F02C08D918193E617F70757
:102F2000D9F780E0089581E0089582E0089588232C
:102F300011F085EC01C085E88093BC00089585ED13
:102F40008093BC008091BC0084FDFCCF10925F0494
:102F5000089585EC8093BC0010925F0408951F9241
:102F60000F920FB60F9211242F933F934F935F93BD
:102F70006F937F938F939F93AF93BF93EF93FF9341
:102F80008091B90090E0887F90708036910509F4B7
:102F9000C2C081369105E4F58832910509F47EC0FE
:102FA00089329105C4F48031910509F472C08131F0
:102FB000910544F4009709F413C18830910509F094
:102FC00013C167C08831910509F468C0803291054A
:102FD00009F00AC178C08034910509F48AC08134AF
:102FE00091054CF48033910509F46FC08833910545
:102FF00009F0FAC06EC08035910509F46EC08835BD
:10300000910509F47BC08834910509F0EDC0EAC050
:103010008839910509F4DAC089399105ECF48837CB
:10302000910509F478C0893791054CF488369105EB
:1030300009F471C08037910509F0D6C06CC088389A
:10304000910509F4C3C08039910509F46AC080383C
:10305000910509F0C9C065C0803B910509F48EC097
:10306000813B91054CF4803A910509F46CC0883A93
:10307000910509F0B9C082C0803C910509F4AAC04D
:10308000883C910509F4A6C0883B910509F0ACC0C5
:103090008AC080913B048093BB0013C090913C0494
:1030A00080913D04981708F09DC080913C04E82F62
:1030B000F0E0E25CFB4F90819093BB008F5F8093C8
:1030C0003C0481E084C080E201C080E380935E0420
:1030D00089C088E380935E044EC080913C04909147
:1030E000BB00E82FF0E0E25CFB4F90838F5F8093A2
:1030F0003C0490913C0480913D0465C080913C0467
:103100009091BB00E82FF0E0E25CFB4F90838F5F73
:1031100080933C0467C083E080935F041092600456
:10312000D0CF80916004803208F050C0809160045C
:103130009091BB00E82FF0E0EF59FB4F90838F5F39
:1031400080936004BECF80916004803230F4E091BF
:103150006004F0E0EF59FB4F10820E949F176091CE
:103160006004E0918104F091820481E694E070E0D3
:103170000995109260040E94A91736C084E08093DC
:103180005F041092830410928404E0918504F0910E
:103190008604099580918404882329F481E0809332
:1031A00084041092870480918304E82FF0E0E957AB
:1031B000FB4F90819093BB008F5F8093830490912D
:1031C000830480918404981708F47BCF80E00E94E8
:1031D00097170AC081E00E94971710925F0404C0FD
:1031E00010925E040E949F17FF91EF91BF91AF91E3
:1031F0009F918F917F916F915F914F913F912F910F
:103200000F900FBE0F901F9018951F920F920FB640
:103210000F9211242F933F934F935F936F937F935C
:103220008F939F93AF93BF932091AB043091AC04E5
:103230004091AD045091AE047091AF04DA01C90120
:103240000296A11DB11D672F6A5F6D3730F06D5773
:10325000DA01C9010396A11DB11D6093AF048093EB
:10326000AB049093AC04A093AD04B093AE048091F2
:10327000A7049091A804A091A904B091AA04019672
:10328000A11DB11D8093A7049093A804A093A90445
:10329000B093AA04BF91AF919F918F917F916F914D
:1032A0005F914F913F912F910F900FBE0F901F9004
:1032B00018958FB7F8942091AB043091AC044091ED
:1032C000AD045091AE048FBFB901CA0108959FB7F4
:1032D000F8942091A7043091A8044091A90450913A
:1032E000AA0486B5A89B06C08F3F21F02F5F3F4FF1
:1032F0004F4F5F4F9FBF542F432F322F2227280F4E
:10330000311D411D511D83E0220F331F441F551FE6
:103310008A95D1F7B901CA010895EF92FF920F93F0
:103320001F93CF93DF937B018C010E946719EB0100
:103330000FC00E9467196C1B7D0B83E0683E780705
:1033400038F00894E108F10801091109C851DC4F6F
:10335000E114F1040105110561F7DF91CF911F918F
:103360000F91FF90EF900895789484B5826084BDAA
:1033700084B5816084BD85B5826085BD85B5816079
:1033800085BDEEE6F0E0808181608083E1E8F0E0D9
:103390001082808182608083808181608083E0E808
:1033A000F0E0808181608083E1EBF0E080818460E7
:1033B0008083E0EBF0E0808181608083EAE7F0E0E9
:1033C000808184608083808182608083808181604D
:1033D00080838081806880831092C100089583304B
:1033E00071F0843028F48130A1F0823021F514C0CE
:1033F0008630B1F08730D1F08430E9F404C0809198
:1034000080008F7703C0809180008F7D8093800043
:10341000089584B58F7702C084B58F7D84BD0895EB
:103420008091B0008F778093B00008958091B000B4
:103430008F7D8093B000089590E0FC01EF5DFE4F1A
:103440002491FC01E35FFE4FE491EE23C1F0F0E034
:10345000EE0FFF1FE151FF4F85919491DC01662330
:1034600041F49FB7F8948C91209582238C939FBF51
:1034700008959FB7F8948C91822B8C939FBF0895E9
:103480000F931F93DF93CF930F92CDB7DEB7282F03
:1034900030E0F901EB5CFE4F8491F901EF5DFE4FE6
:1034A0001491235F3E4FF90104910023D9F0882342
:1034B00021F069830E94EF196981E02FF0E0EE0F9F
:1034C000FF1FE750FF4F85919491DC019FB7F8945F
:1034D000662321F48C911095812302C08C91812B5D
:1034E0008C939FBF0F90CF91DF911F910F91089503
:1034F000FC0184859585FC01E05CFF4F20813181D2
:103500008E5B9F4FFC0180819181281B390B2F73AB
:103510003070C9010895FC0184859585FC01E05C4B
:10352000FF4F40815181FC01EE5BFF4F20813181D3
:103530004217530741F00190F081E02DE80FF91F89
:10354000208130E002C02FEF3FEFC9010895FC0158
:1035500084859585FC01E05CFF4F40815181FC0131
:10356000EE5BFF4F208131814217530771F0A0813C
:10357000B181A80FB91F2C918081918101968F7321
:1035800090709183808330E002C02FEF3FEFC9013C
:103590000895DC011E968D919C911F97FC01E05CC3
:1035A000FF4F8E5B9F4F40815181DC012D913C91FB
:1035B000119742175307B9F708951F93FC01162F6F
:1035C00026853785D901A05CBF4F8D919C910196CE
:1035D00060E470E00E94FC21D901AE5BBF4F4D91C9
:1035E0005C91119784179507D1F3D901A05CBF4F67
:1035F0000D90BC91A02DA20FB31F1C93A685B7857B
:10360000A05CBF4F11969C938E93A689B7892C918D
:1036100081E090E0058C02C0880F991F0A94E2F7C0
:10362000282B2C9381E090E01F910895FB01E05C32
:10363000FF4F208131812F5F3F4F2F733070DB01AF
:10364000AE5BBF4F4D915C9111972417350739F050
:10365000A081B181A60FB71F8C9331832083089579
:1036600008951F920F920FB60F9211242F933F933C
:103670004F935F936F937F938F939F93AF93BF937A
:10368000EF93FF938091C60060EB74E00E94161BDD
:10369000FF91EF91BF91AF919F918F917F916F912A
:1036A0005F914F913F912F910F900FBE0F901F9000
:1036B000189588E395E00E94781A009711F00E940F
:1036C000301B08951F920F920FB60F9211242F9363
:1036D0003F935F936F937F938F939F93AF93BF932A
:1036E000EF93FF9320913405309135058091360595
:1036F000909137052817390731F48091C1008F7DEB
:103700008093C10016C0E0913605F0913705EC506A
:10371000FB4F20818091360590913705019660E43A
:1037200070E00E94FC21909337058093360520932A
:10373000C600FF91EF91BF91AF919F918F917F91C3
:103740006F915F913F912F910F900FBE0F901F903F
:1037500018959F92AF92BF92CF92DF92EF92FF9215
:103760000F931F93CF93DF93EC017A018B01992480
:103770009394EC89FD8981E090E00E8C02C0880F63
:10378000991F0A94E2F7808360E874E88EE190E084
:10379000A80197010E940F22215030404040504024
:1037A000569547953795279590E4A92E92E4B92E22
:1037B0009FE0C92ED12C12C09924EC89FD8910827A
:1037C000C601B501A80197010E940F222150304087
:1037D00040405040569547953795279580E12030D9
:1037E000380710F0992041F7E889F9893083EA8990
:1037F000FB892083EE89FF89408181E090E09C0174
:103800000A8C02C0220F331F0A94E2F7422B408336
:10381000EE89FF8940819C010B8C02C0220F331F6F
:103820000A94E2F7422B4083EE89FF8940819C0194
:103830000C8C02C0220F331F0A94E2F7422B408304
:10384000EE89FF8920810D8C02C0880F991F0A9490
:10385000E2F7809582238083DF91CF911F910F91B2
:10386000FF90EF90DF90CF90BF90AF909F90089522
:1038700010923B0510923A0588EE93E0A0E0B0E08C
:1038800080933C0590933D05A0933E05B0933F0582
:10389000EAE3F5E086EA92E09293829380EB94E08B
:1038A0009587848784EF94E09787868785EC90E0FE
:1038B000918B808B84EC90E0938B828B80EC90E0FA
:1038C000958B848B81EC90E0978B868B86EC90E0D7
:1038D000918F808F84E0828F83E0838F87E0848F55
:1038E00085E0858F81E0868F0895CF92DF92EF92F9
:1038F000FF920F931F93CF93DF936C017B018A019B
:10390000C0E0D0E00FC0D7016D917D01D601ED91EF
:10391000FC910190F081E02DC6010995C80FD91FD7
:10392000015010400115110571F7CE01DF91CF91C3
:103930001F910F91FF90EF90DF90CF900895DB01E2
:103940000D900020E9F7AD0141505040461B570B48
:10395000DC01ED91FC910280F381E02D0995089541
:103960000E949F1C0895DC01ED91FC910190F08173
:10397000E02D099508950F931F93CF93DF93EC01EA
:103980006DE00E94B31C8C01CE016AE00E94B31C62
:10399000080F191FC801DF91CF911F910F91089552
:1039A0000F931F93CF93DF93EC010E949F1C8C0118
:1039B000CE010E94BB1C080F191FC801DF91CF91D7
:1039C0001F910F9108958F929F92AF92BF92CF92C5
:1039D000DF92EF92FF920F931F93DF93CF93CDB7B8
:1039E000DEB7A1970FB6F894DEBF0FBECDBF6C0156
:1039F000042FE52FCB01122F19A2223008F41AE070
:103A000021E2E22EF12CEC0EFD1E812E9924AA2437
:103A1000BB2403C0022FE32FCA01602F7E2FA50114
:103A200094010E940F22129F802D1124081B0894DC
:103A3000E108F1080A3014F4005D01C0095CF701E7
:103A40000083211531054105510521F7C601B70154
:103A50000E949F1CA1960FB6F894DEBF0FBECDBF8B
:103A6000CF91DF911F910F91FF90EF90DF90CF905A
:103A7000BF90AF909F908F9008952115310549F424
:103A8000DC01ED91FC910190F081E02D642F09950E
:103A900008950E94E31C0895CF92DF92EF92FF9267
:103AA0000F931F93CF93DF93EC017A018B012115C4
:103AB000310541F4E881F9810190F081E02D642F16
:103AC00009951AC02A303105A9F477FF12C06DE2BA
:103AD0000E94B31C6C0144275527BA014E195F0997
:103AE000600B710BCE012AE00E94E31CC80ED91EA8
:103AF00004C02AE00E94E31C6C01C601DF91CF9153
:103B00001F910F91FF90EF90DF90CF9008959A0151
:103B1000FB01AF01662757FD6095762F0E944C1D73
:103B200008950F931F93CF93DF93EC019A01CB017C
:103B3000AC01662757FD6095762FCE010E944C1D83
:103B40008C01CE010E94BB1C080F191FC801DF9118
:103B5000CF911F910F9108956F927F929F92AF9294
:103B6000BF92CF92DF92EF92FF920F931F93CF936A
:103B7000DF933C017A018B01C22ECB01BA0120E018
:103B800030E0A9010E94521F87FF0AC0C3016DE205
:103B90000E94B31CEC0117FB109517F9109502C099
:103BA000C0E0D0E0DD2450E040E030E02FE311C081
:103BB000DA01F9016B2F742F8F2F922F20E030E064
:103BC00040E251E40E94591F562F472F382F292FCA
:103BD000D394DC1468F3C801B701DA01F9012B2F83
:103BE000342F4F2F5E2F0E94751E5B01F82E992EE9
:103BF0007B2D0E94C61F162FD72EE82E092F0E945C
:103C0000F21F9B01AC016A2D7B2D8F2D992D0E94F7
:103C1000741E962EA72EB82EF92EC301412F5D2DAE
:103C20006E2D702F2AE030E00E943D1DC80FD91F75
:103C3000CC20B9F1C30161E272E00E949F1CC80F61
:103C4000D91F2FC0692D7A2D8B2D9F2D20E030E0BC
:103C500040E251E40E943921D62EB72EA82E992E8B
:103C60000E94C11F7B010027F7FC0095102FC301A4
:103C7000B801A7012AE030E00E944C1DC80FD91FEF
:103C8000C801B7010E94F41F9B01AC016D2D7B2D73
:103C90008A2D992D0E94741E962EA72EB82EF92ECD
:103CA000CA94CC2079F6CE01DF91CF911F910F916C
:103CB000FF90EF90DF90CF90BF90AF909F907F905C
:103CC0006F9008950E94AC1D0895CF93DF930E94DA
:103CD000B4190E94E615C9E5DBE10E946B13209739
:103CE000E1F30E94591BF9CF5058BB27AA270ED0E9
:103CF0006AC233D230F038D220F031F49F3F11F451
:103D00001EF4F2C10EF4E095E7FBE8C1E92F7DD285
:103D100080F3BA17620773078407950718F071F4E8
:103D20009EF595C20EF4E0950B2EBA2FA02D0B0137
:103D3000B90190010C01CA01A0011124FF27591BF0
:103D400099F0593F50F4503E68F11A16F040A22FF6
:103D5000232F342F4427585FF3CF46953795279567
:103D6000A795F0405395C9F77EF41F16BA0B620B66
:103D7000730B840BBAF09150A1F0FF0FBB1F661FAD
:103D8000771F881FC2F70EC0BA0F621F731F841FF0
:103D900048F4879577956795B795F7959E3F08F016
:103DA000B3CF9395880F08F09927EE0F97958795D5
:103DB00008959F939F77EEE389379E0720F4E8E606
:103DC000F0E0BAD109C04BD19058A2EA2AED3FE009
:103DD00049EC5FE39BDFF7D10F9007FC9058089503
:103DE000BCD158F080E891E009F49EEFBDD128F0F5
:103DF00040E851E059F45EEF09C076C128C2E92FCE
:103E0000E07803D268F3092E052AC1F32617370795
:103E10004807590738F00E2E07F8E02569F0E0252D
:103E2000E0640AC0EF6307F8009407FADB01B90108
:103E30009D01DC01CA01AD01EF934AD0C4D10AD083
:103E40005F91552331F02BED3FE049E450FD49EC03
:103E50004CCF0895DF93DD27B92FBF7740E85FE3AC
:103E60001616170648075B0710F4D92FFBD19F934E
:103E70008F937F936F93A8D2ECE7F0E038D1A3D172
:103E80002F913F914F915F9100D2DD2349F09058DF
:103E9000A2EA2AED3FE049EC5FE3D0785D2736DF08
:103EA000DF9191C1F7D008F481E0089565D1E395E1
:103EB0009BC10CD088C158D140F04FD130F021F4D3
:103EC0005F3F19F00BC15111C3C10EC19ED198F3D0
:103ED0009923C9F35523B1F3951B550BBB27AA278B
:103EE00062177307840738F09F5F5F4F220F331FFD
:103EF000441FAA1FA9F333D00E2E3AF0E0E830D0C9
:103F000091505040E695001CCAF729D0FE2F27D0CB
:103F1000660F771F881FBB1F261737074807AB0799
:103F2000B0E809F0BB0B802DBF01FF2793585F4F0E
:103F30002AF09E3F510568F0D1C08AC15F3FECF383
:103F4000983EDCF3869577956795B795F7959F5FD3
:103F5000C9F7880F911D9695879597F90895E1E027
:103F6000660F771F881FBB1F621773078407BA0786
:103F700020F0621B730B840BBA0BEE1F88F7E095E1
:103F8000089504D06894B11163C1089546D188F0B2
:103F90009F5790F0B92F9927B751A0F0D1F0660F35
:103FA000771F881F991F1AF0BA95C9F712C0B13050
:103FB00081F04DD1B1E008954AC1672F782F88274D
:103FC000B85F39F0B93FCCF3869577956795B3958F
:103FD000D9F73EF490958095709561957F4F8F4FFE
:103FE0009F4F0895E89409C097FB3EF49095809503
:103FF000709561957F4F8F4F9F4F9923A9F0F92FAF
:1040000096E9BB279395F695879577956795B7952C
:10401000F111F8CFFAF4BB0F11F460FF1BC06F5F12
:104020007F4F8F4F9F4F16C0882311F096E911C024
:10403000772321F09EE8872F762F05C0662371F045
:1040400096E8862F70E060E02AF09A95660F771F59
:10405000881FDAF7880F9695879597F90895DF936B
:10406000CF931F930F938B01EC01E9EAF0E03FD06F
:10407000AAD09801AE018B01EC0160E070E080E80D
:104080009FE332DE63D19801AE010F911F91CF9172
:10409000DF91FBC0990F0008550FAA0BE0E8FEEF77
:1040A00016161706E807F907C0F012161306E407FC
:1040B000F50798F0621B730B840B950B39F40A26F5
:1040C00061F0232B242B252B21F408950A2609F4D3
:1040D000A140A6958FEF811D811D089597F99F67D7
:1040E00080E870E060E008959FEF80EC0895DF9332
:1040F000CF931F930F93FF92EF92DF927B018C017E
:10410000689405C0DA2EEF01C0D0FE01E894A591B5
:104110002591359145915591AEF3EF01F7DDFE0103
:104120009701A801DA9479F7DF90EF90FF900F9153
:104130001F91CF91DF9108959F938F937F936F93FA
:10414000FF93EF939B01AC0194D0EF91FF91CFDFF0
:104150002F913F914F915F918CC000240A941616C5
:10416000170618060906089500240A941216130665
:10417000140605060895B8CF50D0E8F3E894E0E0BF
:10418000BB279F57F0F02AED3FE049EC06C0EE0F49
:10419000BB0F661F771F881F28F0B23A62077307AC
:1041A000840728F0B25A620B730B840BE3959A953F
:1041B00072F7803830F49A95BB0F661F771F881FFF
:1041C000D2F7904806C1092E0394000C11F48823FD
:1041D00052F0BB0F40F4BF2B11F460FF04C06F5FBF
:1041E0007F4F8F4F9F4F0895EF93E0FF06C0A2EAE5
:1041F0002AED3FE049EC5FEB89DDE5DF0F900394AA
:1042000001FC9058E1EDF0E097CF57FD9058440F36
:10421000551F59F05F3F71F04795880F97FB991F25
:1042200061F09F3F79F087950895121613061406E2
:10423000551FF2CF4695F1DF08C01616170618066F
:10424000991FF1CF86957105610508940895E8944A
:10425000BB2766277727CB0197F908951BDF08F462
:104260008FEF08959B01AC0160E070E080E89FE370
:1042700020CE0BD0A8CF71DF28F076DF18F0952381
:1042800009F02CCF31CF1124E3CFBFDFA0F3959FEE
:10429000D1F3950F50E0551F629FF001729FBB272D
:1042A000F00DB11D639FAA27F00DB11DAA1F649FD9
:1042B0006627B00DA11D661F829F2227B00DA11D8C
:1042C000621F739FB00DA11D621F839FA00D611D12
:1042D000221F749F3327A00D611D231F849F600D33
:1042E000211D822F762F6A2F11249F5750408AF06C
:1042F000E1F088234AF0EE0FFF1FBB1F661F771FF8
:10430000881F91505040A9F79E3F510570F0E6CEAE
:104310009FCF5F3FECF3983EDCF3869577956795EA
:10432000B795F795E7959F5FC1F7FE2B880F911D15
:104330009695879597F908959F931EDF0F9007FC38
:10434000EE5F52CF11F40EF4CFCE41C066DFD0F352
:104350009923D9F3CEF39F57550B87FF46D00024FE
:10436000A0E640EA900180585695979528F4805C25
:10437000660F771F881F20F026173707480730F48D
:10438000621B730B840B202931294A2BA6951794A5
:104390000794202531254A2758F7660F771F881F75
:1043A00020F026173707480730F4620B730B840B95
:1043B000200D311D411DA09581F7B901842F915821
:1043C000880F9695879508959B01AC0152CF9F3F2A
:1043D00031F0915020F4879577956795B795880FC0
:1043E000911D9695879597F9089591505040660FC5
:1043F000771F881FD2F7089597FB092E07260AD04A
:1044000077FD04D02ED006D000201AF47095619567
:104410007F4F0895F6F7909581959F4F0895A1E2FB
:104420001A2EAA1BBB1BFD010DC0AA1FBB1FEE1F2E
:10443000FF1FA217B307E407F50720F0A21BB30B79
:10444000E40BF50B661F771F881F991F1A9469F7F5
:1044500060957095809590959B01AC01BD01CF0151
:104460000895AA1BBB1B51E107C0AA1FBB1FA617BB
:10447000B70710F0A61BB70B881F991F5A95A9F70D
:1044800080959095BC01CD010895EE0FFF1F05901A
:0A449000F491E02D0994F894FFCF99
:10449A006D696C6C697328293D002C005961772875
:1044AA00726177293D00596177286F666673657472
:1044BA00293D004D41475F48656164696E6728720E
:1044CA006177293D0041783D0041793D00417A3DBF
:1044DA00004D783D004D793D004D7A3D0047783DCD
:1044EA000047793D00477A3D00235950523D00610B
:1044FA006363656C20782C792C7A20286D696E2F7D
:10450A006D617829203D20002F002020006D616711
:10451A006E20782C792C7A20286D696E2F6D61783F
:10452A0029203D20006779726F20782C792C7A2017
:10453A002863757272656E742F617665726167653C
:10454A0029203D200023412D00234D2D0023472DF6
:10455A0000214552523A2072656164696E67206192
:10456A006363656C65726F6D65746572002145528F
:10457A00523A2072656164696E67206D61676E6583
:10458A00746F6D6574657200214552523A207265E6
:10459A006164696E67206779726F73636F70650013
:1045AA002353594E43480023414D472D4552523A11
:1045BA00002E0005000000803F00000000000000FF
:1045CA0000000000000000803F0000000000000022
:1045DA0000000000000000803F0000000000008092
:1045EA003F0000004000004040000080400000A062
:1045FA00400000C0400000E04000000041014608C1
:10460A006B3F78E5843C867E9C3C78E5843C005789
:10461A007A3FE2FFB3BC867E9C3CE2FFB3BCA26059
:10462A007A3F000000006F163D160F1618162C165A
:10463A003C1600000000DD1A751C781AA71A8B1A9E
:02464A00C91A8B
:00000001FF
